:1000000008308A004F2B0000FF00030E83120313F9
:10001000A1000A08A0008A010408A2007708A30032
:100020007808A4007908A5007A08A6007B08A70034
:10003000831383128C308400801E20288C1A33286E
:10004000220884002308F7002408F8002508F90096
:100050002608FA002708FB0020088A00210E8300EA
:10006000FF0E7F0E09000A128A11CA280A108A1090
:100070000A11820748345434543450342F34313404
:100080002E343034203432343034303420344F3451
:100090004B340D340A3443346F346E347434653465
:1000A0006E3474342D3474347934703465343A34A5
:1000B000203474346534783474342F3470346C34B0
:1000C000613469346E340D340A340D340A3400342A
:1000D0000A108A100A1182074834543454345034B8
:1000E0002F34203432343034303420344F344B34D5
:1000F0000D340A340D340A345034493443345734FF
:1001000045344234203452344F344D342034653435
:10011000723472346F3472340D340A3400340A107D
:100120008A100A1182076834723473343D34003403
:100130000A108A100A1182076D3469346E343D3416
:1001400000340A108A100A1182077334653463344C
:100150003D3400340A108A100A1182076F34753456
:10016000743400340A108A100A1182074F344B3459
:100170000D340A34003464008C1EBB281808A80013
:100180001A08F800A81CC6281812181600008A11B0
:100190000A12CD288C1E7F29BB28780883160317E6
:1001A000B300DB3033020319D82883120313E0288D
:1001B00083120313831603173414831203137F2946
:1001C000C0308316031733020319E928831203137F
:1001D000F32883120313D0080319F2284B15500893
:1001E000D200D0017F290D30831603173302031983
:1001F000FC28831203130929831203134130831649
:10020000200203190529831209298312CB15D00175
:100210007F298316031734181029831203133629F4
:1002200083120313DC3083160317330203191B29CF
:10023000831203131F2983120313C0303129DD30C9
:1002400083160317330203192829831203132C2959
:1002500083120313DB30312983160317330883120B
:10026000031383160317B3008312031383160317B4
:1002700034102730831203135002031D4329D60183
:100280005608D5004B1328305002031C6E294B1F13
:100290005B2983160317330883120313D6078316CB
:1002A0000317330883120313560203185A29D50F74
:1002B0005A29D60A6C2983160317330883120313AD
:1002C000D507831603173308831203135502031847
:1002D0006C29D60F6C29D50A4030CB06503050021D
:1002E00003187F295008D00AF700A0307707840050
:1002F00083138316031733088000831203138A11B4
:100300000A122028831603171010831203130F08F4
:10031000F6007C087602F7002D307702031C98293E
:10032000DB0A2D30FC078316031710148312031306
:100330000030831603171018013083120313F800DE
:1003400000348316031790080319A9298312031395
:10035000AD2983120313CB13AE29CB1783160317D2
:100360009008031DB62983120313BA2983120313BD
:100370000711BB2907158316031791011210910865
:10038000031DC52983120313D829831203135908A7
:100390005B02831603171102031DD1298312031375
:1003A000D829031CD62983120313DF2983120313D0
:1003B0005B08D9008316031712148312031300304D
:1003C000831603171218013083120313F8008316E3
:1003D0000317910112109108031DF12983120313D1
:1003E000042A831203135A085B02831603171102AF
:1003F000031DFD2983120313042A031C022A8312FE
:1004000003130B2A831203135B08DA008316031706
:1004100012148312031300308316031712180130CD
:1004200083120313F80000340830F8000000640061
:1004300087118316871164000317AD0D8312031310
:100440000712031C262A83160716831203182B2A69
:10045000831607128312831687158312871D2E2A8F
:10046000F80B162A640087118316871100000716FF
:10047000640064006400640087158312871D3E2AAF
:10048000F8016400071A7814640087118316871135
:100490008312071283160712831200340830831662
:1004A0000317B10083120313770883160317B200F2
:1004B0008312031383160716640087158312871DA2
:1004C0005F2A071A0314071E0310F80D6400831631
:1004D00087118312871183160317B10B702A732AB1
:1004E000831203135A2A0313071664008312071298
:1004F0008316031732080319802A03130712031700
:10050000831203130000831687158312871D862A22
:100510006400871183168711640083120712831603
:1005200007128312003483160716640087156400CF
:100530008312071283160712640083128711831631
:100540008711A2300317AD00831203131422023067
:1005500083160317AD0083120313142283160716A4
:100560006400871564008312071283160712640063
:100570008312871183168711A3300317AD008312EE
:1005800003131422831603179E01831203130330EF
:10059000831603171E02031CD02A83120313F82AA2
:1005A000831203137030831603171E07831203137D
:1005B000840083130230831603171E020318E32AF4
:1005C00083120313E72A831203130030E82A013051
:1005D00083160317A100210883120313F7004E228C
:1005E00078088000831603179E0A83120313C72A14
:1005F00083160712000087158312871DFD2A6400E9
:100600000000000000008316071664008312003407
:10061000C030831603171902031D112B8312031315
:100620001E2B83120313DB308316031719020319E1
:100630001C2B831203133C2B83120313DB30640047
:100640000C1E1F2B9900C0308316031719020319C3
:100650002C2B83120313302B83120313DC30312B2A
:10066000DD30831603179A001A08831203136400FF
:100670000C1E372B9900452B83160317190883127C
:10068000031364000C1E412B990000344B1C512BAA
:100690008030F700831603171708831203137702BD
:1006A000562B831603171708831203138316031799
:1006B0009800180899008312031308230034831646
:1006C0000317961F662B83120313842B0F3083129C
:1006D0000313F70083160317150E83120313F70590
:1006E0000A3077020318772B3030F7077D2B8316FB
:1006F0000317160883120313F707770883160317E7
:1007000097008312031346230F30831603179505B2
:100710000A301502031C8F2B83120313932B3030E6
:1007200083120313992B831603179613160883124B
:1007300003138316031795071508970083120313F5
:1007400046238A110A12552D8316031717088312A0
:100750000313F801831603171602031CB22B83122E
:100760000313B72B160883120313F700D72BF701D7
:100770000830831603179800831203138316031798
:10078000960D83120313F70D8316031717088312B0
:10079000031377020318F700F80D83160317980B5D
:1007A000D22BD52B83120313BE2B831203130034D9
:1007B00083160317151CDF2B831203130F2C951CB4
:1007C000E42B83120313352C140896006430970031
:1007D00083120313A423770883160317940083124C
:1007E000031378083030031D012C83160317151DE1
:1007F000FC2B831203130F2C951920308312031343
:10080000072C831603171511951183120313F8078C
:100810007808831603179700831203134623831661
:100820000317140896000A30970083120313A423B9
:100830007708831603179400831203137808303067
:10084000031D2D2C83160317151D292C831203134A
:10085000352C9519203083120313F8077808831676
:1008600003179700831203134623303083160317B0
:100870009407140897008312031346238A110A125F
:100880006A2DCB1CCA2E83169818482C8312CA2EA8
:1008900083124C084D02031DE02C4E084F0403192F
:1008A000D62C6208013900380319832C9322831651
:1008B0000716640087156400831207128316071257
:1008C000640083128711831687119F300317AD00D0
:1008D0008312031314220130F7004E227808F4002B
:1008E000F7014E227808F3008316071200008715DF
:1008F0008312871D792C640000000000000083161D
:1009000007166400831262080239003803198E2C1E
:100910008030CA004A08C9000608C80083160716B6
:10092000640087156400831207128316071264009F
:100930008312871183168711A0300317AD0083122D
:10094000031314225F088316031791009201110804
:10095000AD008312031314225E0883160317AD0043
:1009600083120313142283160712000087158312C3
:10097000871DB82C640000000000000083160716D5
:10098000640007166400871564008312071283163B
:10099000071264008312871183168711A130031791
:1009A000AD00831203131422CD0ADF2CC030640083
:1009B0000C1ED72C9900CD014D08CC00CB10CA2EAF
:1009C0004D084C020318722E4E084F040319712E65
:1009D000831603179101831203135C085D04031946
:1009E000462E0130F7004E22780883160317930035
:1009F000831203136208013900380319E92D4030CE
:100A00008316031713020319082D83120313E92D0C
:100A1000831203130130F7004E2278088316031760
:100A20009300831203135C080319DD03DC034130D8
:100A3000831603171302031C202D83120313242D86
:100A4000831203134B10252D4B144B1C302D5030AB
:100A5000F700831603171308831203137702362D4A
:100A60003030831603171302831203138316031700
:100A7000920003301202031C402D83120313562DE3
:100A800083120313703083160317120783120313A4
:100A9000840083130008831603179400140895003C
:100AA00037309600831203135F2BE82D0330831633
:100AB0000317120203195F2D83120313992D83125A
:100AC00003137408831603179400093095008312EA
:100AD0000313D82B73088039003803197E2D2E306C
:100AE00083160317970083120313462335308316AA
:100AF000031797008312031346238C2D2E30831681
:100B0000031797008312031346233030831603170D
:100B100097008312031346230130F7004E22013061
:100B2000F7004E220230DC020030031CDD03DD0240
:100B3000E82D3F308316031713020319A22D8312E9
:100B40000313BA2D83120313403083160317990041
:100B500083120313082383160317130899008312C3
:100B6000031308232030CA004A08C9000508C8003A
:100B7000C809E82D21308316031713020319C32D6A
:100B800083120313DA2D83120313403083160317E5
:100B9000990083120313082383160317130899007F
:100BA0008312031308238030CA004A08C9000608CC
:100BB000C800E82D3F3083160317970083120313F4
:100BC00046233F30831603179700831203134623EF
:100BD0003C2E6208023900380319352E2330831663
:100BE00003171302031DF72D83120313042E831220
:100BF00003137C308316031713020319022E83128A
:100C00000313352E831203132330831603171302A5
:100C100003190D2E83120313222E83120313480887
:100C2000490500380319162E3130172E303083163F
:100C30000317940014089900831203130823031068
:100C4000C90C342E48084A0500380319292E6E3085
:100C50002A2E6F308316031794001408990083120C
:100C6000031308230310CA0C3C2E83160317130822
:100C700099008312031308235C080319DD03DC03C6
:100C80000130831603179100831203138316031791
:100C9000110883120313F800F808031D712EC030E9
:100CA00064000C1E502E9900F7014E228316071285
:100CB000000087158312871D5B2E64000000000072
:100CC00000008316071664008312CD014D08CC0086
:100CD000CF01CE014E084F04031D702ECB10712E94
:100CE000CB14CA2E10304D07F9000130FA007908F4
:100CF0000318FA0A840083137A1883170008F8008F
:100D0000780883160317900083120313751CA32E13
:100D1000C0308316031710020319912E8312031398
:100D2000952E83120313DC30962EDD3083160317C5
:100D3000910011088312031364000C1E9C2E99006D
:100D4000CD0A7510CA2EC030831603171002031D7A
:100D5000AC2E83120313B92E83120313DB308316D8
:100D6000031710020319B72E83120313C02E831228
:100D70000313DB3064000C1EBA2E99007514CA2EC2
:100D80008316031710088312031364000C1EC52E6C
:100D90009900CD0A8A150A12332C831603171E14E4
:100DA0009E1083120313EF01831607166400871544
:100DB00064008312071283160712640083128711DE
:100DC00083168711A0300317AD008312031314227A
:100DD00083160317AD01831203131422831603171E
:100DE000AD01831203131422831607120000871526
:100DF0008312871DF92E6400000000000000831696
:100E000007166400831283160716640087156400B2
:100E10008312071283160712640083128711831648
:100E20008711A1300317AD00831203131422013080
:100E3000F7004E227808DC005C0A031D272F83167A
:100E400003179E1483120313F7014E22AF2F0130B4
:100E5000831603179F0083120313073083160317AB
:100E60001F02031C362F831203134B2F831203130D
:100E70005C30831603171F07831203138400831348
:100E80000130F7004E2278088000831603179F0A6E
:100E9000831203132D2F831603171E109F01831235
:100EA00003130C30831603171F02031C5A2F8312DF
:100EB0000313A72F83120313A130831603171F07F1
:100EC00083120313F9000130FA0079080318FA0AB3
:100ED000840083137A1883170B30831603171F02BD
:100EE0000318752F83120313792F83120313003015
:100EF0007A2F013083160317AF002F0883120313D4
:100F0000F7004E22780883160317A00020088000FF
:100F100007301F0783120313F7005C307707840044
:100F200083130008831603172002031D9A2F8312D0
:100F30000313A12F83120313831603171E148312A6
:100F40000313831603179F0A83120313512FE30819
:100F5000031DAF2F831603171E108312031383166E
:100F60000712000087158312871DB42F640000004C
:100F7000000000008316071664008312831603170F
:100F80009E1CC52F83120313D72F831203136F08E0
:100F9000EF0AF700643077020318D72F8316031780
:100FA0001E1CD52F83120313032F831203138316E2
:100FB00003171E18DE2F83120313E22F831203136D
:100FC000DD01DC010030831603171E1C0130831283
:100FD0000313F80000348A156E208A1100304B1E6E
:100FE0000130F800003483160317A601831203139F
:100FF0008A15AF208A110034FF3FFF3FFF3FFF3FBC
:10100000CB1D2628CB1826288316031790018312A0
:101010000313103084008317831603171008840706
:101020001008831203138A11B2208A158000003839
:101030000319202883160317900A83120313092823
:101040000430CC00CD01CB14CB1143283F308316A4
:10105000200203192D28831243288312CB1843281A
:10106000D00150088316A0008312E3018A11CD2617
:101070008A15CF010130CE004E084F04031D4228CF
:10108000CB104328CB148A150A12352CCB1E5A28B4
:10109000831603172D0883120313D407831603172F
:1010A0002D0883120313540203185928D30F59280B
:1010B000D40A6B28831603172D0883120313D30752
:1010C000831603172D0883120313530203186B288A
:1010D000D40F6B28D30A2030CB06003483160317B5
:1010E000AC01831203135108520203197B28031C1D
:1010F0007B284B127C284B164B1A8E285108D10A9C
:10110000F700A030770784008313000883160317C5
:10111000AC002C08AD00831203134620831603177E
:101120002C0883120313F80000346E20780883160D
:1011300003172B0203199F2883120313A32883127A
:1011400003134B1EA5280030A6280130F8000034F8
:101150006E206E2000304B1E0130F80000346030ED
:101160004C020318C62810304C07F9000130FA0071
:1011700079080318FA0A840083137A1883178316F0
:1011800003172608800083120313CC0A8316031763
:101190002608AD008312031346200034831603177C
:1011A000A60183120313AF2083160317A60183122F
:1011B0000313AF200034D4015408D300CB12C03045
:1011C00064000C1EE0289900453083160317A60022
:1011D00083120313AF208A11F3278A151430831664
:1011E0000317A00700300318013EA1072108A20041
:1011F000A3012208A60083120313AF20831603174E
:101200002008A60083120313AF208A11F3278A1542
:10121000D80A580883160317A60083120313AF20B9
:10122000CE20643083160317A60083120313AF2069
:10123000290883160317A60083120313AF202D0875
:1012400083160317AD008312031346202C08831660
:101250000317AD008312031346202B0883160317D0
:10126000AD008312031346202A0883160317AD002E
:10127000831203134620310883160317AD0083122F
:1012800003134620300883160317AD00831203139F
:1012900046202F0883160317AD0083120313462040
:1012A0002E0883160317AD0083120313462053083C
:1012B00083160317A200A2092208A60083120313B3
:1012C000AF20540883160317A200A2092208A60023
:1012D00083120313AF202D0883160317A600831271
:1012E0000313AF202C0883160317A60083120313E1
:1012F000AF202B0883160317A60083120313AF2019
:101300002A0883160317A60083120313AF2031089F
:1013100083160317A60083120313AF203008831629
:101320000317A60083120313AF202F088316031799
:10133000A60083120313AF202E0883160317A600FE
:1013400083120313AF200034CB1400348316031729
:101350009F1FAD2983120313CB290F308312031370
:10136000F700831603171E0E83120313F7050A30C6
:1013700077020318BE293030F707C42983160317F4
:101380001F0883120313F707770883160317A600B5
:1013900083120313AF200F30831603179E050A3004
:1013A0001E02031CD62983120313DA29303083125C
:1013B0000313E029831603179F131F0883120313D7
:1013C000831603179E071E08A60083120313AF207F
:1013D0000034831603172108A200A3012208A600E7
:1013E00083120313AF20831603172008A60083126D
:1013F0000313AF200034CB12330883160317A10068
:1014000083120313320883160317A00083120313F9
:10141000E921350883160317A1008312031334084A
:1014200083160317A00083120313E9213D088316D6
:101430000317A60083120313AF203C08831603177B
:10144000A60083120313AF203B0883160317A600E0
:1014500083120313AF203A0883160317A6008312E2
:101460000313AF20390883160317A6008312031352
:10147000AF20380883160317A60083120313AF208A
:10148000370883160317A60083120313AF2036080C
:1014900083160317A60083120313AF205030831660
:1014A0000317A60083120313AF2041088316031706
:1014B000A60083120313AF200B3083160317A60078
:1014C00083120313AF20B83083160317A6008312CC
:1014D0000313AF202D0883160317AD0083120313E7
:1014E00046202C0883160317AD00831203134620F1
:1014F0002B0883160317AD008312031346202A0816
:1015000083160317AD008312031346203108831698
:101510000317AD0083120313462030088316031708
:10152000AD008312031346202F0883160317AD0066
:101530008312031346202E0883160317AD0083126F
:101540000313462083160317AD01831203134620AD
:10155000063083160317AD008312031346201430A0
:101560004607831603179E0000300318013E8312BE
:1015700003134707831603179F001F08A000A1014C
:101580002008AD00831203134620831603171E089C
:10159000AD00831203134620CB12530883160317A2
:1015A000A000A0092008A60083120313AF2054084E
:1015B00083160317A000A0092008A60083120313B6
:1015C000AF20CE204E084F04031DE82A4608CC0762
:1015D000A42100348316031728148312031351081F
:1015E00083160317A9008312031383160317281801
:1015F000FC2A831203133A2B831203138316031757
:10160000270883120313FA008316031726088400A1
:101610008313831203137A188317800803193A2B54
:1016200083160317270883120313FA008316031780
:101630002608A60A0319A70A84008313831203133A
:101640007A188317000883160317AA002A08AB002C
:10165000831203139520F808031D342B83160317F8
:10166000281083120313392B8316031728148312AF
:101670000313F52A83160317281C412B8312031327
:10168000492B8312031383160317290883120313AC
:10169000D10000344B1A4E2B6E204A2B00345F30A1
:1016A000A0002130840000308000840AA00B542B5D
:1016B0005030F700A030840000308000840AF70B1F
:1016C0005D2B83176F3003179000113084000030BA
:1016D00003138000840A0317900B6F2B712B0313E5
:1016E000692B60300313F7009030840000308000D5
:1016F000840AF70B772B8313840183131F30830530
:101700009F308400831307308000A80102308316C5
:10171000990022309800903083129800D8017510FB
:10172000F601FC019F308400831306308000FF30F7
:1017300065008601FF30870000306600F8306700E2
:10174000353090008A1182218A15013083160317E3
:101750009000831203138A11A1218A158C30840012
:1017600083138016C0308B0464008A1182218A158D
:10177000D008031DEB2B6430831603179100121061
:101780009108031DC62B83120313D92B8312031355
:101790005A085B02831603171102031DD22B831212
:1017A0000313D92B031CD72B83120313E02B8312B3
:1017B00003135B08DA008316031712148312031352
:1017C0000030831603171218013083120313F80038
:1017D000F8080319F52B01308316031790008312C4
:1017E00003138A11A1218A152F2CCB1F2F2C023015
:1017F00083160317910012109108031D022C831207
:101800000313152C8312031359085B028316031765
:101810001102031D0E2C83120313152C031C132C11
:10182000831203131C2C831203135B08D900831645
:1018300003171214831203130030831603171218B0
:10184000013083120313F800F80803192F2C8316B4
:1018500003179001831203138A11A1218A15CB1C4F
:10186000342C8A11412C8A1500284B1D262F4B1130
:10187000D101831603179301141483120313CB129F
:101880004B12D4015408D300453083160317AB0024
:10189000831203139520F80803191D2F8A11EB27D3
:1018A0008A15F80803191D2F6E2078088316031770
:1018B0009800831203136E2078088316031799008B
:1018C0009B0118089A001A089B009A0183120313BF
:1018D000FA0183160317190883120313F7007A0815
:1018E000831603171B0483120313C30077088316A0
:1018F00003171A0483120313C20000304B1E013079
:10190000F800F80803191D2FA820F80803191D2F47
:10191000A820F80803191D2F8A11EB278A15F8084B
:1019200003191D2F6E207808A90000304B1E0130CE
:10193000F800F80803191D2FA820F80803191D2F17
:101940006E207808B1006E207808B0006E2078080C
:10195000AF006E207808AE0000304B1E0130F8005A
:10196000F80803191D2F6E207808AD006E20780846
:10197000AC006E207808AB006E207808AA0000301A
:101980004B1E0130F800F80803191D2F530A031DE0
:101990001D2F540A031D1D2F01302902031DAF2DD9
:1019A000831603179601181083120313D4015408E9
:1019B000D300083083160317AB008312031395205E
:1019C000F80803190D2D83160317AB0183120313B7
:1019D0009520F80803190D2DA820F80803190D2DDE
:1019E000C501C4018A11EB278A15F8080319FC2CDC
:1019F000C40A0319C50AF22C530A031D022D540A06
:101A00000319082D831603171810831203130D2DC5
:101A10008316031718148312031300308316031759
:101A20001818013083120313F800F8080319AF2DBA
:101A30004508C7004408C600CB18AE2D0430460741
:101A400083160317950000300318013E8312031319
:101A500047078316031796001608A1001508A00073
:101A600083120313DB20CE20D4015408D300CB1201
:101A70000030831603179700B830960083120313C3
:101A8000460883160317980083120313831603175F
:101A9000180898030038031D502D831203136E2D70
:101AA0008312031383160317170883120313FA0014
:101AB000831603171608960A0319970A84008313DE
:101AC000831203137A1883170008831603179900EB
:101AD0001908AD00831203134620462D53088316C0
:101AE0000317960096091608A60083120313AF2069
:101AF000540883160317960096091608A600831249
:101B00000313AF201830D1008316031795018312F9
:101B10000313C708031D972D4608831603171502E4
:101B2000031C952D83120313AD2D8312031351084B
:101B3000D10AF700A03077078400831300088316CA
:101B4000031796001608A60083120313AF2083160E
:101B50000317950A83120313892DA4211C2F063025
:101B60002902031D1B2F831603171710831203135B
:101B7000D4015408D3006E20780883160317980008
:101B8000831203136E2078088316031799009B01B4
:101B900018089A001A089B009A0183120313FA018D
:101BA00083160317190883120313F7007A088316A4
:101BB00003171B0483120313B5007708831603175A
:101BC0001A0483120313B40000304B1E0130F800D6
:101BD000F80803190A2F6E20780883160317980057
:101BE000831203136E2078088316031799009B0154
:101BF00018089A001A089B009A0183120313FA012D
:101C000083160317190883120313F7007A08831643
:101C100003171B0483120313B300770883160317FB
:101C20001A0483120313B20000304B1E0130F80077
:101C3000F80803190A2F6E207808B9006E2078087A
:101C4000B8006E207808B7006E207808B600003023
:101C50004B1E0130F800F80803190A2F6E2078088F
:101C6000BD006E207808BC006E207808BB006E2096
:101C70007808BA0000304B1E0130F800F80803194C
:101C80000A2F6E2078088316031795000030831200
:101C900003134B1E0130F800F80803190A2F6E20B9
:101CA0007808C00000304B1E0130F800F808031916
:101CB0000A2FA820F80803190A2F6E206E206E2024
:101CC0006E2000304B1E0130F800F80803190A2F6F
:101CD0001430C2020030031CC303C302430883163E
:101CE0000317980099011808AD00831203134620CA
:101CF000420883160317AD008312031346202D08F4
:101D000083160317AD008312031346202C08831695
:101D10000317AD008312031346202B088316031705
:101D2000AD008312031346202A0883160317AD0063
:101D3000831203134620310883160317AD00831264
:101D400003134620300883160317AD0083120313D4
:101D500046202F0883160317AD0083120313462075
:101D60002E0883160317AD00831203134620831633
:101D70000317AD01831203134620063083160317A1
:101D8000AD00831203134620831603171508831230
:101D90000313F700F70CF70C3F30F7057708F7004F
:101DA00014307707D1004208831603179800831276
:101DB0000313510883160317980283120313430871
:101DC0008316031799000001031C9903990214302C
:101DD000180783120313C40000300318013E831652
:101DE0000317190783120313C5005508D3075608B4
:101DF000D407530A031DFF2E540A0319052F831617
:101E000003171710831203130A2F831603171714CF
:101E1000831203130030831603171718013083123F
:101E20000313F800F80803191B2F0A168A1100285B
:101E30000A128A151C2F4A231E2F4A2300308316AC
:101E400003171418013083120313F800B42B630036
:101E5000FF3FFF3FFF3FFF3FFF3FFF3FFF3FFF3F92
:101E6000FF3FFF3FFF3FFF3FFF3FFF3FFF3FFF3F82
:101E7000FF3FFF3FFF3FFF3FFF3FFF3FFF3FFF3F72
:101E8000FF3FFF3FFF3FFF3FFF3FFF3FFF3FFF3F62
:101E9000FF3FFF3FFF3FFF3FFF3FFF3FFF3FFF3F52
:101EA000FF3FFF3FFF3FFF3FFF3FFF3FFF3FFF3F42
:101EB000FF3FFF3FFF3FFF3FFF3FFF3FFF3FFF3F32
:101EC000FF3FFF3FFF3FFF3FFF3FFF3FFF3FFF3F22
:101ED000FF3FFF3FFF3FFF3FFF3FFF3FFF3FFF3F12
:101EE000FF3FFF3FFF3FFF3FFF3FFF3FFF3FFF3F02
:101EF000FF3FFF3FFF3FFF3FFF3FFF3FFF3FFF3FF2
:101F0000FF3FFF3FFF3FFF3FFF3FFF3FFF3FFF3FE1
:101F1000FF3FFF3FFF3FFF3FFF3FFF3FFF3FFF3FD1
:101F2000FF3FFF3FFF3FFF3FFF3FFF3FFF3FFF3FC1
:101F3000FF3FFF3FFF3FFF3FFF3FFF3FFF3FFF3FB1
:101F4000FF3FFF3FFF3FFF3FFF3FFF3FFF3FFF3FA1
:101F5000FF3FFF3FFF3FFF3FFF3FFF3FFF3FFF3F91
:101F6000FF3FFF3FFF3FFF3FFF3FFF3FFF3FFF3F81
:101F7000FF3FFF3FFF3FFF3FFF3FFF3FFF3FFF3F71
:101F8000FF3FFF3FFF3FFF3FFF3FFF3FFF3FFF3F61
:101F9000FF3FFF3FFF3FFF3FFF3FFF3FFF3FFF3F51
:101FA000FF3FFF3FFF3FFF3FFF3FFF3FFF3FFF3F41
:101FB000FF3FFF3FFF3FFF3FFF3FFF3FFF3FFF3F31
:101FC000FF3FFF3FFF3FFF3FFF3FFF3FFF3FFF3F21
:101FD000FF3FFF3FFF3FFF3FFF3FFF3FFF3FFF3F11
:101FE000FF3FFF3FFF3FFF3FFF3FFF3FFF3FFF3F01
:101FF000FF3FFF3FFF3FFF3FFF3FFF3FFF3FFF3FF1
:1020000083160317191483120313C701C601103076
:10201000C100CB18102840080439003803191628CD
:10202000831603171910831203134F2F4008023928
:10203000003803194328B60F2228B70F2228B80FFB
:102040002228B90AB308031D29280D3032020319CA
:102050003028B308031D402850303202031D4028A9
:10206000FF30BB00FF30BA003F08FA003E08BE0A4E
:102070000319BF0ABC007A08BD001230C100422813
:102080001430C1004F2F400801390038031982284D
:1020900001304407831603179A0000300318013EED
:1020A000831203134507831603179B001B089D002B
:1020B0001A089C001C0883120313B6078316031723
:1020C0001D080318013E83120313B7078316031775
:1020D0001D08831203133702031C7E28831603177F
:1020E0001D08831203133702031D8128831603176B
:1020F0001C0883120313360203188128B80A031937
:10210000B90A4F2F40081039003803194F2F4408DF
:1021100045040319BD284508831603179D00831243
:1021200003134408831603179C001C08831203132F
:10213000B607831603171D080318013E8312031305
:10214000B707831603171D08831203133702031CF6
:10215000B928831603171D08831203133702031DC2
:10216000BC28831603171C088312031336020318B6
:10217000BC28B80A0319B90AC22883160317191014
:1021800083120313B308031D55290D303202031DBA
:102190005529BB08031D5529BA08031D5529C70138
:1021A0000A30C6000A1293220A1614304607831614
:1021B00003179A0000300318013E831203134707E8
:1021C000831603179B001B08A1001A08A0008312A6
:1021D00003130A128A15DB200A168A11D401540847
:1021E000D3002830CC007208831603179E005730A6
:1021F0009F00831203130A128A15A6210A168A1158
:102200003A3083160317A600831203130A128A15A5
:10221000AF200A168A117108831603179E005730E3
:102220009F00831203130A128A15A6210A168A1127
:102230003A3083160317A600831203130A128A1575
:10224000AF200A168A117008831603179E005730B4
:102250009F00831203130A128A15A6210A168A11F7
:102260000D3083160317A600831203130A128A1572
:10227000AF200A168A110A3083160317A6008312AC
:1022800003130A128A15AF200A168A111430CC00E3
:102290001130C1000A128A15FB210A168A11831611
:1022A00003171910831203134F2FB308031D4F2F69
:1022B00050303202031D4F2F4408450403194F2F9D
:1022C000831603171C1083120313C701C60147307E
:1022D00083160317AB00831203130A128A15952085
:1022E0000A168A11F80803193C2F45308316031784
:1022F000AB00831203130A128A1595200A168A115D
:10230000F80803193C2F543083160317AB008312CF
:1023100003130A128A1595200A168A11F808031960
:102320003C2F831603171C1483120313A03051078C
:1023300084008313213000020318A4290A128A158D
:102340006E200A168A1196292F3083160317AB00C8
:10235000831203130A128A1595200A168A11A030D7
:1023600051078400831324300002031D5B2AC70138
:102370003730C6000A1293220A1614304607831615
:1023800003179E0000300318013E83120313470712
:10239000831603179F001F08A1001E08A0008312C8
:1023A00003130A128A15DB200A168A11D401540875
:1023B000D3002830CC00831603179E018312031329
:1023C000831603171E08831203130A1236200A16F7
:1023D000831603179E0AA600831203130A128A1596
:1023E000AF200A168A112D30831603171E02031917
:1023F000FC2983120313E029831203137208831646
:1024000003179E0057309F00831203130A128A1588
:10241000A6210A168A113A3083160317A6008312E2
:1024200003130A128A15AF200A168A11710883163F
:1024300003179E0057309F00831203130A128A1558
:10244000A6210A168A113A3083160317A6008312B2
:1024500003130A128A15AF200A168A117008831610
:1024600003179E0057309F00831203130A128A1528
:10247000A6210A168A110D3083160317A6008312AF
:1024800003130A128A15AF200A168A110A3083161E
:102490000317A600831203130A128A15AF200A1627
:1024A0008A111430CC001930C1000A128A15FB21A0
:1024B0000A168A113C2F831603179B0183120313FC
:1024C0000C30831603171B02031C692A83120313A3
:1024D000A52A83120313A030510784008313000838
:1024E000831603179D0021301D0203187A2A8312D8
:1024F0000313892A831203133F30831603171D0227
:10250000031D852A83120313892A83120313D10A18
:102510008E2A831603179D01831203130730831637
:1025200003171B0783120313F7005C30770784003F
:102530008313831603171D08800083120313831669
:1025400003179B0A83120313602A0A12CD260A1668
:10255000F80803197C2E831603171E108312031329
:102560000608C8005208510203181B2E5108D10A50
:10257000F700A03077078400831300088316031741
:102580009F003F301F02031DC82A83120313D52A60
:10259000831203132630831603171F020319D32A4D
:1025A000831203131A2E8312031383160317A60133
:1025B00083120313A13084008317831603172608A0
:1025C00084072608831203130A128F200A1680003C
:1025D00000380319F12A83160317A60A831203137E
:1025E000DA2A013083160317A700A130A600831250
:1025F00003130A128A15EA220A168A11F808031927
:10260000AD2B0030831603171E180130A6002810CA
:1026100083120313F201A0305107840083130008D2
:1026200083160317A9008312031330308316031790
:10263000290203181E2B831203132B2B831203135F
:102640003A308316031729020318292B8312031328
:10265000572B8312031341308316031729020318E3
:10266000342B83120313412B831203134730831639
:102670000317290203183F2B83120313572B8312CE
:102680000313613083160317290203184A2B8312A0
:102690000313902B83120313673083160317290249
:1026A000031C552B83120313902B831203130A125E
:1026B0008A156E200A168A11780883160317A70058
:1026C0000030831203134B1E0130F800F808031981
:1026D000902B83160317281483120313F20EF03085
:1026E000F2053A30831603172702031C7A2B831254
:1026F0000313842B8312031330308316031727022E
:1027000083120313F2078F2B41308316031727021E
:1027100083120313F7000A3077070F39F2070B2BE8
:102720000030831603172818013083120313F800B2
:102730008316031726088312031378040038031D39
:10274000A72B831603171E1083120313AC2B8316BB
:1027500003171E1483120313B22A83160317A6014C
:1027600083120313A13084008317831603172608EE
:1027700084072608831203130A1298200A16800081
:1027800000380319C92B83160317A60A83120313F3
:10279000B22B013083160317A700A130A6008312C5
:1027A00003130A128A15EA220A168A11F808031975
:1027B000852C0030831603171E180130A600281040
:1027C00083120313F101A030510784008313000822
:1027D00083160317A90083120313303083160317DF
:1027E00029020318F62B83120313032C83120313FD
:1027F0003A308316031729020318012C831203139E
:102800002F2C831203134130831603172902031858
:102810000C2C83120313192C8312031347308316D5
:10282000031729020318172C831203132F2C83126A
:10283000031361308316031729020318222C831215
:102840000313682C831203136730831603172902BE
:10285000031C2D2C83120313682C831203130A12FA
:102860008A156E200A168A11780883160317A700A6
:102870000030831203134B1E0130F800F8080319CF
:10288000682C83160317281483120313F10EF030FB
:10289000F1053A30831603172702031C522C8312CA
:1028A00003135C2C831203133030831603172702A3
:1028B00083120313F107672C413083160317270295
:1028C00083120313F7000A3077070F39F107E32B60
:1028D0000030831603172818013083120313F80001
:1028E0008316031726088312031378040038031D88
:1028F0007F2C831603171E1083120313842C831658
:1029000003171E1483120313B22A83160317A6019A
:1029100083120313A130840083178316031726083C
:1029200084072608831203130A12A1200A168000C6
:1029300000380319A12C83160317A60A8312031368
:102940008A2C013083160317A700A130A60083123A
:1029500003130A128A15EA220A168A11F8080319C3
:102960005D2D0030831603171E180130A6002810B5
:1029700083120313F001A030510784008313000871
:1029800083160317A900831203133030831603172D
:1029900029020318CE2C83120313DB2C831203139A
:1029A0003A308316031729020318D92C8312031314
:1029B000072D8312031341308316031729020318CE
:1029C000E42C83120313F12C831203134730831674
:1029D000031729020318EF2C83120313072D831208
:1029E000031361308316031729020318FA2C83128C
:1029F0000313402D83120313673083160317290234
:102A0000031C052D83120313402D831203130A1296
:102A10008A156E200A168A11780883160317A700F4
:102A20000030831203134B1E0130F800F80803191D
:102A3000402D83160317281483120313F00EF03071
:102A4000F0053A30831603172702031C2A2D831240
:102A50000313342D83120313303083160317270218
:102A600083120313F0073F2D41308316031727020B
:102A700083120313F7000A3077070F39F007BB2CD6
:102A80000030831603172818013083120313F8004F
:102A90008316031726088312031378040038031DD6
:102AA000572D831603171E10831203135C2D8316F4
:102AB00003171E1483120313B22A83160317A601E9
:102AC00083120313A130840083178316031726088B
:102AD00084072608831203130A12AA200A1680000C
:102AE00000380319792D83160317A60A83120313DE
:102AF000622D013083160317A700A130A6008312B0
:102B000003130A128A15EA220A168A11F808031911
:102B10001A2E0A128A156E200A168A117808831650
:102B200003179F000030831203134B1E0130F8007F
:102B3000F80803191A2E3030831603171F020318E2
:102B4000A42D831203131A2E831203133A30831613
:102B500003171F02031CAF2D831203131A2E8312B7
:102B600003133D3083160317AB00831203130A12BD
:102B70008A1595200A168A11F80803191A2E0A12C6
:102B80008A156E200A168A11780883160317A0008A
:102B90000030831203134B1E0130F800F8080319AC
:102BA0001A2E30308316031720020318DA2D8312F1
:102BB00003131A2E831203133A30831603172002CD
:102BC000031CE52D831203131A2E831203133030D6
:102BD0008316031720020319F02D83120313052E09
:102BE000831203133030831603171F02831203135B
:102BF000F8000130F700F8080319022E0310F70D52
:102C0000F80BFE2D7708C804182E303083160317F2
:102C10001F0283120313F8000130F700F8080319AC
:102C2000152E0310F70DF80B112E7708FF3AC80583
:102C300048088600B22A831603171E18222E831214
:102C400003137B2E83120313831607166400871564
:102C5000640083120712831607126400831287111F
:102C600083168711A2300317AD00831203130A12D3
:102C700014220A16023083160317AD0083120313C1
:102C80000A1214220A1683160317A60183120313CD
:102C90000330831603172602031C512E83120313DD
:102CA0006C2E8312031370308316031726078312CA
:102CB000031384008313000883160317A700270853
:102CC000AD00831203130A1214220A168316031787
:102CD000A60A83120313482E8316071200008715D5
:102CE0008312871D712E640000000000000083160F
:102CF000071664008312802EE3010A12CD260A16FD
:102D0000EF08031DF92EC7012230C6001430460714
:102D1000831603179E0000300318013E831203132D
:102D20004707831603179F001F08A1001E08A00075
:102D3000831203130A128A15DB200A168A11D401A2
:102D40005408D300831603179E01831203133830EF
:102D500084008317831603171E0884071E08831236
:102D600003130A1268200A16800000380319BE2EC9
:102D7000831603179E0A83120313A72E2830CC0054
:102D80004608831603179E00831203138316031746
:102D90001E089E030038031DD02E83120313EF2E4E
:102DA0008312031310304C07F9000130FA00790840
:102DB0000318FA0A840083137A1883170008F800AE
:102DC0007808831603179F001F08AD0083120313B2
:102DD0000A128A1546200A168A11CC0AC62E143009
:102DE000CC001930C1000A128A15FB210A168A117B
:102DF0003C2F5D08C7005C08C600143046078316E8
:102E000003179E0000300318013E83120313470787
:102E1000831603179F001F08A1001E08A00083123D
:102E200003130A128A15DB200A168A11D4015408EA
:102E3000D300600883160317AD00831203130A1230
:102E40008A1546200A168A116108831603179E0008
:102E50009F011E08AD00831203130A128A15462033
:102E60000A168A111930C100CF010130CE000A12B2
:102E70008A15FB210A168A110030831603171C18C5
:102E8000013083120313F800F80803194D2F83163D
:102E900003171910831203134F2F1130C10083162B
:102EA00003171918562F831203136C2F8312031361
:102EB00083160317A1011430A000831203130A1212
:102EC0008A15DB200A168A11D4015408D3000A128D
:0E2ED0008A15FB210A168A118A150A12182F7C
:02400E00723FFF
:0840000006000700080005009E
:00000001FF
;PIC16C76
