:1000000010308A00AB2C00000A108A100A118207F7
:100010000A344E3449344334203469346E346934FC
:1000200074342034653472347234203400340A104D
:100030008A100A11820720344E3449344334203464
:100040005234783420346F347634653472347234F8
:1000500075346E34203400340A108A100A11820775
:1000600020344E3449344334203470346B34743487
:100070002034653472347234203400340A108A100B
:100080000A11820720344E3449344334203470340A
:100090007434723420346534723472342034003451
:1000A0000A108A100A1182074E346F3420346434E7
:1000B00061347934743469346D34653420346D348A
:1000C000733467340D340A3400340A108A100A116C
:1000D000820748345434543450342F34203432346A
:1000E0003034303420344F344B340D340A340D3432
:1000F0000A344E346F34203457346534623420343B
:100100007034613467346534733421340D340A3407
:1001100000340A108A100A1182070D340A3453344D
:1001200065347234693461346C3420346E3475341F
:100130006D343F34203400340A108A100A118207CB
:100140000D340A3449345034203461346434643416
:1001500072343F34203400340A108A100A118207A6
:100160000D340A3458346D346F34643465346D346E
:100170003F34203400340A108A100A1182074334B5
:1001800068346934703457346534623420347634DA
:1001900031342E34303433340A3400340A108A10A7
:1001A0000A11820743346F346E346634693467341D
:1001B00020340034FF30831688008312860181309A
:1001C000840083138013E030660009148914091534
:1001D0000030831689008312003433308400831783
:1001E0000008031902290630F800F701F70BF6287A
:1001F000F80BF5285A30F700F70BFC280000000038
:10020000800BF32800340030831688008312851693
:10021000031735080F390313F7007708F030080586
:10022000770488008512003400308316880083121A
:100230000812881203173208B300B30E0F30B3054B
:100240003308B5000313032103173208B500031365
:1002500003210F308316880041308312F700F70B1B
:100260002F2903173208FC390038031939290313E1
:100270003F29031302300317B3000313ED200034AA
:1002800085120F30831688008312081288120F30EF
:100290000317B3000313ED2028300317B200031334
:1002A000142105300317B3000313ED202830031782
:1002B000B20003131421A330F700F70B5D290000EF
:1002C00028300317B200031314214130F700F70B55
:1002D000672928300317B2000313142104300317D1
:1002E000B200031314210E300317B20003131421BC
:1002F00001300317B2000313142180300317B2003A
:10030000031314218A110A16332D261EC4290D3019
:100310000317310203198E29031395290313803023
:100320000317B20003131421C4290A300317310242
:1003300003199C290313A3290313C0300317B20028
:1003400003131421C42903173108B20000308316A7
:100350000313880083128812081603173208B300AB
:10036000B30E0F30B3053308B50003130321031791
:100370003208B500031303210F3083168800413083
:100380008312F700F70BC229A61ED8290A300317DB
:1003900031020319CD290313D22903130D300C1E8A
:1003A000CF2999000317310803130C1ED529990092
:1003B00000340317AA01A901031306300317290209
:1003C000031CE4290313F4290313031729088D00E0
:1003D0008F0183168C130C1483120C08AA070313C5
:1003E0000317A90A0313DD2903172A08FF3A031389
:1003F000F800003403178D018F0183168C130C1441
:1004000083120C080313AE00013003178D008F0117
:1004100083168C130C1483120C080313AF000230E4
:1004200003178D008F0183168C130C1483120C0894
:100430000313D100033003178D008F0183168C1333
:100440000C1483120C080313D000043003178D0022
:100450008F0183168C130C1483120C080313CF0026
:10046000053003178D008F0183168C130C14831233
:100470000C080313CE00D92178080317A600063014
:100480008D008F0183168C130C1483120C08260226
:10049000031D4C2A03134F2A03130030502A013046
:1004A000F8008A110A16502D0F08F4007508F4029E
:1004B00078307402031C622AA50A7830F5070130EF
:1004C000F800642A0030F8000034640054221F153C
:1004D0001F19682A1E08FA0083161E088312A1003D
:1004E0007A08A2009F308400831384308000083093
:1004F000F8001F08C73978049F001030F700F70B89
:100500007F2A1F151F19822A1E08FA0083161E084B
:100510008312A3007A08A4009F30840083138E30D6
:1005200080000030F8001F08C73978049F000A30A7
:100530000317B5003610B508031DA02A0313AE2A11
:1005400003132708250203173502031DA92A0313E5
:10055000AE2A031CAD2A0313B32A03132508A700F0
:100560000317361403130030031736180130031332
:10057000F800F8080319BE2A1030850600348C1ED6
:10058000BF2A1808A0001A08F800A01CC92A1812CF
:100590001816000000341030F700FA010317B701F5
:1005A00003130317B40CB30C0318D82A0313E42A5B
:1005B00035080313FA07031CE02A0317B70A0313CD
:1005C00003173608B70703130317B70C0313FA0C06
:1005D000F90CF80CF70BD12A8A110A127F2B03179A
:1005E000A901AA01B101B20103138C1AF92A6522EB
:1005F000F52ABF2278080317AB001B302B02031922
:10060000032B0313062B03132617622B303003171B
:100610002B0203180D2B0313382B03133A30031747
:100620002B02031C152B0313382B03130530031760
:100630003102031C1D2B0313372B0313031731083F
:10064000B10A0313F7002C307707F9000130FA00E4
:1006500079080318FA0A840083137A18831703179A
:100660002B0880002B0803130C1E342B9900622BDF
:10067000083003172B02031D3F2B0313482B0313D2
:100680007F3003172B020319472B03135F2B031330
:100690000317B108031D4E2B03135E2B031303171F
:1006A000B103083003130C1E532B990020300C1E8D
:1006B000572B990008300C1E5B2B9900622B0317F7
:1006C000AB0103130317AB08031D682B03136B2B3C
:1006D0000313261FF52A03173108B1030038031D41
:1006E000732B0313A72B031303172A08B40029083D
:1006F000B3000030B6000A30B5000313CB2A7908E6
:100700000317B400031378080317B3003208B20AC2
:100710000313F7002C307707F9000130FA0079084D
:100720000318FA0A840083137A1883170008031742
:10073000B3070318B40A3308A9003030A9023408FB
:10074000AA000030031CAA03AA0203136B2B031791
:1007500029080313F80003172A080313F9000034CB
:100760000830F800000064008711831687116400C8
:1007700083120317C50D03130712031CC22B831624
:10078000071683120318C72B8316071283128316CA
:1007900087158312871DCA2BF80BB22B64008711B3
:1007A000831687110000071664006400640064006B
:1007B00087158312871DDA2BF8016400071A781455
:1007C000640087118316871183120712831607129C
:1007D0008312003426130317A901031303172908F2
:1007E000031389200317A90A03130C1EF52B990084
:1007F0000E30031729020319FF2B0313EE2B0313EB
:10080000EF2279080317A600031378080317A50041
:100810000313261B132C031726080313AE0003171C
:1008200025080313AF0026130317A90103130317A9
:10083000290803139C200317A90A03130C1E1E2C5E
:1008400099000B30031729020319282C0313172CC6
:10085000031385150515EF227808D1002E300C1EE4
:100860002F2C9900261B372CEF227808D0002E3031
:100870000C1E382C9900261B402CEF227808CF0044
:100880002E300C1E412C9900261B492CEF22780893
:10089000CE00261B392D03178D018F0103132E085F
:1008A00003178C0083168C130C15831203138B1300
:1008B0005530831603178D00AA308D008C148312D7
:1008C0000313831603178C1C682C83120313612CEB
:1008D0000C11831203138B17013003178D008F0146
:1008E00003132F0803178C0083168C130C15831227
:1008F00003138B135530831603178D00AA308D0018
:100900008C1483120313831603178C1C8A2C8312F6
:100910000313832C0C11831203138B17023003175C
:100920008D008F010313510803178C0083168C135D
:100930000C15831203138B135530831603178D0088
:10094000AA308D008C1483120313831603178C1C9A
:10095000AC2C83120313A52C0C11831203138B17D9
:10096000033003178D008F010313500803178C0009
:1009700083168C130C15831203138B1355308316B7
:1009800003178D00AA308D008C1483120313831675
:1009900003178C1CCE2C83120313C72C0C1183124B
:1009A00003138B17043003178D008F0103134F08B7
:1009B00003178C0083168C130C15831203138B13EF
:1009C0005530831603178D00AA308D008C148312C6
:1009D0000313831603178C1CF02C83120313E92CCA
:1009E0000C11831203138B17053003178D008F0131
:1009F00003134E0803178C0083168C130C158312F7
:100A000003138B135530831603178D00AA308D0006
:100A10008C1483120313831603178C1C122D83125C
:100A200003130B2D0C11831203138B17D921780894
:100A30000317A90006308D008F0129088C0083164A
:100A40008C130C15831203138B1355308316031765
:100A50008D00AA308D008C148312031383160317A4
:100A60008C1C352D831203132E2D0C1183120313AE
:100A70008B170317A9010313031729080313AC20CD
:100A80000317A90A03130C1E432D99000A300317FC
:100A9000290203194D2D03133C2DAA012F10AF106D
:100AA0002F11AF11B5013610B508031D592D0313D1
:100AB000672D03132708250203173502031D622D36
:100AC0000313672D031C662D03136C2D03132508D8
:100AD000A70003173614031300300317361801302C
:100AE0000313F8008C1AB22D640054220A30031745
:100AF000B5003610B508031D7F2D03138D2D03138C
:100B00002708250203173502031D882D03138D2D99
:100B1000031C8C2D0313922D03132508A700031724
:100B20003614031300300317361801300313F8008E
:100B3000F8080319B12D10308506051503172F1C71
:100B4000A32D0313AE2D03130317AA01AF112F1109
:100B5000AF10153003130C1EAB2D990003172F1087
:100B60000313722DBF2278080317A9002F14AF1C9E
:100B7000BB2D0313D62D03130130031729020319CC
:100B8000C32D0313C82D03130317AF140313D52D5F
:100B90000430031729020319CF2D0313D52D031396
:100BA00006300C1ED12D99009F2E9E2E03172F1D4F
:100BB000DB2D0313E22D031303172908AC002F15B7
:100BC00003139E2E0317AF1DE72D0313F62D0313FA
:100BD00003172908FF3A2C020319F02D0313F52DF2
:100BE00003130317AF15AC0303139E2E80300317B6
:100BF0002A02031CFD2D0313712E031303172A0869
:100C00001F39AB00AA0AA0302B07031384008313FB
:100C10000317290880001F302B020319112E03131C
:100C2000702E031383160716640087156400831261
:100C30000712831607126400831287118316871127
:100C4000A03083120317C5000313B02303172C0829
:100C5000B0000310B00C3008C5000313B023031715
:100C60002A08AE002030AE022C0801390038031DDE
:100C70003B2E0313402E031380300317AE070313DC
:100C800003172E08C5000313B0230317AD01031388
:100C9000203003172D02031C4F2E0313612E031364
:100CA000A03003172D0703138400831300080317D4
:100CB000B0003008C5000313B0230317AD0A0313B7
:100CC000482E83160712000087158312871D662E93
:100CD0006400000000000000831607166400831201
:100CE0009E2E06300C1E722E99000317B501361089
:100CF000B508031D7D2E03138B2E03132708250231
:100D000003173502031D862E03138B2E031C8A2E18
:100D10000313902E03132508A7000317361403139B
:100D200000300317361801300313F8001030850621
:100D30000317AA01AF112F11AF100313722D8A11DF
:100D40000A16702DFF3083168800831203173F08A0
:100D500003138600091008080317C00003130914C1
:100D6000031740080313F800003403174008031367
:100D7000860003174108031388000030831688009B
:100D80008312891000008914FF30831688008312B3
:100D900000340317AD010313DA2002300317B30048
:100DA0000313ED20091102300317B3000313ED20E4
:100DB0001F300317BF000313A22678080317B000E3
:100DC0001F30C0003008C1000313B52602300317DE
:100DD000B3000313ED2007300317BF000313A2264F
:100DE000780880390038031D0A2F0317B001031358
:100DF00003173008031304200317B00AB1000313CC
:100E000085210E30031730020319082F0313F82E23
:100E10000313D12F0317C0012130C1000313B526DE
:100E200002300317B3000313ED200E300317C00088
:100E30004830C1000313B5260A300317C000C101B2
:100E40000313B5260B300317C000C1010313B526E9
:100E50000C300317C0002030C1000313B5260D303D
:100E60000317C0000230C1000313B5260430031776
:100E7000C0004030C1000313B52601300317C00085
:100E80004630C1000313B52602300317C0005F309F
:100E9000C1000313B52603300317C0005E30C10044
:100EA0000313B52607300317C000FF30C10003133A
:100EB000B5260F300317C000C1010313B526031771
:100EC000C0016130C1000313B52602300317B3001F
:100ED0000313ED200317AE010313063003172E0290
:100EE000031C742F03138B2F0313013003172E07DA
:100EF000B0002A302E070313840083130008031761
:100F0000B1003008C0003108C1000313B526031733
:100F1000AE0A03136D2F0317AE0103130830031736
:100F20002E02031C952F0313A42F0313083003175D
:100F30002E07B0003008C000FF30C1000313B526F3
:100F40000317AE0A03138E2F07300317C000473074
:100F5000C1000313B5264730B0000317C00120308D
:100F6000C1000313B5260C300317C0000430C100C4
:100F70000313B5260D300317C000C1010313B526B6
:100F800007300317C000FF30C1000313B526031755
:100F9000C0012230C1000313B52601300317AD0094
:100FA000031303172D080313F800003403173D083B
:100FB0000313F80103173C02031CE02F0313E42F73
:100FC0003C080313F700FB2FF70108300317BE009E
:100FD00003130317BC0D0313F70D03173D08031389
:100FE00077020318F700F80D0317BE0BF82FFA2F3E
:100FF0000313E92F03130034FF3FFF3FFF3FFF3F81
:101000000317271C052803132E28A71C09280313E0
:101010004F282608BC006430BD0003138A11D62770
:101020008A1577080317A600031378083030031DCC
:1010300022280317271D1E2803132E28A719203046
:101040000313262803172711A7110313F80778089D
:101050000317B10003138A1185218A150317260887
:10106000BC000A30BD0003138A11D6278A15770801
:101070000317A600031378083030031D4728031711
:10108000271D442803134F28A71920300313F807FE
:1010900078080317B10003138A1185218A153030AF
:1010A0000317A6072608B10003138A1185218A15A4
:1010B0008A150A12622803172508A6000C30A7001B
:1010C00003130028003407300317C0004030C1006C
:1010D00003138A11B5268A1503173D080039BF008E
:1010E0003C08BE000830C0003E08C10003138A114E
:1010F000B5268A1503173D08BE00BF010930C000A0
:101100003E08C10003138A11B5268A1500345F30EA
:1011100003172E0203188E28031394280313E730B5
:101120000317AE070313A028463003172E02031C33
:101130009B280313A028031319300317AE070313CA
:1011400003172E080313F80000340317A501A601A6
:101150000730BF0003138A11A2268A1578081039B8
:1011600000380319CD280317AD01031303172D0809
:1011700003138A1117208A150317AD0A03130C1ED7
:10118000BF289900103003172D020319C928031333
:10119000B62803138A11C9268A150317C0016030C7
:1011A000C10003138A11B5268A1507300317BF0043
:1011B00003138A11A2268A150317A80103137808BE
:1011C0000317A700C0012030C10003138A11B52600
:1011D0008A150317A8080319EF280313F828031327
:1011E000300803172702031DF7280313192A0313D6
:1011F0003008B1000317AE01031330080317AD0028
:101200002D08AE00AD012E08BD002D08BC00031353
:10121000632000300317AE003230AD001230AF0053
:101220000730C0004030C10003138A11B5268A156B
:101230000A300317C0002F08C10003138A11B52616
:101240008A150B300317C000C10103138A11B5269C
:101250008A150317C0010A30C10003138A11B5268D
:101260008A1503172F08AF030038031D392903130C
:101270005629031310300317BF0003138A11A22647
:101280008A1578080317B0002E080313FA00031715
:101290002D08AD0A0319AE0A8400831303137A18CC
:1012A000831703173008800003133129350803170B
:1012B000A600031334080317A500031332080139ED
:1012C00000380319BC29013003172602031C6A29C0
:1012D00003137A2903130317A608031971290313AB
:1012E000BC2903134030031725020318792903137F
:1012F000BC290313053003172602031881290313A1
:1013000092290313053003172602031989290313B1
:10131000BC290313EF3003172502031C9129031383
:10132000BC29031312300317A5020030031CA603C7
:10133000A60226080313C500031725080313C400DB
:1013400043080317BC00BD01031342080317BF0085
:10135000BE013F080313FA0003173E0800390313C8
:10136000F7007A0803173D040313C3007708031737
:101370003C040313C200D5290317A601A501AD0142
:10138000031303172D0803138A112C208A15031742
:10139000AD0A03130C1ECA2999000D3003172D0244
:1013A0000319D4290313C129031346303302031C44
:1013B000E0295F3033020318E0293308B000052A22
:1013C0000317AD01031303172D0803138A113E20E1
:1013D0008A150317AD0A03130C1EEC2999000D3072
:1013E00003172D020319F6290313E3290130031310
:1013F00030070317AD002D08AE00031387207808CF
:10140000B0000317A601A501031330080317AD00B0
:101410000130AD022D08AE000313872078080317B2
:10142000A9000330C0002908C10003138A11B526A2
:101430008A15031725080313F8000317260803135A
:10144000F9008A110A16C22D0A300317C0000130B4
:10145000C10003138A11B5268A150B300317C0008B
:10146000C10103138A11B5268A150317C0010A307A
:10147000C10003138A11B5268A1510300317BF0067
:1014800003138A11A2268A1578080317B8000313DC
:101490000034261D592A03173E080313CB070317F0
:1014A0003E0803134B020318582ACA0F582ACB0AC6
:1014B000662A03173E080313CA0703173E080313DF
:1014C0004A020318662ACB0F662ACA0A0430A60607
:1014D00000340317B701031347084502031C7C2A95
:1014E00047084502031D7A2A4608440203197C2A4C
:1014F000031C7C2AA6107D2AA614A6188C2A242256
:1015000078080317B7000313C60A0319C70A03179D
:101510003708BE0003134922031737080313F800E6
:10152000003469227808031736020319992A031335
:101530009C2A0313A61C9E2A00309F2A0130F80023
:10154000003469226922692269220030A61C013018
:10155000F8000034692269220030A61C0130F8002E
:101560000034403048020318C02A4808C80AF7006F
:10157000A03077078400831303173C08800003130F
:1015800003173C08BE00031349220034031739082F
:10159000BA00BB013A08BC000313B1220317380894
:1015A000BC000313B122003403173908BC00031335
:1015B000B122003403172808A8030038031DE22ACB
:1015C0000313F92A0313031727080313FA00031759
:1015D0002608A60A0319A70A8400831303137A189E
:1015E000831700080317A9002908BC000313B122C0
:1015F000DA2A003403173E080139BE070730C0005D
:101600004030C10003138A11B5268A150A3003172A
:10161000C0003E08C10003138A11B5268A150B309D
:101620000317C000C10103138A11B5268A150317D9
:10163000C0011230C10003138A11B5268A150317A1
:101640003E08BE030038031D272B0313422B031350
:1016500003173D080313FA0003173C08BC0A0319DB
:10166000BD0A8400831303137A1883170008031735
:10167000BF001030C0003F08C10003138A11B52617
:101680008A151F2BFF300317BE0003130317BE0874
:10169000031D4C2B03135D2B031307300317BF00EF
:1016A00003138A11A2268A15780840390038031DD1
:1016B0005D2B0317BE030313462B003407300317BB
:1016C000C0000A30C10003138A11B5268A154030C4
:1016D0000317BD00BC010313632000300317BD00D6
:1016E0003C30BC000630BE000313FA220030031762
:1016F000BD002A30BC000630BE000313FA224308A6
:101700000317BC00BD01031342080317BF00BE014D
:101710003F080313FA0003173E0800390313F700CC
:101720007A0803173D040313C300770803173C042A
:101730000313C20000300317BD004230BC0002306A
:10174000BE000313FA2203173908BD003808BC0095
:101750003A08BE000313FA2200340E300317B8070C
:1017600000300318013EB90703130317B908031922
:10177000BB2B0313C92B03133C3003173802031C84
:10178000C32B0313C92B03130317B9013C30B80053
:10179000031305300317C0003808C10003138A1172
:1017A000B5268A1503173908BA00BB010630C000F8
:1017B0003A08C10003138A11B5268A150317C00120
:1017C0002430C10003138A11B5268A150034A618E7
:1017D000EB2B6922E72B003403172510B601031306
:1017E0009122F8080319162D01300317B6000313D0
:1017F0009122F8080319162D08300317B6000313B9
:101800009122F8080319162D0317B601031391222C
:10181000F8080319162D06300317B600031391229A
:10182000F8080319162D04300317B600031391228C
:10183000F8080319162D0317A7010130A60003139A
:10184000692278080317AF00031369227808031789
:10185000B000B2012F08B1003108B200B10103138A
:10186000FA01031730080313F7007A08031732044C
:10187000A9000313770803173104A80000300313ED
:10188000A61C0130F800F8080319562C0317270886
:10189000290203194D2C0313562C03130317260892
:1018A0002802031D552C0313582C03130030592C08
:1018B0000130F800F8080319162DA122F8080319C1
:1018C000162DAA22F8080319162D69227808D900C6
:1018D00069227808D80069227808D7006922780838
:1018E000D6000030A61C0130F800F8080319162DA8
:1018F000A122F8080319162DAA22F8080319162D9B
:1019000051080317B60003139122F8080319A02CFD
:1019100050080317B60003139122F8080319A02CEE
:101920004F080317B60003139122F8080319A02CDF
:101930004E080317B60003139122F808031DA22CCA
:101940000030A32C0130F800F8080319162D0317F6
:1019500025140313C8010317B9010130B80003139C
:10196000C62208300317B900B8010313C622063097
:101970000317B9000313D42204300317B90003136B
:10198000D4220317B9010230B8000313C622003075
:101990000317A7002A30A6000630A8000313DA2296
:1019A00051080317BC000313B12250080317BC00F1
:1019B0000313B1224F080317BC000313B1224E08D2
:1019C0000317BC000313B12200300317A7003C30FB
:1019D000A6000630A8000313DA2259080317BC003A
:1019E0000313B12258080317BC000313B122570890
:1019F0000317BC000313B12256080317BC000313DE
:101A0000B12200300317B900A030B800BB010313A6
:101A100048080317BA0003135E230317B901031321
:101A200048080317B8000313AD23172DE723003030
:101A30000317251801300313F8008A110A16D32D55
:101A400069220030A61C0130F8000034C801CB0127
:101A50004B08CA00261145300317B9000313D422DE
:101A60000317B9010313D4226F080317B900031336
:101A70006E080317B8000313C6220317B901031336
:101A8000D422F20A72080317B9000313D4220317F1
:101A9000B901B8010313C62264300317B900031358
:101AA000D4224D080317B9000313D4225108031799
:101AB000BE000313492250080317BE000313492236
:101AC0004F080317BE00031349224E080317BE0038
:101AD0000313492259080317BE000313492258086B
:101AE0000317BE000313492257080317BE00031350
:101AF000492256080317BE00031349224A08031758
:101B0000B600B6093608B9000313D4224B080317F0
:101B1000B600B6093608B9000313D42251080317DA
:101B2000BC000313B12250080317BC000313B122F9
:101B30004F080317BC000313B1224E080317BC0063
:101B40000313B12259080317BC000313B12258082C
:101B50000317BC000313B12257080317BC0003137B
:101B6000B12256080317BC000313B12200340A3017
:101B70000317C0000130C10003138A11B5268A156E
:101B80000B300317C000C10103138A11B5268A1553
:101B90000317C0011230C10003138A11B5268A153C
:101BA00010300317C0003E08C10003138A11B52688
:101BB0008A15003403173908BA00BB013A08BE0081
:101BC0000313492203173808BE00031349220034C7
:101BD00008300317C900031377080317CA0003135B
:101BE00083160716640087158312871DF52D071AC3
:101BF0000314071E0310F80D640083168711831267
:101C000087110317C90B052E072E0313F02D83161A
:101C10000313071664008312071203174A080319F7
:101C2000162E8316031307128312031703130000E3
:101C3000831687158312871D1B2E64008711831658
:101C4000871164008312071283160712831200346F
:101C500003173614B6100313F30183160716640036
:101C6000871564008312071283160712640083121B
:101C7000871183168711A03083120317C500031341
:101C80008A11B0238A150317C50103138A11B023E3
:101C90008A150317C50103138A11B0238A15831609
:101CA0000712000087158312871D542E6400000060
:101CB00000000000831607166400831283160716BF
:101CC00064008715640083120712831607126400EC
:101CD0008312871183168711A13083120317C50061
:101CE00003138A11B0238A150130F700E82578081C
:101CF00003179000100A03197F2E0313862E031377
:101D00000317B6140313F701E825022F0130031758
:101D1000B7000313073003173702031C912E031378
:101D2000A92E03131030031737070313F9000130EE
:101D3000FA0079080318FA0A840083137A188317C3
:101D40000130F700E825780880000317B70A03136D
:101D50008A2E03173610B70103130C30031737020E
:101D6000031CB42E0313F82E03133930031737075F
:101D70000313F9000130FA0079080318FA0A840005
:101D800083137A1883170B30031737020318CA2EF0
:101D90000313CD2E03130030CE2E01300317C700DE
:101DA00047080313F700E82578080317B800380838
:101DB0008000073037070313F70010307707F9006A
:101DC0000130FA0079080318FA0A840083137A189C
:101DD0008317000803173802031DF02E0313F42E97
:101DE00003130317361403130317B70A0313AD2E97
:101DF000031797080319FE2E0313022F031303176B
:101E00003610031383160712000087158312871DEF
:101E1000072F64000000000000008316071664000E
:101E200083120317B61C162F0313242F03137308F2
:101E3000F30AF700643077020318242F0317361CC7
:101E4000232F03135E2E031303173618292F0313B2
:101E50002E2F031303179101900103130030031772
:101E6000361C01300313F800003403173D08BE0090
:101E70000313492203173D08BE000313B725A80A20
:101E80000319A90A0034F801F901F701FA0103174F
:101E90003F0803194D2F0313532F3E08031D522FE4
:101EA00003137E2F031310300317C0000313031016
:101EB0000317BC0DBD0D0313F70DFA0D03173F08F3
:101EC00003137A02031D682F03173E0803137702DA
:101ED000031C752F03173E080313F702031CFA03B4
:101EE00003173F080313FA020314F80DF90D031743
:101EF000C00B7B2F7D2F0313572F031300000034DB
:101F000003173B1C852F0313AC2FBB1C892F031316
:101F1000CB2F3A08BC006430BD0003138A11D627CA
:101F20008A1577080317BA00031378083030031DA9
:101F3000A22F03173B1D9E2F0313AC2FBB1920307C
:101F40000313A62F03173B11BB110313F8077808DF
:101F50000317BD000313352703173A08BC000A30E6
:101F6000BD0003138A11D6278A1577080317BA0014
:101F7000031378083030031DC52F03173B1DC22FF4
:101F80000313CB2FBB1920300313F807780803176E
:101F9000BD000313352730300317BA073A08BD00D8
:101FA000031335270034FF3FFF3FFF3FFF3FFF3F55
:101FB000FF3FFF3FFF3FFF3FFF3FFF3FFF3FFF3F31
:101FC000FF3FFF3FFF3FFF3FFF3FFF3FFF3FFF3F21
:101FD000FF3FFF3FFF3FFF3FFF3FFF3FFF3FFF3F11
:101FE000FF3FFF3FFF3FFF3FFF3FFF3FFF3FFF3F01
:101FF000FF3FFF3FFF3FFF3FFF3FFF3FFF3FFF3FF1
:102000006C0828070317B60003136D080318013E78
:1020100029070317B7001430B60700300318013E34
:10202000B707143036070313EE0000300318013EE3
:10203000031737070313EF00690802390038031943
:1020400027280430EE0700300318013EEF070A127C
:102050008A1526250A168A1126117008CA007108E9
:10206000CB005B080317B90003135A080317B80025
:1020700003130A128A15C6220A168A115D0803176D
:10208000B90003135C080317B80003130A128A157A
:10209000C6220A168A1165080317BC0003130A1228
:1020A0008A15B1220A168A1164080317BC000313AB
:1020B0000A128A15B1220A168A1163080317BC0096
:1020C00003130A128A15B1220A168A11620803172D
:1020D000BC0003130A128A15B1220A168A1161087C
:1020E0000317BC0003130A128A15B1220A168A11BB
:1020F00060080317BC0003130A128A15B1220A16DE
:102100008A115F080317BC0003130A128A15B12253
:102110000A168A115E080317BC0003130A128A15F7
:10212000B1220A168A1169080239003803199A285F
:1021300060309B2850300317B8003808B9000313EB
:102140000A128A15D4220A168A1169080317B900DF
:1021500003130A128A15D4220A168A110B300317A8
:10216000B90003130A128A15D4220A168A11B8304C
:102170000317B90003130A128A15D4220A168A110A
:102180006C0828070317B80003136D080318013EF5
:1021900029070317B90014303807B60000300318B8
:1021A000013E3907B70003136908023900380319E3
:1021B00000290430C80704300317B607003003189D
:1021C000013EB7070230B90003130A128A15D42260
:1021D0000A168A1104300317B90003130A128A156C
:1021E000D4220A168A1105300317B900B430B8009A
:1021F00003130A128A15C6220A168A110830C80269
:1022000051080317BE0003130A128A1549220A1641
:102210008A1150080317BE0003130A128A154922B7
:102220000A168A114F080317BE0003130A128A15F3
:1022300049220A168A114E080317BE0003130A1218
:102240008A1549220A168A1159080317BE0003137A
:102250000A128A1549220A168A1158080317BE0065
:1022600003130A128A1549220A168A1157080317FE
:10227000BE0003130A128A1549220A168A1156084B
:102280000317BE0003130A128A1549220A168A117F
:102290000317BE0103130A128A1549220A168A116E
:1022A00006300317BE0003130A128A1549220A16C4
:1022B0008A1103173708B9003608B80003130A1249
:1022C0008A15DA250A168A114A080317B800B809D0
:1022D0003808B90003130A128A15D4220A168A1183
:1022E0004B080317B800B8093808B90003130A12DD
:1022F0008A15D4220A168A110317B901B8010313EB
:102300000A128A15C6220A168A116908023900388B
:1023100003198C290430C80748086C070317B60056
:1023200003136D080317B7000318B70A0030B9008C
:10233000A030B8003708BB003608BA0003130A12F1
:102340008A155E230A168A1148086C070317B6001F
:1023500003136D080317B7000318B70A03132808FF
:102360000317B607031329080318013E0317B7071D
:102370003708B9003608B80003130A128A15AD23CE
:102380000A168A11003403173A08BD003908BC0048
:102390000030BF001530BE0003130A128A15432710
:1023A0000A168A1178080317BB003B08BC000A30E4
:1023B000BD0003130A12D6270A1630307807031718
:1023C000BC003C08BD0003130A128A1535270A1603
:1023D0008A112E300317BD0003130A128A15352700
:1023E0000A168A1103173B08BC000A30BD0003130C
:1023F0000A12D6270A16303077070317BC003C08AC
:10240000BD0003130A128A1535270A168A110034F3
:10241000031732100313A901A80147300317B600B0
:1024200003130A128A1591220A168A11F808031951
:10243000A22C45300317B60003130A128A15912205
:102440000A168A11F8080319A22C54300317B60093
:1024500003130A128A1591220A168A11F808031921
:10246000A22C031732142030B60003130A128A1567
:1024700091220A168A112F300317B60003130A128D
:102480008A1591220A168A110C30F8001730840040
:1024900083178001840AF80B492A0317B10103133B
:1024A0000C3003173102031C572A0313992A031314
:1024B000A61D5F2A4C080317B3000313682A0A12EB
:1024C0008A1569220A168A1178080317B3000313C4
:1024D000A6110030A61C0130F800F8080319992A4B
:1024E0002130031733020318772A0313992A0313A1
:1024F0003F3003173302031D7F2A0313992A031366
:102500000730031731070313F70010307707F9007E
:102510000130FA0079080318FA0A840083137A1844
:10252000831703173308800003130317B10A03133B
:10253000502A0A128A1528260A168A11F808031941
:10254000D82A303003171D02031DA82A0313B12A0D
:102550000313313003171D020319B02A0313BC2AD9
:102560000313303003171D02031DB82A0313BB2ABF
:1025700003130511BC2A0515303003171E02031D75
:10258000C32A0313CC2A0313313003171E02031985
:10259000CB2A0313D72A0313303003171E02031D5F
:1025A000D32A0313D62A03138511D72A8515E02AC7
:1025B0000317970103130A128A1528260A168A118F
:1025C000CB014B08CA0026112830C800F308031DB0
:1025D000162B40300317BD003630BC0003130A121F
:1025E0008A1563200A168A110317B601031303170D
:1025F000360803130A1265200A160317B60ABD002F
:1026000003130A128A1535270A168A111F30031779
:10261000360203190D2B0313F72A11300313E900B7
:102620004A08F0004B08F1000020A22C8316071680
:102630006400871564008312071283160712640072
:102640008312871183168711A03083120317C500E8
:1026500003130A12B0230A1603171308B600B701B2
:102660003608C50003130A12B0230A16031712080E
:10267000C50003130A12B0230A16831607120000BE
:1026800087158312871D422B6400000000000000A4
:10269000831607166400071664008715640083120A
:1026A000071283160712640083128711831687119D
:1026B000A13083120317C50003130A12B0230A16B0
:1026C00040300317BD003630BC0003130A128A15D0
:1026D00063200A168A110317B60110081104031D9E
:1026E000732B03137F2C03130130F7000A128A1592
:1026F000E8250A168A1178080317B8001608013968
:102700000038031D852B03136E2C03134030031771
:10271000380203198D2B03136E2C03130130F700BD
:102720000A128A15E8250A168A1178080317B800D4
:1027300010080319910390033808B7003030B7022E
:10274000013037020319A62B0313C72B03132208EA
:102750000317BD00031321080317BC000030BF009E
:102760000B30BE0003130A128A1543270A168A117A
:10277000063078070317B9003908BA000C30BB00DF
:1027800003130A128A1580270A168A116D2C02304B
:10279000031737020319CE2B0313EF2B031324085F
:1027A0000317BD00031323080317BC000030BF004C
:1027B0000B30BE0003130A128A1543270A168A112A
:1027C000063078070317B9003908BA000C30BB008F
:1027D00003130A128A1580270A168A116D2C0330FA
:1027E000031737020319F62B0313012C03132208D6
:1027F0000317BA00031321080317B9000313C321F9
:102800006D2C0430031737020319082C0313132C03
:10281000031324080317BA00031323080317B9008E
:102820000313C3216D2C05300317370203191A2C2B
:1028300003132B2C0313051D1F2C3030202C31309B
:102840000317B9003908BD0003130A128A1535278A
:102850000A168A116D2C0630031737020319322C21
:102860000313432C0313851D372C3030382C3130A3
:102870000317B9003908BD0003130A128A1535275A
:102880000A168A116D2C07300317370203194A2CD8
:1028900003135B2C0313861E4F2C3030502C313029
:1028A0000317B9003908BD0003130A128A1535272A
:1028B0000A168A116D2C3F300317BD0003130A124C
:1028C0008A1535270A168A113F300317BD000313F6
:1028D0000A128A1535270A168A11772C0317380829
:1028E000BD0003130A128A1535270A168A11031729
:1028F00010080319910390030130B6000313031766
:1029000036080313F800F808031D6B2BF7010A12B1
:102910008A15E8250A168A11831607120000871502
:102920008312871D912C64000000000000008316B4
:102930000716640083121930E9004A08F0004B08BA
:10294000F100002000300317321801300313F800A3
:102950008A150A16A92C5F30A000213084000030AF
:102960008000840AA00BB02C5030F700A030840007
:1029700000308000840AF70BB92C83176F300317DF
:10298000900011308400003003138000840A031784
:10299000900BCB2CCD2C0313C52C60300313F70008
:1029A0009030840000308000840AF70BD32C83130E
:1029B000840183131F3083059F3084008313073005
:1029C0008000A0011F3083169900223098009030BB
:1029D00083129800AA010430AB00A330AC00AD0113
:1029E000AE01AF01F201F401F50185129F308400C0
:1029F00083138E3080001F08383981389F000030E3
:102A0000F8001F08C73978049F00813084008313C1
:102A1000801303306500353090000317B501361080
:102A2000B508031D152D0313232D031327082502B5
:102A300003173502031D1E2D0313232D031C222D06
:102A40000313282D03132508A700031736140313B7
:102A500000300317361801300313F8000A12DA2089
:102A60000A160A1240290A16A61626160317A501E9
:102A700003130317250803130A12BB200A160317B2
:102A8000A50AB10003130A1285210A160E30031796
:102A9000250203194D2D0313392D03130A12FA29A8
:102AA0000A16F8080319562D861A722D0317A50168
:102AB00003130317250803130A12CE200A1603175F
:102AC000A50AB10003130A1285210A16073003175D
:102AD000250203196D2D0313592D03130A12EA2B36
:102AE0000A164E2D0A12C9260A160A300317B1001B
:102AF00003130A1285210A1651080317A5000313B0
:102B00000A128A155B200A168A112E300317B100AB
:102B100003130A1285210A1650080317A500031390
:102B20000A128A155B200A168A112E300317B1008B
:102B300003130A1285210A164F080317A500031371
:102B40000A128A155B200A168A112E300317B1006B
:102B500003130A1285210A164E080317A500031352
:102B60000A128A155B200A168A110A1265220A16B1
:102B7000C701C6014708C5004608C400A6100A12CE
:102B80008A15A5280A168A11780879040319E02DF8
:102B900008304302031DD62D06304202031DD62DF8
:102BA0000A128A15EC2B0A168A11E02D083043020E
:102BB000031DE02DC208031DE02D8A1500288A118F
:102BC000B52D6300FF3FFF3FFF3FFF3FFF3FFF3F4C
:102BD000FF3FFF3FFF3FFF3FFF3FFF3FFF3FFF3F05
:102BE000FF3FFF3FFF3FFF3FFF3FFF3FFF3FFF3FF5
:102BF000FF3FFF3FFF3FFF3FFF3FFF3FFF3FFF3FE5
:102C0000FF3FFF3FFF3FFF3FFF3FFF3FFF3FFF3FD4
:103000000317A801291403132611CB014B08CA008A
:1030100045300317B60003130A1291220A16F80866
:103020000319FB2C0A1220250A16F8080319FB2C99
:103030000A1269220A1678080317AF0003130A124E
:1030400069220A1678080317B000B2012F08B100F0
:103050003108B200B1010313FA010317300803135A
:10306000F7007A08031732040313EF0077080317F9
:1030700031040313EE000030A61C0130F800F808FC
:103080000319FB2C0A12AA220A16F8080319FB2CB2
:103090000A12AA220A16F8080319FB2C0A12202584
:1030A0000A16F8080319FB2CA61D59284C08CD0058
:1030B0005E280A1269220A167808CD00A61100308F
:1030C000A61C0130F800F8080319FB2C0A12AA22EA
:1030D0000A16F8080319FB2C0A1269220A16780846
:1030E000D9000A1269220A167808D8000A12692241
:1030F0000A167808D7000A1269220A167808D6003C
:103100000030A61C0130F800F8080319FB2C510808
:103110000317B60003130A1291220A16F8080319BE
:10312000AF2850080317B60003130A1291220A169B
:10313000F8080319AF284F080317B60003130A1243
:1031400091220A16F8080319AF284E080317B60093
:1031500003130A1291220A16F808031DB128003041
:10316000B2280130F800F8080319FB2C4A0A031DA5
:10317000FB2C4B0A031DFB2C01304D02031DD829EB
:1031800003172A100313EB01EA0108300317B600F6
:1031900003130A1291220A16F8080319D1290317FA
:1031A000B60103130A1291220A16F8080319D1294D
:1031B0000A1269220A1678080317AF0003130A12CD
:1031C00069220A1678080317B000B2012F08B1006F
:1031D0003108B200B1010313FA01031730080313D9
:1031E000F7007A0803173204AC00031377080317BB
:1031F0003104AB0000300313A61C0130F800F808BE
:103200000319D1290A1220250A16F80803190C29D6
:10321000EA0A0319EB0A02294A0A031D12294B0A7A
:103220000319162903172A100313192903172A143F
:10323000031303172A181E290313D1290313EB08BC
:10324000031DD129D5306A020318D129CB014B08BF
:10325000CA000A1226250A160317B901B80103137A
:103260000A12C6220A1600300317AB0708300318EB
:10327000013EAC0708302C02031C402903134629E9
:1032800003130317AB0A0319AC0A031303172C0823
:10329000B9002B08B80003130A12C6220A16003020
:1032A0000317B900A030B800BB0103134808031787
:1032B000BA0003130A125E230A1648080317AD006A
:1032C0001830AE0003136A080317AF000730C000C0
:1032D0004030C10003130A128A11B5260A168A1556
:1032E0000E300317AD071230AE07031303172F0874
:1032F000AF030038031D7E290313BE2903130830D2
:103300000317C0002E08C10003130A128A11B52644
:103310000A168A1509300317C00003133108031772
:10332000C10003130A128A11B5260A168A150A1259
:1033300024220A1678080317B0000830C0002D08B0
:10334000C10003130A128A11B5260A168A1509301C
:103350000317C0004030C10003130A128A11B526BA
:103360000A168A1503173008BE0003130A12B72580
:103370000A160317AE0AAD0A0313762918306A0736
:103380000317AD0000300318013E03136B0703174A
:10339000AE002E08B9002D08B80003130A12AD23A1
:1033A0000A16003003172A1801300313F800FA2C0C
:1033B00006304D02031DF72C03172C100313CB010D
:1033C0004B08CA000A1269220A1678080317AF00D0
:1033D00003130A1269220A1678080317B000B20113
:1033E0002F08B1003108B200B1010313FA0103172D
:1033F00030080313F7007A08031732040313DD00C3
:103400007708031731040313DC000030A61C0130D9
:10341000F800F8080319F02C0A1269220A16780835
:103420000317AF0003130A1269220A16780803175C
:10343000B000B2012F08B1003108B200B10103138E
:10344000FA01031730080313F7007A080317320450
:103450000313DB007708031731040313DA0000308D
:10346000A61C0130F800F8080319F02C0A12692292
:103470000A167808E1000A1269220A167808E000A4
:103480000A1269220A167808DF000A1269220A164F
:103490007808DE000030A61C0130F800F808031997
:1034A000F02C0A1269220A167808E5000A1269222D
:1034B0000A167808E4000A1269220A167808E3005E
:1034C0000A1269220A167808E2000030A61C0130B0
:1034D000F800F8080319F02CA61D732A4C080317EE
:1034E000AA0003137A2A0A1269220A167808031717
:1034F000AA000313A6110030A61C0130F800F8083A
:103500000319F02CA61D872A4C08E8008C2A0A1201
:1035100069220A167808E800A6110030A61C0130BE
:10352000F800F8080319F02C0A12AA220A16F80863
:103530000319F02C0A12A1220A16F8080319F02C1C
:103540001430EE020030031CEF03EF026F08031784
:10355000B90003136E080317B80003130A12DA2523
:103560000A1651080317BE0003130A1249220A164D
:1035700050080317BE0003130A1249220A164F0807
:103580000317BE0003130A1249220A164E08031736
:10359000BE0003130A1249220A1659080317BE0077
:1035A00003130A1249220A1658080317BE00031310
:1035B0000A1249220A1657080317BE0003130A12FB
:1035C00049220A1656080317BE0003130A1249229D
:1035D0000A160317BE0103130A1249220A160630FF
:1035E0000317BE0003130A1249220A1603172A08FA
:1035F0000313F700F70CF70C3F30F7057708F700D7
:1036000014307707C600C7010318C70A6E080317EE
:10361000AF00031346080317AF0203136F08031725
:10362000B000031347080318182B0317B003031344
:103630000317B00214302F070313EA0000300318F9
:10364000013E031730070313EB0008300317BF00D8
:1036500003130A128A11A2260A168A15780803177C
:10366000B1000930BF0003130A128A11A2260A16FC
:103670008A150317B301031378080317B200320841
:103680000313FA00000103173107AF0003137A0890
:103690000317B0000318B00A2F080313F80003172C
:1036A00030080313F90079080317AE0003137808F4
:1036B0000317AD0003136E080317AF001430AF02F9
:1036C00003136F080317B0000030031CB003B002EF
:1036D0002830B1003008B3002F08B2000730C00016
:1036E0004030C10003130A128A11B5260A168A1542
:1036F0000A300317C0003208C10003130A128A11EE
:10370000B5260A168A1503173308B500B6010B3023
:10371000C0003508C10003130A128A11B5260A1623
:103720008A150317C0010A30C10003130A128A1157
:10373000B5260A168A15031733080313FA00031770
:1037400032080319B303B20303137A040319BB2B22
:1037500010300317BF0003130A128A11A2260A169B
:103760008A1578080317B4003408BE0003130A1240
:1037700049220A169B2B03172E08BD002D08BC00FA
:1037800003130A1263200A164A0A031DCA2B4B0AA6
:103790000319CE2B03172C100313D12B03172C1452
:1037A000031303172C18D62B0313EF2C0313031743
:1037B0002F140313A901A8012908ED002808EC0023
:1037C000F1017108F00026111030E9006808043991
:1037D00000380319EF2B03172F100313E62C68088A
:1037E000023900380319372C0317B3010130B20036
:1037F00032080313DE07031733080318013E0313CF
:10380000DF070317330803135F02031C132C03178E
:10381000330803135F02031D162C0317320803132A
:103820005E020318162CE00A0319E10ADB08031DE7
:103830001D2C0D305A020319242CDB08031D342CD7
:1038400050305A02031D342CFF30E300FF30E200F9
:103850006708FA006608E60A0319E70AE4007A082E
:10386000E5001230E900362C1430E900E62C680837
:103870000139003803196A2C01306A070317B000B8
:1038800000300318013E03136B070317B100310822
:10389000B3003008B20032080313DE070317330801
:1038A0000318013E0313DF070317330803135F02F6
:1038B000031C662C0317330803135F02031D692CD6
:1038C0000317320803135E020318692CE00A031978
:1038D000E10AE62C6808103900380319E62C6A085A
:1038E0006B040319992C6B080317B30003136A08C0
:1038F0000317B20032080313DE0703173308031857
:10390000013E0313DF070317330803135F02031C91
:10391000952C0317330803135F02031D982C03171C
:10392000320803135E020318982CE00A0319E10A17
:103930009C2C03172F100313DB08031DAE2C5030F3
:103940005A02031DAE2C6A086B040319AE2C8A11AF
:10395000082A8A1503172F100313E62CDB08031D12
:10396000E62C0D305A02031DE62CE308031DE62C5D
:10397000E208031DE62CCB014B08CA002830C80022
:103980000317B00103130317300803130A128A1137
:1039900050200A168A150317B00AB90003130A1239
:1039A000D4220A161030031730020319D92C03133E
:1039B000C32C0313ED011030EC004A08F0004B0853
:1039C000F1001130E90003172F14031303172F1808
:1039D000EB2C0313EF2C03138A1100208A15F02C13
:1039E000003003172C1801300313F800FA2C0A12C8
:1039F000E7230A16FE2C0A12E7230A1600300317E3
:0E3A0000291801300313F8008A110A16DF2D71
:02400E00723FFF
:0840000008000D000B000E008A
:00000001FF
