:1000000018308A00F92D00000A108A100A118207A0
:100010000A344E3449344334203469346E346934FC
:1000200074342034653472347234203400340A104D
:100030008A100A11820720344E3449344334203464
:100040005234783420346F347634653472347234F8
:1000500075346E34203400340A108A100A11820775
:1000600020344E3449344334203470346B34743487
:100070002034653472347234203400340A108A100B
:100080000A11820720344E3449344334203470340A
:100090007434723420346534723472342034003451
:1000A0000A108A100A1182074E346F3420346434E7
:1000B00061347934743469346D3465340D340A3400
:1000C00000340A108A100A11820748345434543418
:1000D00050342F34203432343034303420344F34E0
:1000E0004B340D340A340D340A344E346F3420341A
:1000F0005734653462342034703461346734653485
:10010000733421340D340A3400340A108A100A1171
:1001100082070D340A3453346534723469346134DF
:100120006C3420346E3475346D343F3420340034F4
:100130000A108A100A1182070D340A3449345034E7
:10014000203461346434643472343F3420340034F5
:100150000A108A100A1182070D340A3458346D349B
:100160006F34643465346D343F34203400340A1005
:100170008A100A11820720344E346F3474342034CC
:1001800075347034643461347434653464340D34DB
:100190000A3400340A108A100A11820750343134AC
:1001A0003634573465346234203420347634323473
:1001B0002E343034323400340A108A100A11820787
:1001C00043346F346E346634693467342034003419
:1001D00083165B08840083135C188317840A000865
:1001E000FA0084030008831227028316DF008312BB
:1001F00028088316E0007A08031C7A0FE0025D08E5
:100200005E04031D052983121829831283165E08D4
:10021000600203180D29831228298312031D18294F
:1002200083165D085F020318172983122829831299
:1002300083165B08840083135C188317840A831277
:10024000280880008403270880000130F8002B294B
:100250000030F8002B290034DE30840083130008BE
:10026000031941290630F800F701F70B3529F80B7F
:1002700034295E30F700F70B3B2900000000800BAB
:100280003229003485168316600883128800000026
:1002900000008512000000340030831688005D0ED7
:1002A000DE000F30DE055E08E00083124221831677
:1002B0005D080F39DE00E0008312422183165D08DD
:1002C000FC39003A0319662983126C298312023023
:1002D0008316DE0083122C210F30831688004130F4
:1002E000F7008312F70B7229003485120F30831642
:1002F0008800DE0083122C2128308316DD00831253
:100300004C2105308316DE0083122C212830831601
:10031000DD0083124C21A330F700F70B8D2900007C
:1003200028308316DD0083124C214130F700F70B93
:10033000972928308316DD0083124C210430831660
:10034000DD0083124C210E308316DD0083124C2118
:1003500001308316DD0083124C2180308316DD00CE
:1003600083124C218A150A167C2E003083168800D1
:100370005D0EF7000F30F70577081038DF00E0005A
:100380008312422183165D080F391038DF00E00028
:10039000831242210F30831688004130F700831208
:1003A000F70BD029003403173D0803138600031709
:1003B0003E080313880000308316880083128910DA
:1003C00000008914FF3083168800831200340E3039
:1003D0008316E0070318E10A4030E1070730831273
:1003E0000317BD004030BE000313D32108300317AC
:1003F000BD0083160313600883120317BE000313A6
:10040000D32183166108E200093083120317BD006F
:1004100083160313610883120317BE000313D3214D
:100420000130D5000034FF30831688006008831245
:100430008600091008088316E10083120914831648
:100440006108F8008312242A00348316DE01831227
:100450005A088316DF00DF080319302A8312322A74
:1004600083128B2A83165F080139DF070730831256
:100470000317BD004030BE000313D3210A30031719
:10048000BD00831603135F0883120317BE00031316
:10049000D3210B300317BD00BE010313D321031773
:1004A000BD011230BE000313D3211030860000308E
:1004B00083168800831283165F08DF03003A031D4A
:1004C000632A8312712A831283165E08DE0A903E25
:1004D00084008317000883128800891000008914A3
:1004E0005B2AFF3083168800DF0083128316DF0843
:1004F000031D7C2A83128B2A831207308316E000A7
:100500008312132278084039003A031D8B2A831680
:10051000DF038312762A0034DA080319A62AD508E5
:10052000031DA42A5A0858028316DE0083125908B4
:100530008316DF000030031C0130DF025F08E1009A
:100540005E08E0008312E7212522DA0157085902EC
:10055000031CB42A031DB02A580856020318B42AF3
:100560005908D7005808D60000343C1CC52A831609
:1005700068088312BE078316680883123E020318B8
:10058000C42ABD0FC42ABE0AD22A83166808831261
:10059000BD078316680883123D020318D22ABE0FD6
:1005A000D22ABD0A0130BC0600345908043C0318A5
:1005B000E32AFF3A031DE02A5808E93C0318E32A1E
:1005C0000030F800FB2A5A081F3C031C8C225A08F2
:1005D000DA0A903E8400831783165D088000831238
:1005E000D80A0319D90A83165D08E8008312B522D8
:1005F0000130F800FB2A00343C1D1F2B83165C08D9
:100600000D3C0319052B83120C2B831280308316AB
:10061000DD0083124C211F2B83165C080A3C031952
:10062000132B83121A2B8312C0308316DD00831222
:100630004C211F2B83165C08DD008312B521BC1DE5
:10064000332B83165C080A3C0319282B83122D2BAD
:1006500083120D300C1E2A2B990083165C0883121E
:100660000C1E302B99003C1E3A2B83165C08DD00D3
:100670008312D52200348316D201D101831283164E
:100680005108053C0318462B83125A2B83128316FC
:100690005108831203178D008F0183168C130C14DD
:1006A00083120C0883160313D20783128316D10A10
:1006B00083123F2B8316D2095208F8008312602B55
:1006C000003403178D018F0183168C130C148312D1
:1006D0000C080313C900013003178D008F01831626
:1006E0008C130C1483120C080313CA000230031776
:1006F0008D008F0183168C130C1483120C080313C6
:10070000AF00033003178D008F0183168C130C1478
:1007100083120C080313AE00043003178D008F0101
:1007200083168C130C1483120C080313AD000530D0
:1007300003178D008F0183168C130C1483120C0881
:100740000313AC00063003178D008F0183168C1342
:100750000C1483120C0883160313CF0083123B235F
:1007600083164F087802031DB72B8312BA2B83120E
:100770000030BB2B0130F800BD2B8A150A16B02EB5
:100780004D080317BA070318BB0A03134E080317D3
:10079000BB073B085E3C031CCF2B0313D42B031376
:1007A000E7300317BB07031307300317BD004030C2
:1007B000BE000313D32108300317BD003A08BE0062
:1007C0000313D32103173B08BC000930BD003B08CD
:1007D000BE000313D321D5010034D4015408D30043
:1007E000D2015308D1002B13BC120317BB01BA016D
:1007F0000313C02300348C1E0A2C1819042C9818DB
:10080000042C0130F8000D2C18121A088316DB0096
:10081000831218160030F8000D2C003483164E0891
:1008200083120F028316CD004D08773C031C1A2C4F
:100830008312252C8312A70A0319A80A783083167D
:10084000CE070130F8008312282C0030F800282C45
:10085000003464000E24F80803194E2CF701AB197C
:10086000F716060877062039031D3A2C2B12AB1D0C
:100870002B163C2C0830AB0627080139F700280856
:100880000039FA0077087A0403194E2CAB1C4A2C65
:10089000043085062B1D4E2C083085061F151F19A8
:1008A0004F2C83161E088312A3001E08A400843058
:1008B00083169F000830F80083121F08C739780498
:1008C0009F001030F700F70B632C1F151F19662CC3
:1008D00083161E088312A5001E08A6008E308316FC
:1008E0009F000030F80083121F08C73978049F006A
:1008F0008316DC012930DB00DE010A30DD008312C3
:10090000E820F8080319862C103085060034831679
:10091000D301DC01D430DB00DE01DD018312E820ED
:10092000FB23F808031DB52C831651085204031D40
:100930009B2C8312B32C83128316DC01D430DB0092
:100940005208DE005108DD008312E820F808031980
:10095000B32C10308316530784008317800153088B
:10096000F80083125C2D2924902C8C1ACA2C18199B
:10097000BB2C981CCA2C1819BF2C981CC82C1812F8
:100980001A088316D700831218160030F800CD2CF1
:100990006400B52C1A08F800CD2C78088316D60010
:1009A00056081F3C031CD62C8312DF2C831283169F
:1009B00056087F3C0319DE2C83122C2D83128316DC
:1009C00056081B3C0319E62C8312EC2C8312831669
:1009D000D30183124A2D2B2D831656080D3C031983
:1009E000F32C8312052D8312831651085204031D24
:1009F000FB2C8312032D83128316D308031D022DB3
:100A00008312042D83124A2D2B2D83165608083C81
:100A1000031D0C2D8312152D8312831656087F3C5F
:100A20000319142D83122B2D83128316D308031D53
:100A30001B2D83122B2D83128316D30308308312B0
:100A40000C1E202D990020300C1E242D99000830FA
:100A50000C1E282D9900492D83165308283C031895
:100A6000332D8312492D831283165308D30A103E67
:100A70008400831756088000510852040319422D40
:100A80008312492D83128316560883120C1E462D9D
:100A90009900902C1030831653078400831780012F
:100AA0008312D001831653088312CF00D30083161C
:100AB0005308F80083125C2D00340317BA08031999
:100AC000632D0313652D0313982D07300317BD0005
:100AD0004030BE000313D3210A300317BD003A088B
:100AE000BE000313D3210B300317BD00BE01031357
:100AF000D3210317BD010A30BE000313D3211030E8
:100B00008600FF3083168800831203173A08BA0361
:100B1000003A031D8D2D0313982D0313091053085C
:100B2000D30A103E84008317080880000914852D1D
:100B30000034540883166802031CA02D8312D22DA2
:100B4000831283166808EA008312530854020318BC
:100B5000CA2D83166A08EA0A103EF8000130FA002E
:100B60000318FA0A780883120317BB007A08BC003E
:100B700003135408D40A103E840083170008031797
:100B8000BE003B08840083133C1883173E08800096
:100B90000313A52D83166A088312D30083166808F1
:100BA0008312D40051084F028316EC0083125008C0
:100BB0008316ED0083125208031C520FE02DE32D23
:100BC0008316ED0283128316ED080319E92D8312B3
:100BD000F82D8312831669086C02031CF12D831211
:100BE000F82D831283166D08FA006C088312FB2D12
:100BF0008316690883128316E900831253082A3C7E
:100C000083166902031D062E83120E2E03180A2E68
:100C100083120E2E831253082A3C112E8316690864
:100C200083128316E900EB00EB08031D192E8312D3
:100C30002D2E8312D5080319262E52080317BB0048
:100C4000031351080317BA000313C023831669085E
:100C500083120317BA0003135D2583166908F80091
:100C60008312322E003453085402031C3E2E0A30E5
:100C70008316E8002A30E9008312992553085402AC
:100C8000031C452E0030F800642E5408D40A103E90
:100C90008400831700088316E7008312D10A031922
:100CA000D20ABC1A582E83166708E8008312B522B0
:100CB000831665088400831366188317670880000D
:100CC0000130F8008312642E00341030F700FA016E
:100CD0008316E50183128316E20CE10C0318722ED1
:100CE0008312792E6308FA070318E50A6408E507FA
:100CF00083128316E50CFA0CF90CF80CF70B812E15
:100D0000832E83126B2E831200348316DD01DE01E5
:100D1000E00183128316E601DF30E50083123326FB
:100D2000F8080319DE2E83165F082F3C031C9A2E49
:100D30008312BE2E831283165F08393C0318A22E3D
:100D40008312BE2E83128316E00A3030DF025E0863
:100D5000E2005D08E100E4010A30E3008312652649
:100D600079088316E2007808E1005F086107DD007A
:100D70006208DE000318DE0A8312DD2E83165F0888
:100D8000E1008312D4080319D92E51085204031923
:100D9000D92ED403103054078400831783166108BA
:100DA0008000831251080319D203D1030130F800E7
:100DB000DC2E0030F800DC2EDE2E8A2E83165B0837
:100DC000840083135C188317840A5E088000840300
:100DD0005D088000E0080319EF2E8312F22E8312C3
:100DE0000030F32E0130F800F52E00348316E601B2
:100DF000E030E50083123326F80803190A2F831622
:100E000060085F020319062F83120A2F8312013034
:100E1000F8000D2F0030F8000D2F00348316DC0190
:100E2000D330DB0083128526F8080319802F2E307B
:100E30008316DF008312F626F8080319802F831625
:100E4000DC01D530DB0083128526F8080319802FDA
:100E50002E308316DF008312F626F8080319802F40
:100E60008316DC01D730DB0083128526F8080319CE
:100E7000802F2E308316DF008312F626F808031920
:100E8000802F8316DC01D930DB0083128526F80819
:100E90000319802F83165108840083135218831777
:100EA0005908800001305107F8005208FA00031871
:100EB000FA0A7808840083137A1883175708800089
:100EC00002305107F8005208FA000318FA0A7808AD
:100ED000840083137A188317550880000330510764
:100EE000F8005208FA000318FA0A780884008313FD
:100EF0007A188317530880000130F8008312832F7B
:100F00000030F800832F8A150A125F288C1E862F66
:100F10001808A2001A08F800A21C902F1812181620
:100F200000008A150A12C7290830F8000000640082
:100F30008711831687116400EA0D83120712031CC0
:100F4000A42F8316071683120318A92F83160712DE
:100F50008312831687158312871DAC2FF80B962FEB
:100F6000640087118316871100000716640064006F
:100F700087158312871DBA2FF8016400071A7814A9
:100F800087118316871183120712831607128312A3
:100F90000034831653085E3C031CD02F8312D62FD7
:100FA0008312E7308316D3078312E22F8316530888
:100FB000453C0318DD2F8312E22F8312193083166C
:100FC000D307831283165308F8008312E72F0034E7
:100FD00083165708D800DD008312D52283165608E1
:080FE000DD008312D52200346C
:101000008316D10183128316510883128A11852019
:101010008A158316D10A83120C1E0C2899000E30F3
:1010200083165102031916288312032883128A118A
:10103000ED238A158316D201D10183128A118724E8
:101040008A15F808031937288316DC01CF30DB0036
:1010500083128A1185268A15F80803193728831602
:1010600050088312C90083164F088312CA008316E2
:10107000D10183128316510883128A1198208A1590
:101080008316D10A83120C1E432899000B30831655
:10109000510203194D2883123A2883128A11ED2335
:1010A0008A158316D201D10183128A1187248A15E9
:1010B0008316D2012C30D10083128A110E2F8A158B
:1010C000F8080319A32A03178D018F010313490898
:1010D00003178C0083168C130C15831203130B0853
:1010E000F7008B135530831603178D00AA308D003F
:1010F0008C1483120313831603178C1C822883120B
:1011000003137B280C117708831203138B0401301F
:1011100003178D008F0103134A0803178C008316F1
:101120008C130C15831203130B08F7008B13553027
:10113000831603178D00AA308D008C1483120313BD
:10114000831603178C1CA72883120313A0280C11E5
:101150007708831203138B04023003178D008F016D
:1011600003132F0803178C0083168C130C1583129E
:1011700003130B08F7008B135530831603178D00EC
:10118000AA308D008C1483120313831603178C1C52
:10119000CC2883120313C5280C117708831203137C
:1011A0008B04033003178D008F0103132E080317E0
:1011B0008C0083168C130C15831203130B08F70095
:1011C0008B135530831603178D00AA308D008C14B5
:1011D00083120313831603178C1CF1288312031345
:1011E000EA280C117708831203138B0404300317C9
:1011F0008D008F0103132D0803178C0083168C13A9
:101200000C15831203130B08F7008B13553083164C
:1012100003178D00AA308D008C14831203138316DC
:1012200003178C1C1629831203130F290C1177083E
:10123000831203138B04053003178D008F010313F2
:101240002C0803178C0083168C130C1583120313C0
:101250000B08F7008B135530831603178D00AA3047
:101260008D008C1483120313831603178C1C3B29E7
:101270008312031334290C117708831203138B0490
:101280008A113B238A1578088316D1000630831211
:1012900003178D008F018316031351088312031760
:1012A0008C0083168C130C15831203130B08F700A4
:1012B0008B135530831603178D00AA308D008C14C4
:1012C00083120313831603178C1C692983120313DB
:1012D00062290C117708831203138B048316D10142
:1012E00083128316510883128A11A8208A15831647
:1012F000D10A83120C1E7A2999000A3083165102F2
:10130000031984298312712983128316D201D7010C
:10131000D801D901DA01DC012930DB00DE01DD0171
:1013200083128A11E8208A158A11FB238A15F8088E
:10133000031DC52964008A110E248A158316DC0159
:101340002930DB00DE010A30DD0083128A11E8203B
:101350008A15F8080319C429103085060515831667
:10136000D7080319B5298312C12983128316D20124
:10137000DA015A08D900D800153083120C1EBE2994
:1013800099008316D701831294298A11862F8A1512
:1013900078088316D1000130D700D8080319D22964
:1013A0008312ED2983128316510BD729D929831271
:1013B000DF29831201308316D8008312EC298316AB
:1013C0005108043C0319E6298312EC2983120630E4
:1013D0000C1EE8299900A22AA12A8316D90803190C
:1013E000F3298312FB29831283165108D40001309C
:1013F000D9008312A12A8316DA080319012A83125D
:10140000112A831283165108FF3A540203190A2A3B
:101410008312102A831201308316DA00D403831258
:10142000A12A831652087F3C0318182A83128A2A9D
:101430008312831652081F39D300D20A9030530703
:10144000840083175108800053081F3C03192A2A7F
:101450008312892A83128316071664008715640095
:1014600083120712831607126400831287118316F2
:101470008711A030EA0083128A1194278A1503107D
:101480008316540CDB00EA0083128A1194278A1514
:10149000203083165202D60054080139003A031D49
:1014A000532A8312582A831280308316D607831258
:1014B00083165608EA0083128A1194278A15831628
:1014C000D5018312831655081F3C0318692A83121D
:1014D0007A2A8312903083165507840083170008F8
:1014E000DB00EA0083128A1194278A158316D50A35
:1014F0008312622A83160712000087158312871D44
:101500007F2A6400000000000000831607166400B4
:101510008312A12A06300C1E8B2A99008316DC0147
:101520002930DB00DE01DD0183128A11E8208A15F3
:10153000103085068316D201DA015A08D900D80086
:1015400083129429BA2A8316D10183128316510873
:1015500083128A11B7208A158316D10A83120C1EB2
:10156000AF2A99000E30831651020319B92A83124B
:10157000A62A83120130F800BD2A8A150A16D52E34
:10158000FF30831688008312860183168113203072
:101590008600831209148914091500308316890006
:1015A000831202308316DE0083128A112C218A15E1
:1015B000091102308316DE0083128A112C218A154C
:1015C0001F308316E00083128A1113228A157808CF
:1015D0008316D3001F3083120317BD008316031335
:1015E000530883120317BE0003138A11D3218A15EF
:1015F00002308316DE0083128A112C218A150730EF
:101600008316E00083128A1113228A157808803924
:10161000003A031D252B8316D3018312831653082A
:1016200083128A1104208A158316D30A83120C1E92
:10163000172B99000E30831653020319212B8312A6
:101640000E2B0030F80083121E2C0317BD01213031
:10165000BE0003138A11D3218A1502308316DE00DF
:1016600083128A112C218A150E300317BD004830D1
:10167000BE0003138A11D3218A150A300317BD0057
:10168000BE0103138A11D3218A150B300317BD0045
:10169000BE0103138A11D3218A150C300317BD0034
:1016A0002030BE0003138A11D3218A150D30031791
:1016B000BD000230BE0003138A11D3218A15043005
:1016C0000317BD004030BE0003138A11D3218A15D1
:1016D00001300317BD004630BE0003138A11D32129
:1016E0008A1502300317BD005F30BE0003138A1154
:1016F000D3218A1503300317BD005E30BE000313EB
:101700008A11D3218A1507300317BD00FF30BE00B0
:1017100003138A11D3218A150F300317BD00BE01B0
:1017200003138A11D3218A150317BD016130BE004E
:1017300003138A11D3218A1502308316DE00831227
:101740008A112C218A158316D2018312831652081E
:10175000053C0318AD2B8312CA2B8312013083166C
:101760005207D30045305207840083130008D40089
:10177000530883120317BD00831603135408831202
:101780000317BE0003138A11D3218A158316D20AC8
:101790008312A62B8316D201831283165208073CAC
:1017A0000318D42B8312E62B8312083083165207BA
:1017B000D30083120317BD00FF30BE0003138A114C
:1017C000D3218A158316D20A8312CD2B0730031733
:1017D000BD004730BE0003138A11D3218A1547305C
:1017E000CB000317BD012030BE0003138A11D321A3
:1017F0008A150C300317BD000430BE0003138A1194
:10180000D3218A150D300317BD00BE0103138A11C1
:10181000D3218A1507300317BD00FF30BE00031324
:101820008A11D3218A150317BD012230BE0003138C
:101830008A11D3218A150130F8001E2C003483163A
:101840005008D6004F08D500550884008313561859
:101850008317540880005008D6004F08D500013087
:101860005507F8005608FA000318FA0A78088400A9
:1018700083137A188317530880005008D6004F0846
:10188000D50002305507F8005608FA000318FA0A86
:101890007808840083137A18831752088000500850
:1018A000D6004F08D50003305507F8005608FA0057
:1018B0000318FA0A7808840083137A1883175108EA
:1018C000800083120034F801F901F701FA01831650
:1018D0005E0803196D2C8312732C5D08031D722C96
:1018E00083129A2C831210308316DF0083120310A8
:1018F0008316DB0DDC0DF70DFA0D5E087A02031975
:10190000832C8312862C5D0877028312031C912C92
:1019100083165D08F702031CFA035E08FA0203143B
:101920008312F80DF90D8316DF0B972C992C831277
:10193000772C8312000000348316D20183128316A1
:101940005208D20AD33E840083135008DC004F08AB
:10195000DB00DE010A30DD00831263247708303EAD
:10196000800083165008DC004F08DB00DE010A30DF
:10197000DD008312632479088316D0007808CF0035
:10198000831283164F0850040319C82C83129F2C0E
:10199000831283165208D10083128316D208031DC6
:1019A000D32C8312E22C83128316D203D330520736
:1019B000840083130008D800DC0083128A11FC2203
:1019C0008A15CD2C83165108F8008312E72C0034B9
:1019D000BC153C153C120A308316DC0083128A11B8
:1019E000FC228A1502308316CF00831283164F081B
:1019F000013C031CFD2C8312002D83124030012D6D
:101A000000308316D00080305007D200DD008312F2
:101A10008A114C218A158316D1018312831651082D
:101A20000F3C0318152D8312212D831220308316AD
:101A3000DD0083128A11B5218A158316D10A83121B
:101A40000E2D803083165007D200DD0083128A11DC
:101A50004C218A158316D00183122F088316CF00DC
:101A600083129C242E308316DC0083128A11FC2200
:101A70008A158316D00183122E088316CF00831295
:101A80009C242E308316DC0083128A11FC228A15D6
:101A90008316D00183122D088316CF0083129C2455
:101AA0002E308316DC0083128A11FC228A158316DD
:101AB000D00183122C088316CF0083129C248A1530
:101AC0000A16F92E8316D701D801831283165808F7
:101AD000550203186D2D83129F2D8312031D782D3F
:101AE000831654085702031C772D83129F2D8312EF
:101AF0008316E601D630E50083128A1133268A1553
:101B0000F80803199F2D831652085304031D8A2DCC
:101B10008312992D831283165308FA005208D20AB1
:101B20000319D30A840083137A1883175608800098
:101B300083128316D70A0319D80A8312662D8316D7
:101B40005708F8005808F9008312A62D0034D00178
:101B5000CF0107308316E00083128A1113228A1501
:101B600078081039003A0319CD2D8316D20183125B
:101B70008316520883128A1117208A158316D20AF7
:101B800083120C1EC12D99001030831652020319C6
:101B9000CB2D8312B82D8312C0220317BD016030F4
:101BA000BE0003138A11D3218A1507308316E00083
:101BB00083128A1113228A158316D0017808CF0068
:101BC00083120317BD012030BE0003138A11D321F5
:101BD0008A154B0883164F020319F02D8312F82D36
:101BE00083128316D008031DF72D8312BA2E831299
:101BF0004B08CC008316D30183124B088316D20006
:101C00008312CE00CD018A11ED238A1512300317FD
:101C1000BA0003138A115D258A158316D3015B3040
:101C2000D200D5011230D400831262251230CD07C4
:101C30000318CE0A8A11ED238A155E08D0005D08CC
:101C4000CF005B080139003A0319582ED008031D54
:101C50002D2E4F083F3C0318582E5008053C031CFE
:101C6000582E031D372E4F08EE3C031C582E123001
:101C7000CF020030031C0130D0026C088316D30061
:101C800083126B088316D20083128316D7010030AB
:101C90005304D40052085704D5005408F8005508DE
:101CA000F9008312532E7908EC007808EB00712EAE
:101CB000D001CF018316D2018312831652088312FA
:101CC0008A112C208A158316D20A83120C1E662EC6
:101CD00099000D30831652020319702E83125D2E67
:101CE00083125C08453C03187C2E5C085E3C031C98
:101CF0007C2E5C08CB00A02ED001CF018316D20130
:101D000083128316520883128A113E208A15831685
:101D1000D20A83120C1E8A2E99000D3083165202AD
:101D20000319942E8312812E013083124B078316E0
:101D3000D200D30083128A11C9278A157808CB00F4
:101D400001304B028316D200D30083128A11C927B7
:101D50008A1578088316D100033083120317BD005B
:101D600083160313510883120317BE0003138A114D
:101D7000D3218A15CF08031DC22ED008031DC22E01
:101D80000030C32E0130F800C52E8A150A16092F1F
:101D9000DA01D7015A08D6005708D9005608D800EA
:101DA000BE013E08BD00BD08031DD82E3C10D92E33
:101DB0003C148316E101E00183128A11E7218A15A0
:101DC00000348316E601D730E50083128A113326EA
:101DD0008A15F8080319102F8316E601D830E5009C
:101DE00083128A1133268A15F8080319102F8316D7
:101DF000DC01DD01FA0158085D04D9007A085704B6
:101E0000DA0055088400831356188317840A5A0889
:101E100080008403590880000130F8008312132FDA
:101E20000030F800132F003404308316D600550814
:101E3000D9005408D80003305407F8005508FA00B8
:101E40000318FA0A7808DA007A08DB00E6005A0874
:101E5000E50083128A1133268A15F80803197B2FAF
:101E600083165508DC005408DB0002305407F800E4
:101E70005508FA000318FA0A7808DD007A08DE002F
:101E8000E6005D08E50083128A1133268A15F808FA
:101E900003197B2F83165508DF005408DE0001303C
:101EA0005407F8005508FA000318FA0A7808E00009
:101EB0007A08E100E6006008E50083128A11332603
:101EC0008A15F80803197B2F83165508E200540879
:101ED000E1005508E4005408E3005508E600540802
:101EE000E50083128A1133268A15F80803197B2F1F
:101EF0000130F8007E2F0030F8007E2F003483166A
:101F000055085604031D862F8312992F83128316BA
:101F1000E601D730E50083128A1133268A15F808C6
:101F20000319992F831655080319D603D503831275
:101F30007F2F8316D50803199F2F8312AA2F831290
:101F40008316D6080319A62F8312AA2F83120130F5
:101F5000F800AD2F0030F800AD2F003483165A087A
:101F6000FA0059080319DA03D9037A04031DBA2FBA
:101F70008312CE2F831283165808FA005708D70A07
:101F80000319D80A840083137A1883170008DB002A
:101F9000DD0083128A11D5228A15AE2F00348316F4
:101FA000E601CF30E50083128A1133268A15F8083E
:101FB0000319DD2F0130F800E02F0030F800E02F8A
:101FC000003483165908DA00DB015A08E80083124E
:101FD0008A11B5228A1583165808E80083128A11DF
:061FE000B5228A15003451
:1020000083165708D9005608D80003305807F8003F
:102010005908FA000318FA0A7808840083137A181A
:1020200083170008DA00DD0083120A12D5220A168F
:1020300083165708D9005608D80002305807F80010
:102040005908FA000318FA0A7808840083137A18EA
:1020500083170008DA00DD0083120A12D5220A165F
:1020600083165708D9005608D80001305807F800E1
:102070005908FA000318FA0A7808840083137A18BA
:1020800083170008DA00DD0083120A12D5220A162F
:1020900083165708D9005608D8005908FA0058087E
:1020A00084008313591883170008DA00DD008312B7
:1020B0000A12D5220A16003457088316D600831256
:1020C00056088316D50083120A128C220A16FF3096
:1020D0008316E100F230E00083120A12E7210A16AB
:1020E000DA018316D8016530D700DA010630D9004D
:1020F00083120A128A15AE270A168A118316D8018E
:102100004530D700DA010630D90083120A128A1549
:10211000AE270A168A116C088316D700DD008312D9
:102120000A12D5220A166B088316DD0083120A12E2
:10213000D5220A160E308316D5070318D60A831245
:102140000A1225220A168316D6080319A928831213
:10215000B7288312831655083B3C0318B128831215
:10216000B72883128316D6013C30D5008312053080
:102170000317BD0083160313550883120317BE000F
:1021800003130A12D3210A1683165608D700063005
:1021900083120317BD008316031356088312031717
:1021A000BE0003130A12D3210A160317BD012430FF
:1021B000BE0003130A12D3210A1600348316DF016E
:1021C00083120A12F6260A16F8080319812A01302A
:1021D0008316DF0083120A12F6260A16F80803197E
:1021E000812A08308316DF0083120A12F6260A16A7
:1021F000F8080319812A8316DF0183120A12F626D2
:102200000A16F8080319812A06308316DF008312A4
:102210000A12F6260A16F8080319812A04308316D2
:10222000DF0083120A12F6260A16F8080319812A1B
:102230008316D601CF30D50083120A128A15E12603
:102240000A168A11F8080319812A8316D301A230CD
:10225000D200D5010630D40083120A128A156225F5
:102260000A168A11780879040319812A8316D50180
:102270007230D40083120A128A1514270A168A11A2
:10228000F8080319812A8316D6010630D500831277
:102290000A128A157F270A168A11F8080319812A5B
:1022A0008316D2012C30D100831283165208D40039
:1022B0005108D30003305107F8005208FA00031800
:1022C000FA0A7808840083137A1883170008D50067
:1022D000DF0083120A12F6260A16F8080319BF292E
:1022E00083165208D7005108D60002305107F80073
:1022F0005208FA000318FA0A7808840083137A183F
:1023000083170008D800DF0083120A12F6260A1687
:10231000F8080319BF2983165208DA005108D900BA
:1023200001305107F8005208FA000318FA0A780839
:10233000840083137A1883170008DB00DF00831200
:102340000A12F6260A16F8080319BF29831652083E
:10235000DD005108DC005208FA00510884008313A4
:10236000521883170008DE00DF0083120A12F626D7
:102370000A16F8080319BF290130F800C2290030F5
:10238000F800C229F8080319812A83164F0BC929BE
:10239000CB298312492A83128316D0080319D22924
:1023A0008312492A831202308316D10083128316C6
:1023B000D40183120A128A15C8260A168A118316B6
:1023C000510BE329E5298312F02983120630F80026
:1023D000653084008313FF308000840AF80BEB29FA
:1023E0008316D7010130D60083120A12E8270A1695
:1023F00008308316D700D60183120A12E8270A167E
:1024000006308316DD0083120A12D5220A16043024
:102410008316DD0083120A12D5220A168316D30111
:102420005108D2005308D7005108D60083120A126F
:10243000E8270A168316D8014530D700DA0106309E
:10244000D90083120A128A15AE270A168A1183163A
:10245000D7012C30D600831200208316D8016530B6
:10246000D700DA010630D90083120A128A15AE2786
:102470000A168A118316D7017230D6008312002003
:102480000830EC000630EB005C200130F800842AB4
:10249000812A83164F08023C0319502A8312812A8D
:1024A00083128316D0080319572A8312812A8312B4
:1024B00038087202031D802A39087302031D802A1E
:1024C0003A087402031D802A3B087502031D802A06
:1024D000831622088312BF00831623088312C000CC
:1024E000831624088312C100831625088312C200B4
:1024F000831626088312C300831627088312C4009C
:102500002B170030F800842A8A150A161D2F3C105C
:10251000BC12BE013E08BD0045308316DF008312A9
:102520000A12F6260A16F80803197B2B0A128A15D6
:10253000CF270A168A11F80803197B2B8316D601B8
:10254000A830D50083120A128A15E1260A168A11CC
:10255000F80803197B2B8316D6010230D5008312AD
:102560000A128A157F270A168A11F80803197B2B8D
:102570008316D6010230D50083120A128A157F27EE
:102580000A168A11F80803197B2B0A128A15CF271D
:102590000A168A11F80803197B2B8316E6016D30A1
:1025A000E50083120A1233260A16F80803197B2B5A
:1025B0008316D6010230D50083120A128A157F27AE
:1025C0000A168A11F80803197B2B8316D50172307D
:1025D000D40083120A128A1514270A168A11F808E1
:1025E00003197B2B8316D5016E30D40083120A1297
:1025F0008A1514270A168A11F80803197B2B2C0850
:102600006E02031D0F2B2D086F02031D0F2B2E08CA
:102610007002031D0F2B2F0871020319172B6E0F69
:102620007B2B6F0F7B2B700F7B2B710F7B2B3D0F49
:102630007B2B3E0F7B2B8316A9080319212B8312BA
:102640002A2B831283162808143C031C292B83127F
:102650007B2B8312143083162802CF002908D00068
:102660000030031C0130D0025008D2004F08D100C6
:10267000831283165108831251078316D3008312E5
:1026800052088316D4000318D40A5208D4075408F9
:1026900083125002031C5E2B031D562B4F0883161A
:1026A0005302031C552B83125E2B8312831654088E
:1026B0008312D000831653088312CF005408831668
:1026C0005107D3005208D4000318D40AD4080319C0
:1026D0006B2B8312782B8312530883165302031C2F
:1026E000732B8312782B8312831653088312D30023
:1026F0000130F8007E2B0030F8007E2B8A150A1678
:10270000272F5008831656020318882B8312942B08
:102710008312031D912B8316550883124F02031851
:10272000942B0030F800B12B831656088312031740
:10273000BB0083160313550883120317BA00031353
:102740000A12C0230A16831656088312D200831673
:1027500055088312D100D4015408D3000130F80089
:10276000B12B003483165708D9005608D80003301F
:102770005607F8005708FA000318FA0A7808840088
:1027800083137A1883170008DA00E80083120A120C
:10279000B5220A1683165708D9005608D800023009
:1027A0005607F8005708FA000318FA0A7808840058
:1027B00083137A1883170008DA00E80083120A12DC
:1027C000B5220A1683165708D9005608D8000130DA
:1027D0005607F8005708FA000318FA0A7808840028
:1027E00083137A1883170008DA00E80083120A12AC
:1027F000B5220A1683165708D9005608D80057087C
:10280000FA00560884008313571883170008DA006B
:10281000E80083120A12B5220A160034BE013E08EF
:10282000BD003C1045308316DD0083120A12D5220C
:102830000A168316DD0183120A12D5220A168316A0
:102840002908D7002808D60083120A12E8270A169A
:102850008316DD0183120A12D5220A168316AA0AEC
:102860002A08DD0083120A12D5220A168316D70120
:10287000D60183120A12E8270A1664308316DD0097
:1028800083120A12D5220A166D088316DD00831200
:102890000A12D5220A168316D7012C30D6008312CD
:1028A000B2238316D7017230D6008312B2233D08BB
:1028B0008316D500D5095508DD0083120A12D522EA
:1028C0000A163E088316D500D5095508DD00831287
:1028D0000A12D5220A168316D7012C30D60083128D
:1028E00000208316D7017230D600831200200034F6
:1028F0003C10BE013E08BD00143083162802D500EE
:102900002908D6000030031C0130D60204305502DD
:10291000D3005608D4000030031C0130D4028312C7
:102920002C086E02031D882D2D086F02031D882DB3
:102930002E087002031D882D2F087102031D882D9B
:1029400008308316DF0083120A12F6260A16F808EA
:102950000319882D8316DF0183120A12F6260A1640
:10296000F8080319882D8316D601CF30D5008312BD
:102970000A128A15E1260A168A11F8080319882D09
:1029800052088316D200831251088316D1005408CE
:10299000D6005308D50083120A128A157F270A161B
:1029A0008A1183165208D6005108D500831281235C
:1029B0003D0F882D3E0F882D0E248316D701D6019A
:1029C00083120A12E8270A1608308316D007500827
:1029D000073C0318ED2C8312F32C83128316CF0AC5
:1029E0000319D00A831283165008D7004F08D60067
:1029F00083120A12E8270A1683165408D6005308D1
:102A0000D50083128316D801D901DA0183120A1284
:102A10008C220A168316E8012A30E90083120A1272
:102A200099250A16F808031D182DD3080319692DD6
:102A300053088316D7005907DB005A08DC00031837
:102A4000DC0A56085C020318272D8312412D8312DD
:102A5000031D322D831655085B020318312D831296
:102A6000412D831201308316D80059085502F70012
:102A70005608FA005A08031C5A0FFA027708D700C2
:102A80008312D40183165708831254020318562D5B
:102A9000103054078400831700088316DB00DD0024
:102AA00083120A12D5220A16D40A422D8316570819
:102AB0008312D1070318D20A83165708D9070318BF
:102AC000DA0AD808031D662D8312682D8312692D3A
:102AD0000A2D57085902031C772D031D732D580822
:102AE00056020318772D5908FA0058087A2D57080E
:102AF000FA005608D6007A08D70083165908F8005D
:102B00005A08F9008312842D5C200130F8008B2DC7
:102B10000030F8008B2D8A150A162F2F83165708C0
:102B2000043C031C952D8312A42D8312FF3A031D30
:102B3000A12D83165608DC3C031CA02D8312A42D66
:102B400083120030F800BD2D0A128C220A1683165B
:102B500057088312D900831656088312D8005908E3
:102B60008316E100831258088316E00083120A12CC
:102B7000E7210A160130F800BD2D003483165608EF
:102B8000840083135718831758080007840AF80035
:102B90000008FA000318FA0A5908FA0784037808AB
:102BA0008000840A7A08800084035708DB005608F6
:102BB000DA005708FA005608840083135718831761
:102BC000840A0008DD0084030008DC005D08590267
:102BD0000318EC2D8312182E8312031DF72D831674
:102BE00058085C02031CF62D8312182E83128316DC
:102BF0005708DB005608DA0002305607F80057087D
:102C0000FA000318FA0A7808840083137A188317E5
:102C1000840A00088403FA000008F70001308007E6
:102C20000318142E8312172E840A800A8312770841
:102C3000003408308316EE007708EF008312831605
:102C40000716640087158312871D242E071A0314A4
:102C5000071E0310F80D6400831687118312871175
:102C60008316EE0B342E362E83121F2E07166400A9
:102C70008312071283166F08031D071283120000C8
:102C8000831687158312871D432E640087118316D0
:102C9000871164008312071283160712831200340F
:102CA00001308316DB00CC01071664008715640031
:102CB000831207128316071264008312871183168A
:102CC0008711A030EA0083120A1294270A1683168D
:102CD000EA0183120A1294270A168316EA01831264
:102CE0000A1294270A16831607120000871583120A
:102CF000871D782E64000000000000008316071670
:102D0000640083128316071664008715640083121B
:102D10000712831607126400831287118316871126
:102D2000A130EA0083120A1294270A168316DC01E6
:102D3000831283165C08063C0318A02E8312B02E63
:102D40008312B93083165C07840083130130F700C7
:102D500083121926780880008316DC0A8312992EC4
:102D60008316390FB42EB62E8312C22E8312831609
:102D70003A0FBB2EBD2E8312C22E8312F7011926E5
:102D8000232F042F8316DB01DC01831283165C08DA
:102D90000B3C0318CD2E8312FA2E8312DE308316DD
:102DA0005C07840083135C080A3C031CD92E831241
:102DB000DC2E83120030DD2E01308316EC00F7008C
:102DC0008312192678088316DD00800007305C071F
:102DD000B93E8400831300085D02031DF12E8312A7
:102DE000F62E831201308316DB0083128316DC0A71
:102DF0008312C62E8316C0080319002F8312042FD6
:102E000083128316DB0183128316071200008715D5
:102E10008312871D092F6400000000000000831644
:102E200007166400CC0A831283164C08633C03180F
:102E30001B2F8312232F83128316DB080319222FE3
:102E40008312822E83128316DB08031D292F83121F
:102E50002E2F83128316BA01B90183128316DB0861
:102E6000031D342F8312372F83120030382F013087
:062E7000F8003A2F0034C7
:10300000BE013E08BD00BD08031D08283C1009286C
:103010003C14BC1647308316DF0083120A128A1153
:10302000F6260A168A15F8080319D02A45308316A1
:10303000DF0083120A128A11F6260A168A15F8088A
:103040000319D02A54308316DF0083120A128A1122
:10305000F6260A168A15F8080319D02A2030831696
:10306000DF0083120A128A11F6260A168A152F30FB
:103070008316DF0083120A128A11F6260A168A15B1
:103080008316D4018312831654080B3C03184A2874
:103090008312752883128316E601D730E500831268
:1030A0000A128A1133260A168A15F8080319752898
:1030B00083165708203C031C5F288312752883124F
:1030C000831657083F3C031D672883127528831217
:1030D000073083165407B93E8400831357088000D5
:1030E00083128316D40A83124328831654080B3C98
:1030F00003187C288312892883120730831654070B
:10310000B93E84008313800183128316D40A83128C
:1031100075288A1150268A15F8080319C6288316BF
:103120004608303C031D962883129F28831283167D
:103130004608313C03199E288312AA28831283165D
:103140004608303C031DA6288312A92883120511C6
:10315000AA28051583164708303C031DB1288312A1
:10316000BA28831283164708313C0319B928831201
:10317000C528831283164708303C031DC1288312DB
:10318000C42883128511C5288515CC288316C00153
:1031900083128A1150268A15BE013E08BD003C10DC
:1031A000D9012830D8008316CC080319D9288312F6
:1031B000F72883128316DB01831283165B088312C0
:1031C0000A128A1161200A168A158316DB0ADC00AE
:1031D00083120A128A11FC220A168A151F308316DE
:1031E0005B020319F5288312DD288312CD2A83168A
:1031F00007166400871564008312071283160712EE
:1032000064008312871183168711A030EA008312AD
:103210000A128A1194270A168A1583163C08DB00C5
:10322000DC013C08EA0083120A128A1194270A166C
:103230008A1583163B08EA0083120A128A11942722
:103240000A168A1583160712000087158312871D38
:1032500027296400000000000000831607166400A0
:10326000071664008715640083120712831607127D
:1032700064008312871183168711A130EA0083123C
:103280000A128A1194270A168A15831639083A04F5
:10329000031D4C298312BA2A83120130F7008A11C8
:1032A00019268A1578088316D50039080319BA0338
:1032B000B9033F080139003A031D60298312B02A7F
:1032C000831283165508403C031968298312B02ADB
:1032D0008312831639083A04031D70298312B02A19
:1032E00083120130F7008A1119268A15780883168F
:1032F000D50039080319BA03B90330305502D60096
:1033000056080139003A031D872983128C2983123C
:103310002408FA0023088F292608FA0025088316B6
:10332000D9007A08DA00560B9629982983129A292F
:103330008312A22983165608023C0319A12983127D
:10334000FF29831283165A08E2005908E100E401BC
:103350001930E30083120A128A1165260A168A15AB
:1033600079088316DC007808DB005C08063ED8008C
:103370005808093C031CBE298312F32983128316C3
:103380005808623C031CC6298312CD2983120930D8
:103390008316D800D4008312E8298316D40183123F
:1033A00083165408093C0318D7298312E82983128D
:1033B00083165808093C031CDF298312E82983126D
:1033C0000A308316D80283128316D40A8312D029B6
:1033D000303083165407DB00DD0083120A128A1195
:1033E000D5220A168A15303083165807DB00DD0017
:1033F00083120A128A11D5220A168A15AF2A831659
:103400005608033C031D062A83120F2A83128316D3
:103410005608043C03190E2A8312612A831283166C
:103420005A08E2005908E100E4011930E300831270
:103430000A128A1165260A168A1579088316DC0095
:103440007808DB000310FA015C0CF900D800D40105
:10345000831283165408093C0318302A8312412A28
:10346000831283165808093C031C382A8312412A08
:1034700083120A308316D80283128316D40A831269
:10348000292A303083165407DB00DD0083120A122C
:103490008A11D5220A168A152E308316DD00831272
:1034A0000A128A11D5220A168A1530308316580757
:1034B000DB00DD0083120A128A11D5220A168A1552
:1034C000AF2A83165608053C0319682A8312782A06
:1034D0008312051D6D2A30306E2A31308316DB00D1
:1034E000DD0083120A128A11D5220A168A15AF2A24
:1034F00083165608063C03197F2A83128F2A8312EB
:10350000851D842A3030852A31308316DB00DD00AA
:1035100083120A128A11D5220A168A15AF2A831637
:103520005608073C0319962A8312A62A8312861E80
:103530009B2A30309C2A31308316DB00DD00831259
:103540000A128A11D5220A168A15AF2A3F3083162D
:10355000DD0083120A128A11D5220A168A15B92AA9
:1035600083165508DD0083120A128A11D5220A1625
:103570008A154529F7018A1119268A15831607121B
:10358000000087158312871DC32A64000000000015
:10359000000083160716640083120130F800D32A56
:1035A0000030F800D32A8A150A16AF2C1030831683
:1035B000D10083123C10BE013E08BD008316D60127
:1035C000A030D50083120A12E1260A16F808031962
:1035D000F32D8316D6017C30D50083120A12E12622
:1035E0000A16F8080319F32D8316D501AB30D40061
:1035F00083120A1214270A16F8080319F32D8316EA
:10360000D501AF30D40083120A1214270A16F80825
:103610000319F32D8316E601CF30E50083120A1259
:103620008A1133260A168A15F8080319F32D831612
:10363000E601D030E50083120A128A1133260A16F9
:103640008A15F8080319F32D8316D6010630D50024
:1036500083120A127F270A16F8080319F32D83161E
:10366000A9080319352B83123E2B831283162808D1
:10367000273C031C3D2B8312F32D83122C086E0272
:10368000031DF32D2D086F02031DF32D2E0870026C
:10369000031DF32D2F087102031DF32D1430831623
:1036A0002802D4002908D5000030031C0130D502BF
:1036B0005508D9005408D80083120A12E1270A16C7
:1036C0008316D7012C30D60083128A11B2238A15B3
:1036D0008316D7017230D60083128A11B2238A155D
:1036E0008316E80183120A128A11B5220A168A1576
:1036F00006308316E80083120A128A11B5220A16D0
:103700008A1583164F08503C031C882B8312AD2B5F
:1037100083128316A80803198F2B8312972B831209
:103720008316A908031D962B8312AD2B83128316D3
:10373000D6010430D50083120A127F270A16F80832
:103740000319AD2B04308316A8020030031C01308E
:10375000A9021030CF028312812B28308316280251
:10376000B5002908B6000030031C0130B6028312F0
:1037700052088316D300831251088316D2003608EC
:10378000D6003508D50083120A127F270A16831641
:103790005308D6005208D50083128A1181238A1556
:1037A0003D0FF32D3E0FF32D8316D40183120A1221
:1037B000C8260A168316D7012830D60083128A112C
:1037C0008E258A15FE017E08F600BC113C113C16C0
:1037D000831650080439003A031DF02B8312F52B91
:1037E00083128316D1018312B32C83165008023939
:1037F000003A031DFD2B83122D2C83128316D70153
:10380000AB30D600D9010130D80083128A11BE2511
:103810008A157C080D3C031D102CFD080319172C7C
:103820007C08503C031D282CFD08031D282CFF306C
:103830008316B000AF003408FA003308B30A031946
:10384000B40AB1007A08B2001230D10083122C2CD5
:1038500014308316D1008312B32C8316500801391B
:10386000003A031D352C83124A2C83120130831633
:103870003507D4003608D5000318D50AD701AB3078
:10388000D6005508D9005408D80083128A11BE25E5
:103890008A15B32C831650081039003A031D522C98
:1038A0008312B32C8312831635083604031D5A2C59
:1038B0008312682C83128316D701AB30D6003608EA
:1038C000D9003508D80083128A11BE258A156B2CC1
:1038D0008316D10183127C080D3C031D9F2CFD082B
:1038E000031D9F2C8316AF080319782C83129F2C7D
:1038F00083128316B00803197F2C83129F2C831226
:103900008316D40183128316540883120A128A1173
:1039100050200A168A158316D40ADC0083120A1274
:103920008A11FC220A168A150C30831654020319D8
:103930009B2C8312832C1130D1008312B32C7C0872
:10394000503C031DB32CFD08031DB32C8316350812
:103950003604031DAD2C8312B32C831200281130C2
:103960008316D10083128316D108031DB92C83124C
:10397000F02D831283165108D40083120A128A1183
:103980008C220A168A153D08F6003E08FE00D7086C
:10399000031DD12C5608273C031CD12CD7012830FD
:1039A000D600831654080239003A031DD92C83121D
:1039B000DE2C83120430D6070318D70A5708831663
:1039C000A900831256088316A800D701D6018312D6
:1039D0008A118E258A150630ED008A110E248A156B
:1039E00083165408D50083120830EC00EB013C101C
:1039F0007608BD007E08BE007D088316D7007C08CF
:103A0000D60083120A128A11E8270A168A1583162D
:103A10002108D7002008D60083120A128A11E8274D
:103A20000A168A158316D701AF30D60083128A1181
:103A300000208A158316D701AB30D60083128A1175
:103A400000208A15831655080239003A031D2A2DD5
:103A500083122D2D831260302E2D50308316D60008
:103A6000DD0083120A128A11D5220A168A158316DE
:103A70005508DD0083120A128A11D5220A168A150A
:103A80000B308316DD0083120A128A11D5220A1622
:103A90008A15B8308316DD0083120A128A11D522E6
:103AA0000A168A15831655080239003A031D5A2D45
:103AB0008312882D83128316D7012830D6008312F3
:103AC0008A118E258A1502308316DD0083120A12B0
:103AD0008A11D5220A168A1504308316DD00831256
:103AE0000A128A11D5220A168A1505308316D700C4
:103AF000B430D60083120A128A11E8270A168A15F2
:103B00008316D7012430D60083128A118E258A1598
:103B10008316D7012C30D60083128A11B2238A155E
:103B20008316D7017230D60083128A11B2238A1508
:103B30008316E80183120A128A11B5220A168A1521
:103B400006308316E80083120A128A11B5220A167B
:103B50008A15143083162802D6002908D7000030B1
:103B6000031C0130D7025708D9005608D800831229
:103B70000A12E1270A163D088316D600D609560810
:103B8000DD0083120A128A11D5220A168A153E0810
:103B90008316D600D6095608DD0083120A128A1150
:103BA000D5220A168A158316D701D60183120A1266
:103BB0008A11E8270A168A15831655080239003A31
:103BC000031DE42D8312ED2D83128316D7012C30B3
:103BD000D60083128A118E258A158A115C208A15D7
:103BE0000130F800F62D0030F800F62D8A150A167F
:103BF000362F5730F7002030840083138001840A69
:103C0000F70BFE2D5030F700A030840083138001A5
:103C1000840AF70B072E3630F7003A3084008317FA
:103C20008001840AF70B102E83133630F700BA3068
:103C3000840083178001840AF70B1A2E8313A001D6
:103C4000840183131F3083059F3084008313073062
:103C50008000A001A101A2011F308316990022302B
:103C60009800903083129800C5010430C600A3303C
:103C7000C700C801C901CA018316AA01CD01CE013E
:103C800083120B138B138B1B422E85128E308316DF
:103C90009F000330850083121F08383981389F0048
:103CA0000030F8001F08C73978049F008701FF30F3
:103CB00083168700880083120914891409150030BF
:103CC00083168900811383128F01B5309000901301
:103CD0008316DC012930DB00DE01DD0183120A12CC
:103CE0008A11E8200A168A15AB15AB122B1205159E
:103CF00085150A128A1175290A168A15BC153C15F4
:103D00003C128316CF01831283164F0883120A12C6
:103D10008A11CA200A168A158316CF0ADC0083127C
:103D20000A128A11FC220A168A150D3083164F02D8
:103D300003199C2E8312842E6330DC0083120A1236
:103D40008A11FC220A168A150A308316DC008312B7
:103D50000A128A11FC220A168A150A128A11612B8C
:103D60000A168A15F8080319B72E861AD72E831655
:103D7000CF01831283164F0883120A128A11DC20A6
:103D80000A168A158316CF0ADC0083120A128A11DA
:103D9000FC220A168A15073083164F020319D22E09
:103DA0008312BA2E83120A1200280A16AD2E0A12A6
:103DB000C0220A16AB178316D0013830CF000A3064
:103DC000D1000130D200D3006430D40083120A1233
:103DD0001F240A168316D0013430CF00FF30D100E3
:103DE000D201D301D40183120A121F240A160A1227
:103DF000E82C0A160D300C1EFB2E99000A300C1E02
:103E0000FF2E99000A128A1129240A168A150A120D
:103E1000A72D0A16F8080319382F8316D401831228
:103E20000A12C8260A166B08063C031D1E2F6C08D2
:103E3000083C031D1E2F8A11DE288A15EB08031D7E
:103E4000362F6C08083C031D362F8A11872A8A15E5
:103E5000F8080319362F6D0B312F8A11782C8A152B
:103E6000362F6D08063C031D362FD62AD001CF0110
:043E7000022F6300BA
:02400E00723FFF
:00000001FF
;PIC16F877
