:020000040000FA
:10000000F6EF1DF0160FF66E000EF76ED8B0F72A59
:100010000800F55012000A4E494320696E697420A9
:10002000657272200000380FF66E000EF76ED8B0C1
:10003000F72A0800F5501200204E4943205278203C
:100040006F76657272756E2000005C0FF66E000EA2
:10005000F76ED8B0F72A0800F5501200204E494339
:1000600020706B742065727220007C0FF66E000E9B
:10007000F76ED8B0F72A0800F5501200204E494319
:10008000207074722065727220009C0FF66E000E54
:10009000F76ED8B0F72A0800F55012004E6F2064B2
:1000A000617974696D650D0A0000BC0FF66E000E73
:1000B000F76ED8B0F72A0800F55012004854545093
:1000C0002F20323030204F4B0D0A0D0A4E6F205733
:1000D0006562207061676573210D0A00EE0FF66E90
:1000E000000EF76ED8B0F72A0800F5501200503114
:1000F00036576562202076322E3032000E0FF66EB3
:10010000010EF76ED8B0F72A0800F5501200436FC1
:100110006E6669672000280FF66E010EF76ED8B084
:10012000F72A0800F550120020444843500012C13D
:1001300003F001011151E96E000103C0EAFFECCFA9
:1001400003F0ED52EF500C5C0101156F03500D5898
:10015000166F13511411D8A403D00001C6EF00F09C
:10016000000101011451165DD8B003D00001D7EF92
:1001700000F00001D8A4C6EF00F001011351155D95
:10018000D8B003D00001D7EF00F0000112C103F096
:1001900001011151E96E000103C0EAFF0DC0ECFF3F
:1001A000ED520CC0EFFF010E016EDBEF00F0000E10
:1001B000016EDBEF00F0000C010EEA6E210EE96E1D
:1001C000EF50D8B4F7EF00F0060E016E006A002E73
:1001D000E7EF00F0012EE6EF00F05E0E006E002E5D
:1001E000EFEF00F000000000EF2EE4EF00F0000C55
:1001F000808A23C183FF00000000809A0000000C69
:10020000000E956E01012039216F0F0E211700019C
:1002100021C123F1F8EC00F0010120510F0B216FF7
:10022000000121C123F1F8EC00F001012051FC0B89
:10023000000AD8B403D0000125EF01F00001020E3E
:100240000101216F0001DCEC00F00F0E956E410EF4
:10025000006E002E29EF01F0000C809A0F0E956EB3
:100260000F0E0101216F0001DCEC00F0280E0101EE
:10027000206F000100EC01F0050E0101216F00016B
:10028000DCEC00F0280E0101206F000100EC01F011
:10029000A30E006E002E4AEF01F00000280E0101AF
:1002A000206F000100EC01F0410E006E002E56EFB1
:1002B00001F0280E0101206F000100EC01F0040E96
:1002C0000101206F000100EC01F00E0E0101206F12
:1002D000000100EC01F0010E0101206F000100ECB3
:1002E00001F0800E0101206F000100EC01F053EFDE
:1002F0001EF0000E956E01012039006E0F0E0016E3
:1003000000501009226F000122C123F1F8EC00F027
:10031000010120510F0B1009226F000122C123F1AE
:10032000F8EC00F00F0E956E410E006E002E96EF69
:1003300001F0000C31C181FF32C183FF000E956EC8
:10034000849200008482FF0E956E000C0E0E010157
:100350002327400E2423070E316F400E326F000119
:100360009AEC01F0080E0101316F000123C132F156
:100370009AEC01F024C125F1090E0101316F000151
:1003800025C132F19AEC01F0010E646E000CFF0EF3
:10039000956E23C181FF849083CF24F18480010175
:1003A0002451016E0001D5EF01F0000C0101216B19
:1003B000000169C022F101012253D8B403D0000129
:1003C000E5EF01F0000147EF02F001012251010BBE
:1003D0002227070E316F400E326F00019AEC01F0B8
:1003E0000A0E0101316F000122C132F19AEC01F0D5
:1003F0000B0E0101316F326B00019AEC01F001012B
:10040000316B120E326F00019AEC01F0100E816E0A
:10041000000E956E010122512207000AD8A403D0D4
:10042000000128EF02F0000101012151212B6A0F88
:10043000016E036AD8B0032A0150E96E000103C0BF
:10044000EAFFEF50836E8492000084820AEF02F08C
:10045000FF0E956EFF0E0101226F00010101225374
:10046000D8A403D0000147EF02F00001070E0101FC
:10047000236F0001C7EC01F00150400B000AD8A423
:1004800047EF02F00101220700012EEF02F0000CFD
:100490006952D8B461EF02F06452D8A45EEF02F062
:1004A0006950675C0101216F000E6858226F0001DE
:1004B00022C124F121C123F1A6EC01F0D6EC01F018
:1004C000696A6650685CD8A072EF02F0D8A46EEF3B
:1004D00002F06750655CD8B072EF02F068C066F059
:1004E00067C065F0000C21A088EF02F001012851DF
:1004F00023262851235CD8A003D0000186EF02F008
:100500000001222AD8A486EF02F0232A98EF02F0F5
:100510000101285122262851225CD8A003D00001D5
:1005200098EF02F00001232AD8A498EF02F0222AC3
:100530002170000C68500408D8B0ACEF02F0FF0A3C
:10054000D8A4A8EF02F06750E908D8B0ACEF02F0E9
:10055000000E016ECBEF02F069501F08D8B0B3EF68
:1005600002F048EC02F06950692A6A0F016E036AD2
:10057000D8B0032A0150E96E03C0EAFF20C1EFFFA3
:10058000672AD8B4682A20C128F173EC02F0010E62
:10059000016ECBEF02F0000C21A4F5EF02F0010197
:1005A0001F510D08D8B403D00001E0EF02F00001A4
:1005B000800E0101206F000100EC01F0F5EF02F068
:1005C00001011F510A08D8B403D00001F1EF02F075
:1005D0000001C00E0101206F000100EC01F0F5EFF9
:1005E00002F01FC120F179EC01F021A60DEF03F01C
:1005F00001011F510A08D8B403D0000106EF03F02F
:1006000000010D0E9EA802EF03F0AD6E01011F5117
:1006100000019EA809EF03F0AD6E21A814EF03F0CE
:100620001FC120F19AEC02F0000C10C116F10FC1AD
:1006300015F116C103F001011551E96E000103C067
:10064000EAFF14C1EFFF10C116F10FC115F1010E41
:1006500001011525016E000E1621036E0150E96E91
:10066000000103C0EAFF13C1EFFF10C116F10FC173
:1006700015F1020E01011525016E000E1621036E03
:100680000150E96E000103C0EAFF12C1EFFF10C183
:1006900016F10FC115F1030E01011525016E000EB3
:1006A0001621036E0150E96E000103C0EAFF11C17B
:1006B000EFFF6EEF03F0D20E2E6E040E2F6E0101CF
:1006C000106B110E0F6F0A0E116F010E126F010EDB
:1006D000136F630E146F000115EF03F0010E016E2E
:1006E00072EF03F079EF1EF0000E016E78EF03F069
:1006F00099EF1EF0FF0E956E816AF19E200E936EAB
:10070000848084828484000E966E89EF03F07AEFF1
:1007100003F0020E0101216F0001DCEC00F0849473
:10072000020E0101216F0001DCEC00F01F0E01013F
:10073000236F0001C7EC01F001C013F11F0E01018E
:10074000316F000113C132F19AEC01F0020E010188
:10075000216F0001DCEC00F0070E0101236F0001A6
:10076000C7EC01F00150800B000AD8A4D4EF03F0CD
:100770000101136B000101011351000102EC00F0B3
:100780000101132B00019EA8C3EF03F0AD6E0E0E06
:100790000101135DD8B403D00001BBEF03F0000EDC
:1007A000016E0001BCEF04F00101316B210E326FCC
:1007B00000019AEC01F0020E0101216F0001DCEC56
:1007C00000F00E0E0101316F480E326F00019AECFD
:1007D00001F00A0E0101316F326B00019AEC01F059
:1007E0000B0E0101316F326B00019AEC01F00C0E1F
:1007F0000101316F200E326F00019AEC01F00D0EF5
:100800000101316F020E326F00019AEC01F0040E0B
:100810000101316F400E326F00019AEC01F0010EC0
:100820000101316F460E326F00019AEC01F0020EA9
:100830000101316F5F0E326F00019AEC01F0030E7F
:100840000101316F5E0E326F00019AEC01F0070E6C
:100850000101316FFF0E326F00019AEC01F00F0EB3
:100860000101316F326B00019AEC01F00101316B33
:10087000610E326F00019AEC01F0020E0101216F4E
:100880000001DCEC00F00101126B000101011251CA
:100890000508D8B003D000016BEF04F00001010E91
:1008A00001011225136F2A0E1225016E036AD8B0BA
:1008B000032A0150E96E000103C0EAFFEFCF14F1F3
:1008C00013C131F114C132F19AEC01F00101122B84
:1008D000000146EF04F00101126B00010101125109
:1008E0000708D8B003D0000189EF04F00001080E1A
:1008F00001011225136F000113C131F1FF0E010137
:10090000326F00019AEC01F00101122B00016EEF31
:1009100004F0070E0101316F470E326F00019AECAF
:1009200001F0470E306E0101316B200E326F000175
:100930009AEC01F00C0E0101316F040E326F0001D0
:100940009AEC01F00D0E0101316F326B00019AEC4F
:1009500001F0070E0101316FFF0E326F00019AECBA
:1009600001F00101316B220E326F00019AEC01F0AF
:10097000010E016EBCEF04F0000C010114510108DE
:10098000D8A003D00001C9EF04F00001400ECAEF67
:1009900004F0000E0101156F800E1525176F000180
:1009A00017C120F100EC01F00101166B00010101FB
:1009B00016510F08D8B003D00001EBEF04F000018E
:1009C000200E0101206F000179EC01F00101162BCE
:1009D0000001D7EF04F0800E01011525176F00010B
:1009E00017C120F100EC01F0A1EF05F0016A026AE5
:1009F000006A036A01012451D8B403D0000108EF52
:100A000005F02351D8A403D0000132EF05F0000116
:100A1000100E0101256F0001D89001012137223706
:100A2000003603362451035CD8B403D000011CEF18
:100A300005F02351005C0001D8A028EF05F001016A
:100A40002351005ED8A003062451035ED880000124
:100A5000013602360101252F01D003D000010CEF31
:100A600005F000010000000C0101186B00010101FC
:100A70001851182B190F016E010E036ED8B0032AFE
:100A80000150E96E000103C0EAFF16C122F115C151
:100A900021F10101246B0A0E236F0001F6EC04F032
:100AA0000050300FEF6E16C122F115C121F1010186
:100AB000246B0A0E236F0001F6EC04F002C016F15D
:100AC00001C015F1010115511611D8B403D0000170
:100AD00037EF05F0000118C117F101011853D8A430
:100AE00003D000018BEF05F0000101011807190E7A
:100AF0001825016E010E036ED8B0032A0150E96E6D
:100B0000000103C0EAFFEFCF1EF11EC11FF1CCECC4
:100B100002F06DEF05F001011751016E000191EF38
:100B200005F0000C2186218421980A0E01011F6F17
:100B30000001CCEC02F0020E0101146F0001BDEFC8
:100B400004F00101166B000114C015F134EC05F03E
:100B50002E0E01011F6F0001CCEC02F00101166B9B
:100B6000000113C015F134EC05F02E0E01011F6FCA
:100B70000001CCEC02F00101166B000112C015F16E
:100B800034EC05F02E0E01011F6F0001CCEC02F0D9
:100B90000101166B000111C015F134EC05F0000CD9
:100BA00001010E51CF5C0D6F0D517708D8A003D015
:100BB0000001E7EF05F000010C2AD8B40D2A780EE9
:100BC00001010E27010E016E0001EBEF05F0000E92
:100BD000016EEBEF05F01BEF06F0C284C2B4EEEF3E
:100BE00005F0C450036EC350086E03C009F0840EB4
:100BF000C16E080E016EC250C70B0110C26E100EFE
:100C0000006E002E01EF06F0C284C2B405EF06F0BC
:100C1000C450036EC3500A6E03C00BF08E0EC16E3B
:100C2000000E016EC250C70B0110C26E43EF06F0FA
:100C30000400D0EF05F00152D8B441EF06F0006A8D
:100C400010B6008A81500018200BD8A42DEF06F0B2
:100C5000109810A610882EEF06F010760C50010B9D
:100C6000006E0D50000B036E00500310D8B441EF1E
:100C700006F010A23DEF06F0807410A441EF06F0DC
:100C80008076EDEF05F00101126B0E0E116F146B03
:100C90000A0E136F000197EC00F00152D8B452EF26
:100CA00006F08078C6EF1EF018C11BF101011C6B25
:100CB000000117C103F0000E01011B11196F035051
:100CC0001C111A6F1951016E1A51026E000169EF61
:100CD00006F0000C0101166B1451000B006E15514B
:100CE000800B036E00500310D8A403D0000189EFDD
:100CF00006F0000101011653D8A403D0000185EFCE
:100D000006F00001000E86EF06F0010E0101166FDD
:100D1000000101011451000B006E1551400B036ED0
:100D200000500310D8A403D00001A7EF06F0000183
:100D300001011653D8A403D00001A3EF06F000016F
:100D4000000EA4EF06F0010E0101166F0001010173
:100D50001451000B006E1551100B036E0050031060
:100D6000D8A403D00001C5EF06F00001010116531D
:100D7000D8A403D00001C1EF06F00001000EC2EFBD
:100D800006F0010E0101166F000101011451080B5C
:100D9000006E1551000B036E00500310D8A403D051
:100DA0000001E3EF06F0000101011653D8A403D0BF
:100DB0000001DFEF06F00001000EE0EF06F0010E8B
:100DC0000101166F0001010114511425176F15510F
:100DD0001521186F16511725016E000E1821036E8C
:100DE0000350026E0001F5EF06F009EF07F0010174
:100DF000136B0001010113510708D8B003D00001A3
:100E000012EF07F0000112C115F111C114F16AEFE0
:100E100006F002C012F101C011F10101132B000113
:100E2000FAEF06F001011151016E1251026E00013C
:100E30001AEF07F01AEF0BF0010118510408D8A0BF
:100E400003D0000136EF07F00001FF0AD8A432EF0B
:100E500007F001011751DC08D8A003D0000136EFDC
:100E600007F00001000E016E46EF07F048EC02F0BB
:100E700018C168F017C167F068C024F167C023F19A
:100E8000A6EC01F0010E016E46EF07F0000C18C150
:100E90001AF117C119F1030E01011925016E000E97
:100EA0001A21036E0150E96E000103C0EAFFEFCF83
:100EB0001BF11BC120F19AEC02F018C11AF117C105
:100EC00019F1020E01011925016E000E1A21036E9F
:100ED0000150E96E000103C0EAFFEFCF1BF11BC117
:100EE00020F19AEC02F018C11AF117C119F1010EA4
:100EF00001011925016E000E1A21036E0150E96EE1
:100F0000000103C0EAFFEFCF1BF11BC120F19AECF7
:100F100002F018C11AF117C119F11AC103F0010149
:100F20001951E96E000103C0EAFFEFCF1BF11BC1AD
:100F300020F19AEC02F0000C010115511507000A8E
:100F4000D8A403D00001ADEF07F000010101206B30
:100F500000019AEC02F09CEF07F0000C01011C511B
:100F6000036E1B51D8B41C071B070310D8A403D071
:100F70000001CFEF07F0000101011A51036E195172
:100F8000192BD8B41A2BE96E000103C0EAFFEFCF8A
:100F90001DF11DC120F19AEC02F0AEEF07F0000C3C
:100FA00018C119F119C120F19AEC02F017C120F112
:100FB0009AEC02F0000C18C11AF117C119F1030ED6
:100FC00001011925016E000E1A21036E0150E96E10
:100FD000000103C0EAFFEFCF1BF11BC128F173EC46
:100FE00002F018C11AF117C119F1020E01011925F9
:100FF000016E000E1A21036E0150E96E000103C05C
:10100000EAFFEFCF1BF11BC128F173EC02F018C10E
:101010001AF117C119F1010E01011925016E000E17
:101020001A21036E0150E96E000103C0EAFFEFCF01
:101030001BF11BC128F173EC02F018C11AF117C1A2
:1010400019F11AC103F001011951E96E000103C041
:10105000EAFFEFCF1BF11BC128F173EC02F0000C8B
:10106000236A23C022F02190450E0101206F000168
:101070009AEC02F00101206B00019AEC02F0BAC078
:1010800018F1B9C017F1D0EC07F00101206B000195
:101090009AEC02F0BD2BBDC020F19AEC02F00101E8
:1010A000186B176B0001D0EC07F0640E0101206F84
:1010B00000019AEC02F0A6C020F19AEC02F00101C6
:1010C000186B110E176F0001DBEC07F00101186BB4
:1010D000AB0E176F0001DBEC07F022500101176F18
:1010E000171F000117C120F19AEC02F023500101F3
:1010F000176F171F000117C120F19AEC02F00101D0
:10110000186B110E176F000147EC07F00101186B07
:10111000AB0E176F000147EC07F0000C19C11AF174
:1011200001011B6B00011AC128F173EC02F018C118
:1011300028F173EC02F0000C2190BBC022F0BCC07F
:1011400023F0B0C018F1AFC017F1D0EC07F0B2C077
:1011500018F1B1C017F1D0EC07F0E1C018F1E0C010
:1011600017F1D0EC07F00101186B110E176F000199
:10117000DBEC07F00101186BAB0E176F0001DBEC25
:1011800007F00101286B000173EC02F0110E010160
:10119000286F000173EC02F0E1C019F1E0C018F112
:1011A0008EEC08F021AED9EF08F0FF0E236E23C0BD
:1011B00022F022500101176F171F000117C120F103
:1011C0009AEC02F023500101176F171F000117C19D
:1011D00020F19AEC02F08EEF09F066C018F165C0BC
:1011E00017F148EC02F0FF0E0101246FF20E236F9D
:1011F0000001A6EC01F0696A01011A6B9E0E196FDD
:101200001C6B060E1B6F0001AEEC07F001011A6BA0
:101210002A0E196F1C6B060E1B6F0001AEEC07F057
:10122000A5C019F119C120F19AEC02F0A4C020F177
:101230009AEC02F00E0E01011727000E1823000190
:10124000D6EC01F001011853D8B403D0000138EFF7
:1012500009F00001010117513B08D8B003D000018B
:1012600038EF09F000010101186B3C0E176F000107
:10127000050E0101316F000117C132F19AEC01F046
:1012800018C119F1060E0101316F000119C132F1C7
:101290009AEC01F00101316B240E326F00019AECDF
:1012A00001F0000C48EC02F022C0BBF023C0BCF0FF
:1012B0000101166B156B6852D8B403D0000167EFBB
:1012C00009F0000167501C08D8B06FEF09F01C0E40
:1012D000675C0101156F000E6858166F0001080E5B
:1012E000010115250001E06F000E0101162100012A
:1012F000E16F140EE025B96F000EE121BA6F010114
:10130000186B176B00011CEC07F0080EA56FA46B9F
:10131000110EA66F30EC08F09CEF08F0EDEC08F031
:10132000000C219621942188080EA56FA46B110E44
:10133000A66FB06B440EAF6FB26B430EB16F01017D
:10134000186B1C0E176F00011CEC07F0010E010159
:10135000206F00019AEC02F0010E0101206F0001E4
:101360009AEC02F0060E0101206F00019AEC02F0E7
:101370000101206B00019AEC02F00101186BF70EDD
:10138000176F000147EC07F0040E0101156F000113
:101390009CEC07F00101186B110E176F000147EC70
:1013A00007F00C0E0101156F00019CEC07F0010124
:1013B0001A6B2A0E196F1C6B060E1B6F0001AEEC28
:1013C00007F068500108D8A0F5EF09F0D8A4EEEFB7
:1013D00009F067500708D8A0F5EF09F00101206B6C
:1013E00000019AEC02F0E1EF09F0630E0101206FB9
:1013F00000019AEC02F0820E0101206F00019AECCC
:1014000002F0530E0101206F00019AEC02F0630E0E
:101410000101206F00019AEC02F0350E0101206FEE
:1014200000019AEC02F0010E0101206F00019AEC1C
:1014300002F0010111510F0B156F000115C120F1D0
:101440009AEC02F03D0E0101206F00019AEC02F0CF
:10145000070E0101206F00019AEC02F0010E01015C
:10146000206F00019AEC02F001011A6B2A0E196F2D
:101470001C6B060E1B6F0001AEEC07F00C0E010199
:10148000206F00019AEC02F02198036A2E0EE96E9B
:1014900003C0EAFFECCF16F1ED52EFCF15F116C104
:1014A00018F115C117F154EC06F002C014F101C097
:1014B00013F114C116F113C115F134EC05F001C09C
:1014C00012F12188010E01011225156F000115C1CD
:1014D00020F19AEC02F0500E0101206F00019AEC0D
:1014E00002F014C116F113C115F134EC05F001013D
:1014F00011510308D8B403D00001A7EF0AF000018E
:10150000360E0101206F00019AEC02F0040E010179
:10151000206F00019AEC02F0010E0101186F010E1C
:10152000176F000147EC07F0320E0101206F000138
:101530009AEC02F0040E0101206F00019AEC02F017
:101540000101186BF30E176F000147EC07F0FF0E57
:101550000101206F00019AEC02F001011151130802
:10156000D8B403D00001CCEF0AF00001FBC09EF01C
:10157000FCC09FF0FDC0A0F0FEC0A1F0FFC0A2F033
:1015800000C1A3F004C1AEF003C1ADF002C1ACF0E4
:1015900001C1ABF0E0EF0AF0060E016EEA6A9E0EA2
:1015A000E96EFF0EEE6E012ED1EF0AF0040E016E11
:1015B000EA6AAB0EE96EFF0EEE6E012EDBEF0AF06B
:1015C00052EC09F069EF0BF0E453D8A43CEF0BF0B8
:1015D000146A136A126A116A036A2E0EE96E03C056
:1015E000EAFFECCF12F1ED52EFCF11F112C118F179
:1015F00011C117F154EC06F002C010F101C00FF157
:10160000EE6BED6B0101126BE50E116F146B136B3A
:10161000000197EC00F00101126BE70E116F146BE3
:10162000136B000197EC00F010C112F10FC111F122
:10163000F7EF06F002C012F101C011F101011151E2
:101640001F0B006E1251000B036E0050140F0001AF
:10165000E96F000E0320EA6FEAC0ECF0E9C0EBF09E
:1016600010C1F8F00FC1F7F0ECC0FAF0EBC0F9F0E0
:10167000010EE46F7AEF0BF0E42D41EF0BF04BEF2E
:101680000BF0E4510308D8B44BEF0BF0E45113080E
:10169000D8A47AEF0BF00101126BE50E116F000177
:1016A000EAC014F1E9C013F197EC00F00152D8B48C
:1016B0007AEF0BF0236A23C022F02252D8A464EF01
:1016C0000BF0219065EF0BF02180E4C011F191EF58
:1016D00009F0EA510408D8A07AEF0BF0D8A476EF0D
:1016E0000BF0E951AF08D8A07AEF0BF0E951E927E8
:1016F000EA51EA23E4513008D8B484EF0BF0E45106
:101700001308D8A4B9EF0BF00101126BE70E116FAB
:10171000146B140E136F000197EC00F00152D8B453
:10172000B5EF0BF0ED2BD8B4EE2BF151ED5DD8A455
:10173000A7EF0BF0F251EE5DD8A4A7EF0BF0ECC0D1
:10174000EAF0EBC0E9F0130EE46FB5EF0BF0F051E7
:10175000EE5DD8A0B5EF0BF0D8A4B4EF0BF0EF51CD
:10176000ED5DD8A0B5EF0BF0E46B010E016EBDEF9F
:101770000BF0000E016EBDEF0BF0C8EF1EF0325003
:1017800001012E2733502F232F515E08D8A003D0FC
:101790000001D0EF0BF00001E70E01012F2700013F
:1017A000070E0101316F400E326F00019AEC01F01B
:1017B000080E0101316F00012EC132F19AEC01F0E7
:1017C0002FC130F1090E0101316F000130C132F13A
:1017D0009AEC01F0646A000C396A39C038F0376A53
:1017E00038C036F0109C219A01012F6B2E6B00013E
:1017F000BFEC0BF0000C01012E53D8B403D0000154
:1018000005EF0CF0000142EF0CF0070E0101316F03
:10181000400E326F00019AEC01F00A0E0101316FA7
:1018200000012EC132F19AEC01F00B0E0101316F73
:10183000326B00019AEC01F00101316B0A0E326F3C
:1018400000019AEC01F0100E816EFF0E956E010101
:101850002E512E07000AD8A403D0000142EF0CF04D
:10186000000184903850382A3A0F016E036AD8B0CC
:10187000032A0150E96E03C0EAFF83CFEFFF8480A3
:1018800027EF0CF0000C39500101285DD8A003D0DF
:1018900000017BEF0CF0000128C12AF13850395CBF
:1018A000D8B077EF0CF001012A512A2B3A0F016EC4
:1018B000036AD8B0032A01502F6F000103C030F132
:1018C0003950392A3A0F016E036AD8B0032A015001
:1018D000E96E03C0EAFFEF500101326F000130C131
:1018E000EAFF2FC1E9FF32C1EFFF4EEF0CF02AC132
:1018F00038F028C139F03650345C01012C6F375074
:1019000035582D6F2D53D8B403D0000199EF0CF04A
:101910000001010129512C5DD8A003D0000199EFED
:101920000CF000012DC103F001012C5100019CEFCE
:101930000CF00101295100010101296F2A0ED88004
:101940003854295DD8A403D00001B2EF0CF0D8B010
:1019500003D00001B2EF0CF000012A0ED8803854F9
:10196000B5EF0CF00101295100010101296F0001BF
:1019700029C12BF101012B53D8A403D00001D0EFD2
:101980000CF000016452D8B4CCEF0CF037C02FF14A
:1019900036C02EF1BFEC0BF029C12EF1FBEC0BF0A1
:1019A00001012951016E0001D6EF0CF0000C3850F6
:1019B000395CD8A0E4EF0CF00A0E0101286F2A0E62
:1019C000296F000143EC0CF03850395CD8A0EDEFE2
:1019D0000CF0000E016E16EF0DF03950392A3A0F57
:1019E000016E036AD8B0032A0150E96E03C0EAFF12
:1019F000EF500101276F362AD8B4372A21AA03D025
:101A0000000108EF0DF0000127C128F173EC02F08E
:101A100026C103F001012551E96E000103C0EAFF70
:101A200027C1EFFF010E016E16EF0DF0000C010152
:101A3000176B186B000101011851155DD8B003D068
:101A4000000159EF0DF00001D8A430EF0DF00101B5
:101A50001451175DD8A003D0000159EF0DF000011B
:101A6000010E0101266F160E256F0001D7EC0CF058
:101A70000152D8B459EF0DF0010112511311D8A43D
:101A800003D0000152EF0DF0000101011351036E6C
:101A90001251122BD8B4132BE96E000103C0EAFFD8
:101AA00016C1EFFF0101172BD8B4182B00011BEF53
:101AB0000DF001011751016E1851026E000161EF26
:101AC0000DF0000C010113515E08D8A003D00001F5
:101AD00071EF0DF00001E70E0101132700017EEF09
:101AE0000DF0010113514508D8B003D000017EEF7D
:101AF0000DF00001190E010113270001010113511E
:101B0000016E000184EF0DF0000C356A346A070E97
:101B10000101236F0001C7EC01F00150100B000A16
:101B2000D8B4ADEF0DF00101126B000101011251AB
:101B3000000113EC00F00101122B00019EA89EEFA2
:101B40000DF0AD6E100E0101125DD8B403D000018E
:101B500096EF0DF0000187EC03F00101316B600E90
:101B6000326F00019AEC01F0070E0101236F0001B2
:101B7000C7EC01F00101106B000101C00FF1010180
:101B8000316B200E326F00019AEC01F030500101F0
:101B90000F5DD8B403D00001D7EF0DF000010101B3
:101BA0001053D8A403D0000187EF0EF0000130C01D
:101BB00031F00101136B000130C012F112C133F09A
:101BC000326AECEC0BF0120E01012E6F0001FBECFF
:101BD0000BF00101136B940E126F156B120E146F44
:101BE000000117EC0DF0120E3226000E3322ECEC41
:101BF0000BF097C035F096C034F09451010B000AF9
:101C0000D8B429EF0EF03552D8A40CEF0EF03450B2
:101C10003F08D8B029EF0EF035500508D8A029EFBD
:101C20000EF0D8A419EF0EF03450EE08D8A029EF2A
:101C30000EF0120E345E000E355AA5C018F1A4C085
:101C400017F154EC06F002C0A5F001C0A4F043EF78
:101C50000EF0356A346A0101126B00010101125164
:101C6000000125EC00F00101122B00019EA836EFC7
:101C70000EF0AD6E0D0E0101125DD8B403D000015F
:101C80002EEF0EF0000195514508D8B051EF0EF03F
:101C900095515E08D8A051EF0EF095C030F074EF6A
:101CA0000EF0356A346A0101126B00010101125114
:101CB000000135EC00F00101122B00019EA85EEF3F
:101CC0000EF0AD6E0D0E0101125DD8B403D000010F
:101CD00056EF0EF0010E3024126F000112C113F105
:101CE00062EC0DF001C030F0010E305C0101126FAA
:101CF000000112C113F162EC0DF001C011F1030EED
:101D00000101316F000111C132F19AEC01F034523E
:101D1000D8A492EF0EF03552D8A492EF0EF0000E38
:101D200093EF0EF0010E016E96EF0EF0CAEF1EF06B
:101D3000696A666A69C065F066C068F065C067F088
:101D4000236A23C022F02252D8A4AAEF0EF02190D9
:101D5000ABEF0EF021800101246B236B0001A6EC98
:101D600001F0000C010E0101266F200E256F00010D
:101D7000D7EC0CF00152D8B4CBEF0EF0010120519A
:101D80001F5DD8B403D00001CBEF0EF00001010EAF
:101D9000016ECFEF0EF0000E016ECFEF0EF0000CD3
:101DA000010E0101266F170E256F0001D7EC0CF014
:101DB0000152D8B40AEF0FF0010E0101266F180E80
:101DC000256F0001D7EC0CF00152D8B40AEF0FF0E8
:101DD00001011C6B000117C11BF11BC11EF10101A8
:101DE0001D6B036A18511D11196F03501E111A6FD4
:101DF000000116C103F001011551E96E000103C095
:101E0000EAFF1AC1ECFFED5219C1EFFF010E016E9E
:101E10000EEF0FF0000E016E0EEF0FF0000C040E2F
:101E20000101166F000115C119F114C118F1030E5B
:101E300001011825016E000E1921036E01501A6F61
:101E4000000103C01BF11BC126F11AC125F1D7EC1B
:101E50000CF00152D8B477EF0FF015C11CF114C18A
:101E60001BF1020E01011B25016E000E1C21036EE9
:101E700001501D6F000103C01EF11EC126F11DC1DE
:101E800025F1D7EC0CF00152D8B477EF0FF015C163
:101E90001FF114C11EF1010E01011E25016E000E7D
:101EA0001F21036E0150206F000103C021F121C1E9
:101EB00026F120C125F1D7EC0CF00152D8B477EF10
:101EC0000FF015C122F114C121F122C124F121C169
:101ED00023F124C126F123C125F1D7EC0CF00152E6
:101EE000D8B477EF0FF0010E016E7BEF0FF0000E0C
:101EF000016E7BEF0FF0000C010115511611D8A4F3
:101F000003D0000199EF0FF00001010E0101266FCF
:101F1000170E256F0001D7EC0CF00152D8B499EFE1
:101F20000FF001011551D8B41607150700017CEF19
:101F30000FF001011553D8B403D00001ADEF0FF03D
:101F4000000101011653D8B403D00001ADEF0FF02A
:101F50000001010E016EB1EF0FF0000E016EB1EF46
:101F60000FF0000C12C114F111C113F1030E0101A5
:101F70001325016E000E1421036E0150E96E00015D
:101F800003C0EAFFEFCF15F115C11FF1B2EC0EF05F
:101F90000152D8B41AEF10F012C117F111C116F1A5
:101FA000020E01011625016E000E1721036E01506D
:101FB000E96E000103C0EAFFEFCF18F118C11FF16D
:101FC000B2EC0EF00152D8B41AEF10F012C11AF1AF
:101FD00011C119F1010E01011925016E000E1A211E
:101FE000036E0150E96E000103C0EAFFEFCF1BF161
:101FF0001BC11FF1B2EC0EF00152D8B41AEF10F071
:1020000012C11DF111C11CF11DC103F001011C51D0
:10201000E96E000103C0EAFFEFCF1EF11EC11FF100
:10202000B2EC0EF00152D8B41AEF10F0010E016EAE
:102030001EEF10F0000E016E1EEF10F0F8EF10F022
:102040000101146B000198EC0EF00101112D01D07B
:1020500003D0000137EF10F00001060E016EEA6AAE
:102060009E0EE96EFF0EEE6E012E32EF10F00101B2
:10207000186B010E176F0001D0EC07F0080E01017C
:10208000186F176B0001D0EC07F0060E0101206FEE
:1020900000019AEC02F0040E0101206F00019AEC9D
:1020A00002F00101136B000111C112F113C118F10B
:1020B00012C117F1D0EC07F001011A6B2A0E196F4B
:1020C0001C6B060E1B6F0001AEEC07F00101186BD4
:1020D000110E176F000147EC07F001011A6B9E0EFD
:1020E000196F1C6B060E1B6F0001AEEC07F00101AF
:1020F000186BAB0E176F000147EC07F0080EA56FC9
:10210000060EA46FEDEC08F012EF11F001011F6B49
:102110000001B2EC0EF00152D8B44AEF11F0010EFA
:1021200001011F6F0001B2EC0EF00152D8B44AEF6A
:1021300011F0080E01011F6F0001B2EC0EF0015208
:10214000D8B44AEF11F001011F6B0001B2EC0EF0A0
:102150000152D8B44AEF11F0060E01011F6F0001C1
:10216000B2EC0EF00152D8B44AEF11F0040E0101A6
:102170001F6F0001B2EC0EF00152D8B44AEF11F01B
:10218000010E0101166F0F0E156F0001D0EC0EF05D
:102190000152D8B44AEF11F00101136BB30E126F64
:1021A000156B060E146F000117EC0DF001500210B4
:1021B000D8B44AEF11F00101156BAB0E146F00019A
:1021C0000FEC0FF00152D8B44AEF11F00101166B79
:1021D000060E156F00017CEC0FF00152D8B44AEFE7
:1021E00011F00101126B110E116F0001B2EF0FF02F
:1021F0000152D8B44AEF11F001010F2D01D003D0E4
:10220000000118EF11F0000101011053D8B403D000
:10221000000118EF11F00001020E0101116F000121
:1022200020EF10F0010E016E4EEF11F04AEF11F0A9
:1022300001010F510208D8B403D000014AEF11F098
:10224000000101011053D8B403D000014AEF11F08E
:1022500000011D50AB5DD8A449EF11F01E50AC5DDC
:10226000D8A449EF11F01F50AD5DD8A449EF11F08B
:102270002050AE5DD8A449EF11F0B3C024F0B4C033
:1022800025F0B5C026F0B6C027F0B7C028F0B8C01A
:1022900029F0108C000E016E4EEF11F0DFEF1EF0F2
:1022A000010E0101266F140E256F0001D7EC0CF012
:1022B0000152D8B460EF11F0010E016E64EF11F01D
:1022C000000E016E64EF11F0000C01011151362473
:1022D000136F12513720146F355CD8B003D0000152
:1022E00083EF11F00001D8A47FEF11F03450010109
:1022F000135DD8A003D0000183EF11F0000114C1D9
:1023000035F013C134F0395001011125136F000E5F
:102310001221146F1453D8B403D000019CEF11F0B4
:10232000000138500101135DD8A003D000019CEFDB
:1023300011F0000113C138F045EF12F02190219AFD
:10234000236A23C022F0450E01011F6F0001B2EC89
:102350000EF00152D8B449EF12F050EC11F00152D6
:10236000D8B449EF12F00101166BB90E156F0001D8
:10237000D0EC0EF00152D8B449EF12F00101166B07
:10238000020E156F00017CEC0FF00152D8B449EF3A
:1023900012F00101166B020E156F00017CEC0FF0BC
:1023A0000152D8B449EF12F050EC11F00152D8B4F8
:1023B00049EF12F00101266BA60E256F0001D7EC44
:1023C0000CF00152D8B449EF12F00101166B020E65
:1023D000156F00017CEC0FF00152D8B449EF12F0F8
:1023E0000101156BAB0E146F00010FEC0FF00152E1
:1023F000D8B449EF12F00101156BA70E146F00015C
:102400000FEC0FF00152D8B449EF12F01150A75D54
:10241000D8A41AEF12F01250A85DD8A41AEF12F047
:102420001350A95DD8A41AEF12F01450AA5DD8B4C5
:1024300026EF12F0A73D49EF12F0A83D49EF12F048
:10244000A93D49EF12F0AA3D49EF12F0223C49EFB5
:1024500012F0233C49EF12F0BA53D8A435EF12F032
:10246000B9511408D8B049EF12F0140EB95D01014A
:102470000F6F000E0001BA590101106F000110C169
:1024800012F10FC111F165EF11F0010E016E4DEF68
:1024900012F0000E016E4DEF12F0EAEF1EF0355013
:1024A0000101165DD8B003D0000168EF12F0000101
:1024B000D8A464EF12F001011551345CD8A003D008
:1024C000000168EF12F00001000E016E79EF12F0CA
:1024D00016C12FF115C12EF1BFEC0BF016C137F06C
:1024E00015C136F0396A39C038F0010E016E79EF46
:1024F00012F0000C0101186B196B1A6B000148EC0B
:1025000002F00101286B2A0E296F000143EC0CF048
:102510000152D8A490EF12F03852D8B4EAEF12F07A
:1025200038C017F10101175119251B6F000E1A2130
:102530001C6F16511C5DD8B003D00001B9EF12F02A
:102540000001D8A4ADEF12F0010115511B5DD8B008
:1025500003D00001B9EF12F00001010E0101186F64
:102560001951155D006E1A511659036E0050176F00
:102570000001396A01011751395CD8A003D000016C
:10258000D6EF12F000013A0E3924016E036AD8B07A
:10259000032A0150E96E03C0EAFFEFCF1BF11BC114
:1025A00020F19AEC02F0392ABAEF12F0010117512A
:1025B0003626000E372217511927000E1A231853FA
:1025C000D8A403D00001E8EF12F00001EAEF12F006
:1025D00081EF12F06650685CD8A0FCEF12F0D8A42E
:1025E000F7EF12F06750655CD8B0FCEF12F068C0EE
:1025F00003F06750FFEF12F066C003F06550656EA0
:1026000003C066F001011951016E1A51026E0001FA
:102610000AEF13F0000C2190236A23C022F0140E5D
:10262000B95D0101156F000E0001BA590101166F65
:10263000040E155D136F000E1659146F1150000132
:10264000A75DD8A492EF13F01250A85DD8A492EF22
:1026500013F01350A95DD8A492EF13F01450AA5DA3
:10266000D8A492EF13F0080E01011F6F0001B2EC25
:102670000EF00152D8B492EF13F001011F6B00016C
:10268000B2EC0EF00152D8B492EF13F0010E01013A
:10269000166F0F0E156F0001D0EC0EF00152D8B47A
:1026A00092EF13F037C012F136C011F114C116F1D8
:1026B00013C115F17CEC0FF012C116F111C115F127
:1026C0004FEC12F0223C92EF13F0233C92EF13F008
:1026D00030EC08F00101186B176B0001D0EC07F02B
:1026E000080E0101102710510708D8B003D00001CF
:1026F00080EF13F0000101010F2BD8B4102B000163
:1027000010C118F10FC117F1D0EC07F014C116F188
:1027100013C115F17AEC12F0EDEC08F0010E016E28
:1027200096EF13F0000E016E96EF13F0F3EF1EF02C
:102730003650345C006E37503558036E0050016ED1
:102740000350026EA4EF13F01CEF16F001011653B4
:10275000D8A403D00001D3EF13F00001010E010152
:10276000266F170E256F0001D7EC0CF00152D8B47C
:10277000D3EF13F015C103F001011451E96E00010C
:1027800003C0EAFF01011751EF5CD8B403D0000188
:10279000D3EF13F000010101142BD8B4152B160749
:1027A0000001A6EF13F001011653D8B403D00001C5
:1027B000DFEF13F00001010E016EE3EF13F0000EE6
:1027C000016EE3EF13F02CEF14F00101136B218A7B
:1027D000020E1F6F0001B2EC0EF00152D8B4A9EF47
:1027E00015F050EC11F00152D8B4A9EF15F0060E17
:1027F00001011F6F0001B2EC0EF00152D8B4A9EF35
:1028000015F00101166B0D0E156F00017CEC0FF039
:102810000152D8B4A9EF15F0010E0101156F090E90
:10282000146F00010FEC0FF00152D8B4A9EF15F0AE
:102830000101166B080E156F00017CEC0FF00152C0
:10284000D8B4A9EF15F00101156B2A0E146F060E0E
:10285000166F0001A6EF13F00152D8B4A9EF15F0DE
:102860000101166BCA0E156F00017CEC0FF00152CE
:10287000D8B4A9EF15F0219821942186630E0101A7
:102880001F6F0001B2EC0EF00152D8B4A9EF15F0A1
:10289000820E01011F6F0001B2EC0EF00152D8B49C
:1028A000A9EF15F0530E01011F6F0001B2EC0EF0FD
:1028B0000152D8B4A9EF15F0630E01011F6F00019A
:1028C000B2EC0EF00152D8B4A9EF15F0010E0101DF
:1028D000266F110E256F0001D7EC0CF00152D8B411
:1028E0000FEF15F00101113D01D003D000017CEF85
:1028F00014F000010FEF15F0010E0101266F120E0A
:10290000256F0001D7EC0CF00152D8B40FEF15F091
:10291000010111513508D8B403D00001A3EF14F020
:1029200000010101122D01D003D00001A3EF14F02A
:102930000001010E0101266F130E256F0001D7EC77
:102940000CF00DEF15F0010111513308D8B403D08C
:102950000001BFEF14F00001010112510408D8B4C6
:1029600003D00001BFEF14F00001010E0101156F4B
:10297000050E146F00010FEC0FF00DEF15F00101C3
:10298000112D01D003D00001E2EF14F0000101018C
:1029900012510408D8B403D00001E2EF14F0000192
:1029A000010113510508D8B403D00001E2EF14F07F
:1029B00000010101156B190E146F00010FEC0FF0EF
:1029C0000DEF15F0010111510308D8B403D0000137
:1029D00006EF15F00001010112510308D8A003D041
:1029E000000106EF15F00001010113510508D8B4EC
:1029F00003D0000106EF15F000010101156B1D0E5B
:102A0000146F00010FEC0FF00DEF15F00101166BC4
:102A1000000112C115F17CEC0FF066EF14F0E42D0B
:102A20003FEF15F0010113510208D8B403D00001A3
:102A30003FEF15F000019EC0FBF09FC0FCF0A0C06E
:102A4000FDF0A1C0FEF0A2C0FFF0A3C000F1AEC037
:102A500004F1ADC003F1ACC002F1ABC001F10CC197
:102A6000F6F00BC1F5F00AC1F4F009C1F3F0ECC0C7
:102A7000EAF0EBC0E9F0030EE46FA9EF15F0E451C2
:102A80000308D8B449EF15F0E4511308D8A4A9EF0E
:102A900015F0010113510508D8B403D00001A9EFC6
:102AA00015F00001A80EF06FC00EEF6F0101085382
:102AB000D8B403D000017FEF15F0000101010753E6
:102AC000D8B403D000017FEF15F0000101010651D9
:102AD000A808D8B003D000017FEF15F00001D8A4FA
:102AE0007BEF15F001010551BF08D8B003D00001FC
:102AF0007FEF15F0000106C1F0F005C1EFF0F053D3
:102B0000D8A48BEF15F0EF513B08D8A08BEF15F050
:102B1000F06B3C0EEF6FD890F031F26FEF31F16F48
:102B2000EE6BED6BF6C014F0F5C013F0F4C012F0CC
:102B3000F3C011F092EC05F00D0E9EA89DEF15F07C
:102B4000AD6E0A0E9EA8A2EF15F0AD6E300EE46FCA
:102B5000108EA0EF16F0236A23C022F0219E219050
:102B60000101166BB10E156F0001D0EC0EF0015291
:102B7000D8B4A4EF16F00101166BAF0E156F00016B
:102B8000D0EC0EF00152D8B4A4EF16F00101166B90
:102B9000E00E156F0001D0EC0EF00152D8B4A4EF96
:102BA00016F00101166BE20E156F0001D0EC0EF06D
:102BB0000152D8B4A4EF16F0E153D8A4E5EF15F014
:102BC000E0510708D8B0A4EF16F0E1510508D8A0ED
:102BD000A4EF16F0D8A4F2EF15F0E051C008D8A089
:102BE000A4EF16F0E251E311D8B42CEF16F0E1C0D7
:102BF00019F1E0C018F18EEC08F00101186BA70E76
:102C0000176F0001DBEC07F00101186BAB0E176FBB
:102C10000001DBEC07F00101286B000173EC02F00E
:102C2000110E0101286F000173EC02F037C010F1A2
:102C300036C00FF198EF13F002C012F101C011F18C
:102C400012C116F111C115F17CEC0FF010C116F193
:102C50000FC115F14FEC12F0E253D8A434EF16F087
:102C6000E353D8B43AEF16F0223CA4EF16F0233C1D
:102C7000A4EF16F00101146B000198EC0EF0236A2A
:102C800023C022F02190AF510708D8A467EF16F0B7
:102C9000B053D8A467EF16F00101186B1C0E176F24
:102CA00000011CEC07F0080EE05D0101116F000E41
:102CB0000001E1590101126F000112C116F111C1A9
:102CC00015F17AEC12F052EC09F0A0EF16F0AF51CA
:102CD0000D08D8A495EF16F0B053D8A495EF16F0D0
:102CE0002196219421880101186B1C0E176F000199
:102CF0001CEC07F00101116B0001010111510001F1
:102D000045EC00F00101112B1F6F0001CCEC02F02B
:102D10000C0E0101115DD8B403D000017DEF16F057
:102D2000000152EC09F0A0EF16F0AF514408D8A40E
:102D3000A0EF16F0B053D8A4A0EF16F0E5EF13F013
:102D4000010E016EA8EF16F0000E016EA8EF16F04E
:102D5000FCEF1EF017C11BF116C11AF11BC103F0E5
:102D600001011A51E96E000103C0EAFF0101185187
:102D7000EF24016E1951EC20036EE9060150EF6E4D
:102D8000000103C0ECFFE90617C11BF116C11AF1DF
:102D90001BC103F001011A51E96E000103C0EAFFF3
:102DA000ECCF1DF1ED52EFCF1CF101011D51195D6A
:102DB000D8B003D0000106EF17F00001D8A4EAEF65
:102DC00016F0010118511C5DD8A003D0000106EFD8
:102DD00017F0000117C11BF116C11AF1020E010113
:102DE0001A25016E000E1B21036E0150E96E0001D1
:102DF00003C0EAFFE92AEF50E906036EEF50006EC8
:102E0000010EEE26D8A006EF17F0EF2A000C080EF0
:102E1000016E0000040082969496040001012A3796
:102E20008298D8B09488D8A094989486000182A6FD
:102E300017EF17F0012E09EF17F004008296949611
:102E40000000948804000400948682A625EF17F001
:102E5000016A040082B801808296949682989498C0
:102E6000000C080E01012E6F000100C02FF19488A4
:102E70000400948682A63AEF17F082B8D88082A820
:102E8000D890013604009496829601012E2F01D02D
:102E900003D0000137EF17F09488040082982F5177
:102EA000D8A4949800010000948682A655EF17F0EC
:102EB000040082969496040082989498000C010E67
:102EC00001011B6F0001DF6B9488040094860400ED
:102ED00082989498040082969496A00E01012A6F1D
:102EE000000107EC17F001012A6B000107EC17F055
:102EF00001012A6B000107EC17F0949800009486FA
:102F000082A680EF17F00400000000000000948803
:102F10000400948804009486040082989498040025
:102F200082969496A10E01012A6F000107EC17F01A
:102F300001011C6B000101011C510608D8B003D02F
:102F40000001BBEF17F00001CC0E01011C25016E42
:102F5000036AD8B0032A0150E96E000103C0EAFFFA
:102F6000010E006E31EC17F00150EF6E01011C2BC9
:102F700000019BEF17F0CC3DC8EF17F0CD3DC8EF37
:102F800017F0006A31EC17F03AEF18F020EF18F064
:102F900001011B6B1C6B000101011C510B08D8B017
:102FA00003D0000119EF18F000011E0E01011C25CD
:102FB000016E010E036ED8B0032A0150E96E0001C4
:102FC00003C0EAFF01011C510A08D8A003D0000188
:102FD000EEEF17F00001000EEFEF17F0010E010108
:102FE0002C6F00012CC100F031EC17F001C01DF175
:102FF0001DC1EFFF070E01011C25CC0F016E036AF6
:10300000D8B0032A0150E96E000103C0EAFFEF5077
:1030100001011D5DD8A403D0000114EF18F00001D8
:10302000010E01011B6F000101011C2B0001CCEFFF
:1030300017F0D353D8A420EF18F001011B6B000147
:1030400094980000948682A623EF18F004000000F4
:103050000000000094880400DF2BDF516308D8A033
:103060003AEF18F001011B53D8B403D0000189EFE7
:1030700017F0000101011B53D8A403D0000144EF55
:1030800018F00001CD6BCC6B01011B53D8A403D009
:1030900000014FEF18F00001000E50EF18F0010E84
:1030A000016E53EF18F0000CD9513008D8B45EEF20
:1030B00018F0D9513108D8A467EF18F0D951300869
:1030C000D8B466EF18F0809467EF18F08084DA5176
:1030D0003008D8B471EF18F0DA513108D8A47AEF7B
:1030E00018F0DA513008D8B479EF18F080967AEFFA
:1030F00018F0808680EF19F094880400948604000C
:1031000082989498040082969496A00E01012A6FEA
:10311000000107EC17F0CFC01BF101011C6B00018F
:103120001BC12AF107EC17F0CEC02AF107EC17F00B
:1031300094980000948682A69BEF18F0040000008B
:103140000000000094880400948804009486040021
:1031500082989498040082969496A10E01012A6F99
:10316000000107EC17F0ABEF19F0100E006E036AC8
:1031700001011F6B000101011C331B33D8B003D0C8
:103180000001CAEF18F01D510326D8B01F2B1E51A5
:103190001F27000101011F33033202320132002ECA
:1031A00001D003D00001BBEF18F00001000C006A51
:1031B00031EC17F094980000948682A6DDEF18F0A9
:1031C0000400000000000000948804001CEF1BF0C5
:1031D000236A23C022F02252D8A4F2EF18F02190E3
:1031E000F3EF18F02180218A470E01011F6F0001C3
:1031F000B2EC0EF00152D8B420EF1BF0450E0101E5
:103200001F6F0001B2EC0EF00152D8B420EF1BF09A
:10321000540E01011F6F0001B2EC0EF00152D8B440
:1032200020EF1BF0200E01011F6F0001B2EC0EF029
:103230002F0E01011F6F0001B2EC0EF00101146BA3
:103240000001010114510B08D8B003D000015CEF5C
:1032500019F00001010E0101266F170E256F000104
:10326000D7EC0CF00152D8B45CEF19F00101175102
:103270002008D8A003D000015CEF19F00001010183
:1032800017513F08D8A403D000015CEF19F00001EA
:10329000070E01011425CC0F016E036AD8B0032A72
:1032A0000150E96E000103C0EAFF17C1EFFF010101
:1032B000142B000121EF19F0010114510B08D8B0B3
:1032C00003D0000178EF19F00001070E0101142569
:1032D000CC0F016E036AD8B0032A0150E96E0001D9
:1032E00003C0EAFFEF6A0101142B00015CEF19F043
:1032F0005FEC17F00152D8B482EF19F054EF18F0D8
:1033000085EF19F0D36B5FEC17F0236A23C022F02E
:103310002190686A280E676EDF53D8A4A9EF19F0D0
:1033200001011B6B000101011B51000155EC00F074
:1033300001011B2B1F6F0001CCEC02F01F0E0101DD
:103340001B5DD8B403D0000193EF19F000011CEF0E
:103350001BF07CEF18F0CC51CD11D8B41AEF1BF054
:10336000010E006E31EC17F001C015F1CC51D8B44C
:10337000CD07CC07D251010B000AD8B414EF1BF0D3
:10338000010115514008D8B403D0000114EF1BF01F
:103390000001CC51CD11D8B414EF1BF0010E006E1A
:1033A00031EC17F001C015F1CC51D8B4CD07CC07E2
:1033B000300E0101155D166F1651010B000AD8A4DD
:1033C00003D00001EAEF19F0000109C003F0085032
:1033D000EDEF19F00BC003F00A500101196F000165
:1033E00003C01AF10101162D01D003D00001FCEF3A
:1033F00019F0000105EF1AF0010116510208D8B4C6
:1034000003D0000163EF1AF000011AC11CF119C1C9
:103410001BF101011E6B190E1D6F0001B5EC18F0B8
:1034200002C01CF101C01BF101011C51060F186FF5
:1034300018510908D8A003D0000158EF1AF0000174
:10344000010118516208D8A003D0000131EF1AF031
:103450000001090E0101186F000118C114F14FEFAE
:103460001AF00101146B0001010114510908D8B0D0
:1034700003D000014FEF1AF00001010118510908B3
:10348000D8A003D000014FEF1AF000010A0E01018D
:10349000185F00010101142B000134EF1AF0300E07
:1034A000010114251B6F00011BC120F19AEC02F0F1
:1034B000300E010118251B6F00011BC120F19AEC91
:1034C00002F012EF1BF0010116510308D8A403D03B
:1034D000000175EF1AF00001010116510408D8B47B
:1034E00003D00001C1EF1AF000011AC11CF119C18B
:1034F0001BF101011E6B190E1D6F0001B5EC18F0D8
:1035000002C01CF101C01BF1D890036A01011C31FB
:10351000026E186F146B0001010114510908D8B034
:1035200003D00001A7EF1AF00001010118510908AA
:10353000D8A003D00001A7EF1AF000010A0E010184
:10354000185F00010101142B00018CEF1AF0300EFE
:10355000010114251B6F00011BC120F19AEC02F040
:103560002E0E0101206F00019AEC02F0300E0101D5
:1035700018251B6F00011BC120F19AEC02F012EF1D
:103580001BF0010116510508D8B403D00001DAEF91
:103590001AF0000180A4D0EF1AF0300ED1EF1AF02B
:1035A000310E01011B6F00011BC120F19AEC02F0EA
:1035B00012EF1BF0010116510608D8B403D0000128
:1035C000F3EF1AF0000180A6E9EF1AF0300EEAEFEF
:1035D0001AF0310E01011B6F00011BC120F19AECA2
:1035E00002F012EF1BF0010116510708D8B403D006
:1035F00000010CEF1BF0000181AA02EF1BF0300E5E
:1036000003EF1BF0310E01011B6F00011BC120F104
:103610009AEC02F012EF1BF03F0E0101206F000147
:103620009AEC02F018EF1BF015C120F19AEC02F0B1
:10363000ABEF19F0D7EF18F0010E016E24EF1BF07D
:10364000000E016E24EF1BF0DCEF1DF0080EA56FDD
:10365000A46B2190BBC022F0BCC023F0B0C018F115
:10366000AFC017F1D0EC07F0B2C018F1B1C017F13C
:10367000D0EC07F00101186BC20E176F000147EC88
:1036800007F00101186BBE0E176F000147EC07F041
:1036900001011551020B000AD8A403D0000155EF17
:1036A0001BF00001600E56EF1BF0500E0101166F6B
:1036B000000116C120F19AEC02F015C120F19AEC3C
:1036C00002F00B0E0101206F00019AEC02F0B80E1F
:1036D0000101206F00019AEC02F001011551020B6B
:1036E000000AD8A403D0000199EF1BF000010101EA
:1036F000186B280E176F00011CEC07F0020E010179
:10370000206F00019AEC02F0040E0101206F00010D
:103710009AEC02F0050E0101186FB40E176F00014C
:10372000D0EC07F00101186B240E176F00011CECA0
:1037300007F00101186B110E176F0001DBEC07F0A9
:103740000101186BAB0E176F0001DBEC07F00101F4
:10375000286B000173EC02F0060E0101286F0001D6
:1037600073EC02F0140EB95D0101166F000E00013A
:10377000BA590101176F000117C119F116C118F1EB
:103780008EEC08F022500101166F161F000116C1C1
:1037900020F19AEC02F023500101166F161F000170
:1037A00016C120F19AEC02F00101186B176B0001B1
:1037B000D0EC07F001011551020B000AD8A403D088
:1037C0000001EBEF1BF000010101186B2C0E176FCD
:1037D00000011CEC07F01FEF1CF048EC02F022C0C7
:1037E000BBF023C0BCF06652D8A4FFEF1BF06550BD
:1037F0002708D8A0FFEF1BF0666A280E656E01014E
:103800001451020B000AD8A403D000010DEF1CF0E4
:103810000001040E6526000E662266C0BAF065C07F
:10382000B9F00101186B176B00011CEC07F0060ED4
:10383000A66F30EC08F014C115F126EF1BF0EDEC8B
:1038400008F0ECEF1DF0100E0101116F2190236ABA
:10385000000123C022F00101166BB10E156F0001AB
:10386000D0EC0EF00152D8B4F0EF1DF00101166B50
:10387000AF0E156F0001D0EC0EF00152D8B4F0EF8E
:103880001DF00101156BBE0E146F00010FEC0FF05F
:103890000152D8B4F0EF1DF00101156BC20E146F88
:1038A00000010FEC0FF00152D8B4F0EF1DF0010E43
:1038B0000101266F0F0E256F0001D7EC0CF00152AD
:1038C000D8B4F0EF1DF0010E0101266F100E256F28
:1038D0000001D7EC0CF00152D8B4F0EF1DF001015B
:1038E000166B060E156F00017CEC0FF00152D8B478
:1038F000F0EF1DF0BA53D8A483EF1CF0B95127089C
:10390000D8B0F0EF1DF01150A75DD8A4F0EF1DF076
:103910001250A85DD8A4F0EF1DF01350A95DD8A4F3
:10392000F0EF1DF01450AA5DD8A4F0EF1DF0140EB6
:10393000B95D0101146F000E0001BA590101156F44
:10394000000115C119F114C118F18EEC08F0010144
:10395000186B110E176F0001DBEC07F00101186BFB
:10396000AB0E176F0001DBEC07F00101286B0001C3
:1039700073EC02F0060E0101286F000173EC02F0F7
:1039800001010F515008D8A003D00001E6EF1CF050
:103990000001B953D8A4D1EF1CF0BA53D8B4E6EF64
:1039A0001CF00101166B040E156F00017CEC0FF08A
:1039B0000152D8B4E6EF1CF0040EB95F000EBA5BFA
:1039C000100E01010F5F0001C0EF1CF0280EB95D61
:1039D000C86F000EBA59C96F37C013F136C012F163
:1039E000C9C016F1C8C015F17CEC0FF013C116F177
:1039F00012C115F14FEC12F0223CF0EF1DF0233C08
:103A0000F0EF1DF00101146B000198EC0EF00101C4
:103A1000186B280E176F00011CEC07F0BC6BBCC0C4
:103A2000BBF021962194218801011051040B000A5A
:103A3000D8A403D0000123EF1DF000010101116B98
:103A40000001E0EF1DF001011051020B000AD8A4A3
:103A500003D0000162EF1DF000010101176BBE0EE3
:103A6000166F196B010E186F0001AAEC16F0AF511A
:103A70000D08D8A440EF1DF0B053D8B449EF1DF0A5
:103A8000AF515008D8A45CEF1DF0B053D8A45CEF40
:103A90001DF0FF0EC36FFF0EC26FC751036EC651FC
:103AA000C62BD8B4C72BC46F03C0C5F0120E0101DA
:103AB000116F000160EF1DF0140E0101116F000184
:103AC000E0EF1DF001011051010B000AD8A403D052
:103AD000000181EF1DF00001010EC8250101146FE6
:103AE000000E0001C9210101156F176BBE0E166F84
:103AF000000115C119F114C118F1AAEC16F0E0EF9C
:103B00001DF001011051100B000AD8A403D00001D0
:103B1000E0EF1DF00001C851C911D8B49DEF1DF0B0
:103B20000101176BBE0E166F0001C9C019F1C8C0A4
:103B300018F1AAEC16F0A0EF1DF00101116B0001C5
:103B4000AF510D08D8A4CCEF1DF0B053D8A4CCEFE2
:103B50001DF0C253D8A4CCEF1DF0C353D8A4CCEFB2
:103B60001DF00101146B000101011451000145EC2D
:103B700000F00101142B1F6F0001CCEC02F00C0EC1
:103B80000101145DD8B403D00001B4EF1DF0110E93
:103B9000116F0001E0EF1DF0AF515008D8A4E0EF25
:103BA0001DF0B053D8A4E0EF1DF0C851C911D8B42E
:103BB000E0EF1DF0E8EF18F0110E0101116F0001A8
:103BC00001011153D8A403D00001ECEF1DF0000156
:103BD00011C114F1EDEF1BF0010E016EF4EF1DF0B9
:103BE000000E016EF4EF1DF005EF1FF0FF0E006EEA
:103BF000EA6A010EE96EEF6AE92A002EFBEF1DF07A
:103C0000206AEA6AE96AEA6AC20EE96E070EEF6E96
:103C1000056A066A076A1F0EAF6E220EAC6E900E22
:103C2000AB6E2A6A040E2B6EA30E2C6E2D6A2E6AC2
:103C30002F6ABD6BE46B01010D6B0E6B0001F29CF2
:103C4000F29EF2BE20EF1EF0809A8E0EC16E030E21
:103C5000926EC19CC250380B8109C26E000E016E7B
:103C6000C250C70B0110C26E826AFF0E946EFF0E27
:103C7000956E848084828484000E966EF19ECF6A55
:103C8000B50ECD6ECD9E0101126B0E0E116F146B31
:103C9000136B000197EC00F01086109A1098808446
:103CA00080862DEF01F021862184219801010F6B80
:103CB000000101010F5100016EEC00F001010F2B1A
:103CC0001F6F0001CCEC02F00D0E01010F5DD8B4A6
:103CD00003D0000159EF1EF0630E1F6F0001CCEC02
:103CE00002F00A0E01011F6F0001CCEC02F05BEF45
:103CF00003F00152D8B480EF1EF081BA9BEF1EF0A2
:103D000001010F6B000101010F5100017EEC00F079
:103D100001010F2B1F6F0001CCEC02F0070E010117
:103D20000F5DD8B403D0000183EF1EF0000174EFE3
:103D300003F077EF1EF087EC03F0146A136A126A3F
:103D4000116A92EC05F001010F6B000101010F51A6
:103D500000018BEC00F001010F2B1F6F0001CCEC78
:103D600002F0050E01010F5DD8B403D00001A6EFEB
:103D70001EF00D0E00019EA8BBEF1EF0AD6E0A0EE8
:103D80009EA8C0EF1EF0AD6E18EF06F0E4EF0AF04B
:103D900085EF0DF00152D8B407EF1FF00101146B4D
:103DA000000198EC0EF0A4510608D8A4DFEF1EF035
:103DB000A5510808D8A4DFEF1EF086EF10F0A45339
:103DC000D8A405EF1FF0A5510808D8A405EF1FF0EF
:103DD0009EEF11F00152D8B405EF1FF0A62DF5EFBC
:103DE0001EF00BEF13F005EF1FF0A6511108D8A439
:103DF000FEEF1EF0ABEF15F005EF1FF0A651060821
:103E0000D8A405EF1FF023EF1CF0356A346AC4EF25
:043E10001EF003009D
:027FFE00000081
:020000040030CA
:08000000FFFFFFFFFFFFFFFF00
:00000001FF
;PIC18C452
