:10000000830100308A0004282030840022302F2011
:10001000223084006F302F2083010730FD00FA303A
:10002000FC006F30840075303320A0308400D6305F
:100030002F2010308400113083172F2011308400BE
:10004000473083172F2090308400C63083172F202D
:1000500083010A128A15FF2D04068001840A040612
:10006000031D2C280034F5000A128A1141200A12BF
:100070008A118000840A04087506031900343428A4
:10008000FC00FD1B4A287D088A007C08FC0A031935
:10009000FD0A820083137D1883177C08FC0A840004
:1000A0000008080068340034503431343634573492
:1000B0006534623420342034763432342E34303493
:1000C0003234003420344E344934433420347034D4
:1000D0006B34743420346534723472342034003418
:1000E0000A344E3449344334203469346E3469342C
:1000F0007434203465347234723420340034203443
:100100004E344934433420347034743472342034DF
:100110006534723472342034003420344E3449341F
:10012000433420345234783420346F347634653498
:100130007234723475346E342034003443346F3486
:100140006E34663469346734203400340D340A3434
:1001500049345034203461346434643472343F346C
:10016000203400340D340A34533465347234693425
:1001700061346C3420346E3475346D343F34203443
:1001800000340D340A3458346D346F3464346534BB
:100190006D343F34203400344E346F3420346434B2
:1001A00061347934743469346D3465340D340A340F
:1001B000003420344E346F34743420347534703449
:1001C000643461347434653464340D340A34003476
:1001D00048345434543450342F342034323430348E
:1001E000303420344F344B340D340A340D340A3457
:1001F0004E346F34203457346534623420347034D4
:10020000613467346534733421340D340A34003476
:100214008312031320120317101083160313A10172
:10022400A00145300A168A15B5220A128A11031C48
:1002340025291C290A168A1533210A128A11031C3E
:10024400252924292629302929300A168A15D12559
:100254000A128A11031C30292F2931293D29023021
:10026400D800D9010A168A15FF240A128A11031C20
:100274003D293C293E294A290230D800D9010A16D1
:100284008A15FF240A128A11031C4A2949294B2979
:1002940054290A168A1533210A128A11031C542977
:1002A400532955295F2926300A168A1198210A12E2
:1002B4008A11031C5F295E2960296C290230D80049
:1002C400D9010A168A15FF240A128A11031C6C2903
:1002D4006B296D297729B8300A168A15A6250A12C2
:1002E4008A11031C7729762978298229A8300A16CD
:1002F4008A15A6250A128A11031C822981298329B9
:10030400A42983162F082B06031D94292E082A06D8
:10031400031D94292D082906031D94292C08280659
:10032400031D9429031D9729A129280A0319290AC1
:1003340003192A0A03192B0A031DA229A129A32997
:10034400A429A529AB298316200A031DAB29AA29B0
:10035400AC29B2298316210A031DB229B129B32974
:10036400BD29003083122A02153003192902031C07
:10037400BD29BC29BF29BE29CF29EC308312290706
:10038400D200FF30031800302A07D3000A168A115E
:10039400DA210A128A110314D1290310D129031373
:1003A4008312080083120313D501DA01DB01DC0197
:1003B400DD01DE01DF012B300A168A111D220A122B
:1003C4008A11D42A0D2A64000A168A157F220A1279
:1003D4008A110A30DE00DF012B300A168A111D2231
:1003E4000A128A11031CF729F8290D2A10308506F0
:0C03F4000515DA08031DFF29002A0A2A5B
:10040000D501DD01DC01DB0115300A168A15222138
:100410000A128A1183120313DA010A168A15D022EE
:100420000A128A11031C152A162AE5290A168A15AA
:100430007C250A128A11D400DA01DA0ADB08031DCE
:10044000222A232A3B2A5403031D272A282A2B2A3F
:10045000DB01DB0A3A2A831203135408043A031D12
:10046000322A332A3A2A06300A168A1522210A121B
:100470008A11D52AD42A83120313DC08031D412ACA
:10048000422A472A5408D700DC01DC0AD42A831206
:100490000313DD08031D4D2A4E2A642A5408F70071
:1004A000F801F709F8095708F500F601780876060B
:1004B000031D5C2A77087506031D5F2A602A632ADC
:1004C000DD01DD0AD703D42A8030831203135502DD
:1004D00003186B2A6C2AC02A55081F39D600D50A82
:1004E00056089C3E840083175408800056081F3A23
:1004F000031D7B2A7C2ABF2A0A168A151E220A128D
:100500008A11A0300A168A15DC230A128A110310F8
:10051000570C0A168A15DC230A128A115508E03E88
:10052000D900571C942A952A972A8030D90783121C
:10053000031359080A168A15DC230A128A11D801F6
:1005400020305802031CA52AA62AA72ABA2A8312F9
:10055000031358089C3E8400831700080A168A1566
:10056000DC230A128A11D80A20305802031CB92A47
:10057000BA2AA72A0A168A1507220A128A11D42A29
:1005800006300A168A1522210A128A11DE01DF01BD
:100590002B300A168A111D220A128A111030850684
:1005A000D501DD01DC01DB01E4290313831208001E
:1005B0000A168A158A210A128A1102300A168A1529
:1005C000AD260A128A11091102300A168A15AD26C3
:1005D0000A128A111F300A128A1500200A128A1183
:1005E000EC001F300A168A1578210A128A1102308F
:1005F0000A168A15AD260A128A1107300A128A15C0
:1006000000200A128A11F500F51B072B082B132B6B
:100610007030D6000030D7000A168A155E230A1201
:100620008A110310F62B213083120313EC000030E3
:100630000A168A1578210A128A1102300A168A15BA
:10064000AD260A128A114830EC000E300A168A15BF
:1006500078210A128A11EC010A300A168A157821CB
:100660000A128A11EC010B300A168A1578210A1237
:100670008A112030EC000C300A168A1578210A12F3
:100680008A110230EC000D300A168A1578210A1200
:100690008A114030EC0004300A168A1578210A12BB
:1006A0008A114630EC0001300A168A1578210A12A8
:1006B0008A115F30EC0002300A168A1578210A127E
:1006C0008A115E30EC0003300A168A1578210A126E
:1006D0008A11FF30EC0007300A168A1578210A12B9
:1006E0008A11EC010F300A168A1578210A128A1134
:1006F0006130EC0000300A168A1578210A128A113E
:1007000002300A168A15AD260A128A11D501063062
:100710005502031C8C2B8D2B8E2BA32B83120313C2
:1007200055086F3E840083130008EC00550A0A1632
:100730008A1578210A128A11D50A06305502031C3F
:10074000A22BA32B8E2B83120313D5010830550245
:10075000031CAB2BAC2BAD2BBF2BFF308312031331
:10076000EC005508083E0A168A1578210A128A11EB
:10077000D50A08305502031CBE2BBF2BAD2B4730CA
:1007800083120313EC0007300A168A1578210A1227
:100790008A1147308316A30020308312EC0000300A
:1007A0000A168A1578210A128A110430EC000C30DE
:1007B0000A168A1578210A128A11EC010D300A16E0
:1007C0008A1578210A128A11FF30EC0007300A16C8
:1007D0008A1578210A128A112230EC0000300A169C
:1007E0008A1578210A128A110314F62B0313831237
:1007F0000800103083120313D40020128316A101C5
:10080000A0012F300A168A15D1250A128A11031C5D
:10081000142C0A2C2D300A168A15D1250A128A1199
:10082000031C142C132C152C1F2CC0300A168A15EF
:10083000A6250A128A11031C1F2C1E2C202C2A2CE0
:10084000B4300A168A15A6250A128A11031C2A2C0E
:10085000292C2B2C352C52300A168A1198210A1279
:100860008A11031C352C342C362C402C53300A169C
:100870008A1198210A128A11031C402C3F2C412C0A
:100880004D2C0630D800D9010A168A15FF240A1209
:100890008A11031C4D2C4C2C4E2C572C00302A0254
:1008A000283003192902031C572C562C582C6D2C68
:1008B00083162F082B06031D692C2E082A06031DFC
:1008C000692C2D082906031D692C2C082806031DF8
:1008D000692C031D6D2C6C2C6F2C6E2CB52DEC30FF
:1008E00083122907D900FF30031800302A07DA00E5
:1008F0000A168A1544210A128A11AC300A168A1582
:1009000054260A128A11B8300A168A1554260A1279
:100910008A1100300A168A159D270A128A1106309C
:100920000A168A159D270A128A119E2CFC30831202
:100930000313A907031CAA03F030D2075130831216
:10094000031352020318A52CAA2C2A082904031DFC
:10095000AB2CAA2CB72CAC2C0430D800D9010A1629
:100960008A15FF240A128A110318B82CB72CBA2C46
:10097000B92C962CD830831203132907B100FF300D
:10098000031800302A07B20003171B080313D50011
:1009900003171C080313D6003108D8003208D90009
:1009A0000A168A15FF240A128A115508D80056081B
:1009B000D9000A168A1528250A128A118316200AD8
:1009C000031DE82CE32C210A031DE82CE72CEA2C5C
:1009D000E92CB52D00300A168A158B240A128A11CB
:1009E0002830D900DA010A168A15DA260A128A1185
:1009F000031792019101031321122111A115531D17
:100A0000022D032D052DD401A62D83120313D31C13
:100A10000A2D0B2D422DD701D70AD801C0300A1656
:100A20008A15FC250A128A112D080D3A2E04031D81
:100A30001A2D202D2D08503A2E04031D212D202D76
:100A4000232D222D3D2DFF308316B400FF30B5003D
:100A500083120317150883160313B60083120317B6
:100A6000160883160313B70083120317950A031998
:100A7000960A12300313D400412D1430831203134D
:100A8000D400A62D83120313531C472D482D572D38
:100A900001303107D7000030031801303207D80089
:100AA000C0300A168A15FC250A128A11A62D831257
:100AB0000313531E5C2D5D2DA62D3208310403193E
:100AC000622D632D6E2D3108D7003208D800C0305A
:100AD0000A168A15FC250A128A11712D8312031336
:100AE000D401831203132D080D3A2E04031D802D0B
:100AF000792D831635083404031D802D7F2D822D1A
:100B0000812D8F2DCC308312DE000030DF000A16DD
:100B10008A157D230A128A111130D400A62D831262
:100B200003132D08503A2E04031D9D2D972D3208D6
:100B3000310403199D2D9C2D9F2D9E2DA62D0A124B
:100B40008A11BA250A128A111130D40083120313B4
:100B5000D4080319AC2DAD2DB32D54080A168A11F3
:100B6000D7240A128A110314B72D0310B72D0313CB
:100B70008312080083160313A101A001831220121F
:100B80008316201CC52D8312201683120317101400
:100B900047300A168A15B5220A128A11031CDB2D6A
:100BA000D12D45300A168A15B5220A128A11031C66
:100BB000DB2DDA2DDC2DE62D54300A168A15B522F0
:100BC0000A128A11031CE62DE52DE82DE72DBE2F14
:100BD00020300A168A15B5220A128A112F300A16F9
:100BE0008A15B5220A128A11D701002E8312031327
:100BF0005708073E3F3E840083135A088000D70AF7
:100C00000C30831203135702031C072E102E5A3088
:100C10000A168A1198210A128A110318112E102E11
:100C2000172E122E21305A020318182E172E1E2EA0
:100C3000192E5A083F3A031D1F2E1E2E212E202E3C
:100C4000F62D0C30831203135702031C282E292E75
:100C50002A2E392E831203135708073E3F3E840085
:100C600083138001D70A0C305702031C382E392E0B
:100C70002A2E0A128A15F9220A128A11031C412E01
:100C8000422E482E0A168A150A270A128A11502E59
:100C900083120313C6010A128A15F9220A128A1155
:100CA00083160313A101A00183122012283083169A
:100CB00003179A009B0183120313A508031D612EDD
:100CC000622E6C2EE830DE000030DF000A168A1536
:100CD0007D230A128A11BC2F0A168A1552250A1280
:100CE0008A11AF2F01300A168A11DD230A128A11E8
:100CF000D800BF080319C003BF03451C862E802EF1
:100D00005808403A031D862E852E872E8D2E4008CA
:100D10003F0403198D2E8C2E8F2E8E2EA72F01307F
:100D20000A168A11DD230A128A11D800BF08031996
:100D3000C003BF035808D03ED9005918AE2EA02ECC
:100D4000831603171508F6001408F500AF2E831656
:100D500003171308F6001208F500AF2EA72E75082A
:100D600083120313DC007608DD005903031DB92E3E
:100D7000BE2E5908023A031DBF2EBE2EC12EC02E14
:100D80000C2F1930F7000030F8005D08F6005C0801
:100D9000F5000A168A15B0210A128A117A08063E51
:100DA000DB000A305B02031CD62ED72E022F6330E5
:100DB0005B02031CDC2EDD2EE12E0930DB00D700A8
:100DC000F92E83120313D701EA2EF6308312031390
:100DD000DB07D70A0A30831203135702031CF12ED4
:100DE000F62E0A305B020318F72EF62EF92EF82E97
:100DF000E52E831203135708303E0A168A11E220AB
:100E00000A128A11831203135B08303E0A168A11F4
:100E1000E2200A128A11A62F831203135908033AFB
:100E2000031D132F182F5908043A031D192F182FCB
:100E30001B2F1A2F5E2F1930F7000030F8005D08C5
:100E4000F6005C08F5000A168A15B0210A128A110C
:100E50000930F5000310FA0CF90CF50B2A2F79086C
:100E6000DB00D701382FF63083120313DB07D70AD4
:100E70000A30831203135702031C3F2F442F0A30FA
:100E80005B020318452F442F472F462F332F831221
:100E900003135708303E0A168A11E2200A128A11FB
:100EA0002E300A168A11E2200A128A115B08303E9F
:100EB0000A168A11E2200A128A11A62F831203133E
:100EC0005908053A031D652F662F742F05196D2FDC
:100ED000692F31306E2F30306E2F6B2F0A168A112A
:100EE000E2200A128A11A62F831203135908063A28
:100EF000031D7B2F7C2F8A2F8519832F7F2F313065
:100F0000842F3030842F812F0A168A11E2200A1292
:100F10008A11A62F831203135908073A031D912F34
:100F2000922FA02F861A992F952F31309A2F30307B
:100F30009A2F972F0A168A11E2200A128A11A62FD9
:100F40003F300A168A11E2200A128A11AF2F83124B
:100F5000031358080A168A11E2200A128A11831212
:100F6000031340083F04031DB62FB72F722E0A1635
:100F70008A15E6200A128A110314C02F0310C02F0D
:100F8000031383120800FB01F901FA0177087804C2
:100F9000031900341F30FB040310FB0AF70DF80D92
:100FA000031CCD2FF80CF70C78087602031DDA2FFE
:100FB00077087502031CE22F7708F5027808031CF6
:100FC000780AF602F90DFA0DFB0BFB1AD22FFB1F64
:100FD000EE2FF909F90A0319FA03FA097908F7005B
:100FE0007A08F8007B1F0034F509F50A0319F603A7
:100FF000F609003400340434A334003400340034DF
:1010000083120313EE00FF308316880083126E08EC
:10101000860009100808ED0009146D080F28031355
:1010200083120800B23083120313D6000030D700B9
:101030000A168A155E230A128A150A168A154C2288
:101040000A128A15D401D5010A128A1578240A12C7
:101050008A15F500F6017608750403193028312841
:101060003F2852300A168A1130240A128A15031CAE
:101070003A283B283F285308F3005208F400A630D2
:1010800083120313D6000030D7000A168A155E2398
:101090000A128A150A168A154C220A128A15D401D8
:1010A000D5010A128A1578240A128A15AC300A165C
:1010B0008A11B7260A128A15031C5F286028742833
:1010C0000A128A1584200A128A15C130D60000300F
:1010D000D7000A168A155E230A128A150A128A1187
:1010E000D4210A128A157F28D93083120313D6001F
:1010F0000030D7000A168A155E230A128A150314D7
:101100008128031383120800831203137308D40089
:1011100000300A168A15FC230A128A158F288316B6
:1011200003178C18942895288F28831203137408AA
:10113000D40001300A168A15FC230A128A15A02849
:10114000831603178C18A528A628A0288316031336
:101150002F088312D40002300A168A15FC230A12C3
:101160008A15B228831603178C18B728B828B22816
:10117000831603132E088312D40003300A168A152F
:10118000FC230A128A15C428831603178C18C92851
:10119000CA28C428831603132D088312D4000430F0
:1011A0000A168A15FC230A128A15D62883160317F5
:1011B0008C18DB28DC28D628831603132C0883120E
:1011C000D40005300A168A15FC230A128A15E8286D
:1011D000831603178C18ED28EE28E8280A168A15BE
:1011E0001E240A128A15D40006300A168A15FC231A
:1011F0000A128A15FB28831603178C180029012967
:10120000FB2803138312080083120313DB01DC01A4
:10121000DD010A168A111C210A128A155929831226
:10122000031713080313DA005A08F500F6015C08E7
:10123000F5070318F60A5D08F60759087602031D3C
:10124000232958087502031C262927292C29DB018C
:10125000DB0A5C085802DA008312031794013E2966
:101260008312031714081D3E8400831700080A1612
:101270008A11E2200A128A150317940A83120313B3
:101280005A0803171402031C4629472930298312E0
:1012900003135A0803179B0703189C0A03135A08E1
:1012A000DC070318DD0ADB080319572958295929D7
:1012B00072292A3083120313E40000300A128A15BF
:1012C00043220A128A15F500F60176087504031DFB
:1012D00070296A2903179308031D70296F29722941
:1012E00071290F29831603171B081702031D7A297A
:1012F0001A081602031C89297D291708F60016080A
:10130000F5008A29831603171B08F6001A08F50052
:101310008A29822975088316031796007608970094
:10132000831203135D08F6005C08F5009729031388
:10133000831208008312031320120030201A013098
:101340008316A100A000E83083122907D600FF30E1
:10135000031800302A07D70083162F082B06031D19
:10136000BD292E082A06031DBD292D082906031DA7
:10137000BD292C082806031DBD29031DCA29C02923
:1013800008300A168A15B5220A128A15031CCA29C2
:10139000C929CB29D52900300A168A15B5220A1287
:1013A0008A15031CD529D429D629E02952300A16DA
:1013B0008A15D1250A128A15031CE029DF29E229A2
:1013C000E1293E2A831203171B080313D4000317D5
:1013D0001C080313D5005608D8005708D9000A1670
:1013E0008A15FF240A128A155408D8005508D90016
:1013F0000A168A1528250A128A158316200A031D43
:10140000072A022A210A031D072A062A092A082A6E
:101410003E2A0A168A11E8250A128A15D901DA012C
:101420000A168A1555210A128A150830D307083082
:10143000530200300319520203181F2A202A232ABC
:10144000D20A0319D30A831203135208D90053088E
:10145000DA000A168A1555210A128A155608D8008C
:101460005708D9000A128A1504210A128A150A1689
:101470008A118F270A128A150314402A0310402A62
:1014800003138312080083120313E90003171408DF
:101490000313690203184D2A4E2A742A6908E500CD
:1014A000632A8312031714081D3E84008317000863
:1014B000F500031365081D3E84008317750880003E
:1014C000E50A0317940A8312031713081402031C76
:1014D0006A2A6B2A512A83120313650803179300A3
:1014E0000313690803179400831203171A08F60000
:1014F0001908F5001B08F502031CF6031C08F60288
:1015000075080313E7007608E8006408F500F601A3
:1015100076086802031D8E2A75086702031C9C2A40
:10152000912A6408F500F6019D2A831203136808C6
:10153000F6006708F5009D2A952A750883120313A3
:10154000E4006408F500F6012A30F7000030F800E6
:1015500003171308F702031CF8037808803AF90010
:101560007608803A7902031DB72A75087702031CB2
:10157000CB2ABA2A831203136408F500F601CC2A99
:101580002A30F5000030F600831203171308F50225
:10159000031CF603CC2AC02A750883120313E40047
:1015A000E600E6080319D52AD62AF22A831603177D
:1015B00090080319DC2ADD2AEA2A83121B08031388
:1015C000EA0003171C080313EB000A168A11012016
:1015D0000A128A158312031364080A168A11A322B9
:1015E0000A128A15831203136408F62A031383125E
:1015F000080083120313DE01DE0AA5010A168A150C
:101600001E220A128A15A0300A168A15DC230A1235
:101610008A1500300A168A15DC230A128A15003052
:101620000A168A15DC230A128A150A168A15072259
:101630000A128A150A168A151E220A128A15A13064
:101640000A168A15DC230A128A15DF0107305F02A9
:10165000031C2B2B2C2B2D2B412B831203135F08E8
:101660003F3E8400831301300A168A11DD230A12DB
:101670008A158000DF0A07305F02031C402B412BD4
:101680002D2B831203133F0A031D4C2B472B400ABB
:10169000031D4C2B4B2B4E2B4D2B562B00300A167B
:1016A0008A11DD230A128A15A32B912B83120313AF
:1016B000DE01DF010C305F02031C5F2B602B612B0E
:1016C000892B831203135F08613E840083130B3060
:1016D0005F020030031C01300A168A11DD230A1252
:1016E0008A15E00080005F08073E3F3E84008313B8
:1016F0000008600603197D2B7E2B802BDE01DE0A9D
:1017000083120313DF0A0C305F02031C882B892B22
:10171000612B83120313C608031D8F2B902B912B73
:10172000DE010A168A1507220A128A15A50A6430F4
:101730002502031C9C2BA02BDE08031DA12BA02B34
:10174000A32BA22B1A2B83120313DE080319A92B38
:10175000AA2BAC2BBF01C00183120313DE080310B8
:1017600003190314B32B03138312080000300A1665
:101770008A15B5220A128A15031CC92BBF2B01300A
:101780000A168A15B5220A128A15031CC92BC82B02
:10179000CA2BD42B08300A168A15B5220A128A15CC
:1017A000031CD42BD32BD52BDF2B00300A168A1524
:1017B000B5220A128A15031CDF2BDE2BE02BEA2B45
:1017C00006300A168A15B5220A128A15031CEA2B5E
:1017D000E92BEB2BF52B04300A168A15B5220A12D9
:1017E0008A15031CF52BF42BF62B002C52300A160D
:1017F0008A15D1250A128A15031C002CFF2B012CF7
:10180000102C0630D500D60133300A168A11A920D3
:101810000A128A15760875040319102C0F2C112C46
:101820001B2CB8300A168A15A6250A128A15031C25
:101830001B2C1A2C1C2C282C0630D800D9010A1677
:101840008A15FF240A128A15031C282C272C292C00
:10185000332CAC300A168A1160220A128A15031C36
:10186000332C322C352C342C732C52035304031D8F
:101870003A2C3B2C442C02300A168A1123270A12D8
:101880008A150314752C732C831203135208023A21
:101890005304031D4C2C4D2C732C83163F083B0620
:1018A000031D5E2C3E083A06031D5E2C3D083906DA
:1018B000031D5E2C3C083806031D5E2C031D612CA5
:1018C000622C702C33308312D4008030D500063067
:1018D000D600D70139300A168A15D8240A128A157B
:1018E0008312031320140310752C031383120800B2
:1018F00083120313D601DE01DF0157300A168A1165
:101900001D220A128A15262DA82C831203135508AE
:10191000540403199A2C8C2C5408DE005508DF005F
:1019200057300A168A111D220A128A15031C9A2C96
:10193000992C9C2C9B2CA32C56081D3E84008317AD
:1019400080015608372D0A168A118B230A128A1530
:101950000A168A15D0220A128A15031CB02CB12C43
:10196000852C0A168A157C250A128A15D900203082
:1019700059020318BC2CC12C59087F3A031DC22CF4
:10198000C12CC42CC32C0B2D59081B3A031DC92C88
:10199000CA2CCD2CD601272D0A2D831203135908EA
:1019A0000D3A031DD42CD52CE32C55085404031DEB
:1019B000DA2CDE2CD6080319DF2CDE2CE12CE02CEF
:1019C000E22C272D0A2D831203135908083A031D10
:1019D000EA2CEF2C59087F3A031DF02CEF2CF22C47
:1019E000F12C0A2DD6080319F62CF72C0A2DD60354
:1019F00008300A168A1522210A128A1520300A1682
:101A00008A1522210A128A1508300A168A152221FF
:101A10000A128A15262D2930831203135602031841
:101A2000122D132D262D56081D3E840083175908AC
:101A30008000D60A55085404031D1F2D202D262D85
:101A400059080A168A1522210A128A15842C831233
:101A5000031356081D3E84008317800156080317A0
:101A600099009A011908930003135608372D0313A0
:101A70008312080083120313D80000308316D400A9
:101A80000830D500831220120317110883160313A0
:101A9000A00083120317120883160313A1008312F8
:101AA0002D08D9002E08DA000A168A1555210A12C7
:101AB0008A152F08D9003008DA000A168A15552130
:101AC0000A128A15B4300A168A1528260A128A15AF
:101AD000C0300A168A1528260A128A15D818752DBC
:101AE000712D5030762D6030762D732D0A168A11A7
:101AF000E2200A128A1558080A168A11E2200A12F0
:101B00008A150B300A168A11E2200A128A15B8309B
:101B10000A168A11E2200A128A15D81C902D912DDE
:101B2000B62D2830D900DA010A168A15DA260A12EB
:101B30008A1502300A168A11E2200A128A15043028
:101B40000A168A11E2200A128A15B430D90005302B
:101B5000DA000A168A1555210A128A152430D9008E
:101B6000DA010A168A15DA260A128A15AC300A1624
:101B70008A1554260A128A15B8300A168A15542670
:101B80000A128A1500300A168A159D270A128A152C
:101B900006300A168A159D270A128A15EC30290785
:101BA000D900FF30031800302A07DA000A168A1518
:101BB00044210A128A15831620090A168A11E22086
:101BC0000A128A15831621090A168A11E2200A12BE
:101BD0008A15D901DA010A168A1555210A128A15C1
:101BE000D81CF32DF42DFC2D2C30D900DA010A1667
:101BF0008A15DA260A128A150313831208008B133A
:101C00000B138312031385128E3083169F0003304B
:101C1000850083121F08383981389F00C7309F051F
:101C20008701FF3083168700FF3088008312091474
:101C300089140915831689010A168A15F4200A12D7
:101C40008A150A168A159D210A128A158316811390
:101C500083128F01353090009013DE01DF012B30AD
:101C60000A168A111D220A128A15A0152011A01029
:101C7000051585150A168A112B250A128A152116B3
:101C80002115A1115430DE000030DF000A168A153C
:101C90007D230A128A155230DE000030DF000A165A
:101CA0008A157D230A128A150A300A168A1183249E
:101CB0000A128A156B2E9E3083120313DE00003049
:101CC000DF000A168A157D230A128A150A128A1560
:101CD00012200A128A150A168A1156210A128A152A
:101CE000031C772E732E861E772E762E792E782E55
:101CF0005B2E0A128A11D8220A128A15A1140A3000
:101D0000D200D301D30AD401D40A6430D500BC3048
:101D10000A168A1508230A128A15FF30D200D30149
:101D2000D401D501B0300A168A1508230A128A1583
:101D30000A168A11EC220A128A150530D6000130E3
:101D4000D7000A168A155E230A128A15FA2E0A1679
:101D50008A118B230A128A150A128A15FE260A1284
:101D60008A15031CB42EB52EFA2E00300A168A15D9
:101D70008B240A128A1583165508083A063003196F
:101D80005406031DC42EC52ECA2E0A128A15B62368
:101D90000A128A15831603135508083A5404031DC2
:101DA000DB2ED22E0A128A110A210A128A15031C6E
:101DB000DB2EDA2EDD2EDC2EF62E83122603031DFB
:101DC000E22EE32EE92E0A128A159A210A128A15AA
:101DD000F62E831203132608063A031DF02EF12E69
:101DE000F62E0A128A11F9230A128A158312031792
:101DF00099019A01A72E0A128A1104288312031747
:101E000099019A0107300A128A1500200A128A15D0
:101E1000F500751E0C2F0D2F1B2F8D30D6000030B6
:101E2000D7000A168A155E230A128A150A128A1129
:101E3000D8220A128A15603083120313EC00003096
:101E40000A168A1578210A128A1507300A128A158D
:101E500000200A128A15D200D3012030EC00003095
:101E60000A168A1578210A128A1583162308F500A6
:101E7000F601831253087606031D402F520875069B
:101E80000319432F442FF52F83162308A20023089C
:101E900083120317980097010A168A154C220A121A
:101EA0008A1512300A168A11A3220A128A151230D4
:101EB000D500D601C4300A168A11A9200A128A1543
:101EC0001230031797070318980A0A168A154C222E
:101ED0000A128A158316460883120317990083167F
:101EE00003134708831203179A0083160313441C35
:101EF000852F7A2F0030831203171A0240300319FE
:101F00001902031C852F842F862F912F05308312F1
:101F100003171A02EF30031919020318912F902F9B
:101F2000932F922FAD2FEE30831203179907031CC6
:101F30009A038316031354088312D5008316550899
:101F40008312D6000A168A1565220A128A157508A8
:101F50008316D4007608D500BB2F8312031799018E
:101F60009A0162300313D6000030D7000A168A1592
:101F70005E230A128A154630831603134502031C9A
:101F8000C82FC22F5F3045020318C82FC72FCA2F92
:101F9000C92FCD2F4508A300E42F83120317990101
:101FA0009A017F300313D6000030D7000A168A1535
:101FB0005E230A128A158316230A0A168A15242319
:101FC0000A128A158316A3008316031323030A1625
:101FD0008A1524230A128A15D4005408EC00033011
:101FE0000A168A1578210A128A15831203171A080D
:101FF00019040310031D0314FD2F0313831208009B
:10200200831203171808F6001708F5007508031362
:10201200EA070318EB0A7608EB075F306B02003021
:1020220003196A02031C162817281928E730EB0740
:10203200403083120313EC0007300A168A15782108
:102042000A168A116A08EC0008300A168A157821E5
:102052000A168A116B08EC0009300A168A157821D3
:102062000A168A11831603179001031383120800BC
:1020720083120313D4000230540203184528412866
:102082000030462840304628432883120313D200EA
:102092005208803E0A168A153B270A168A11D30176
:1020A20010305302031C5628572858286528203020
:1020B2000A168A1565240A168A11D30A10305302A9
:1020C200031C642865285828831203135208803E93
:1020D2000A168A153B270A168A110313831208006F
:1020E20083120313D20052080A168A1580260A1692
:1020F2008A11031C7D287E289628520884008313A7
:102102000008F500840A0008F600840A0008F700B7
:10211200840A0008F80075088316B8007608B9002A
:102122007708BA007808BB00A028831603133C087E
:10213200B8003D08B9003E08BA003F08BB000130B4
:102142000A168A1123270A168A110313831208001A
:1021520083120313D801D901DA00C12883120313B1
:10216200DA080319B528B628BC285A088400831354
:1021720057088000DA0A83120313D80A0319D90A0E
:102182008312031356085902031DC9285508580221
:10219200031CCC28D52857300A168A1198210A1612
:1021A2008A110318D628D528D828D728AF28831211
:1021B20003135908F6005808F500DF2803138312A9
:1021C200080083120313E2000530831603171B0273
:1021D200EA3003191A02031CEF28F028F228031030
:1021E20019292030831603171102031CF928FA2833
:1021F200FF280A168A111C210A168A118316031750
:1022020011089C3E84008317831203136208800026
:1022120083160317910A9A0A03199B0A831203135E
:1022220062080A168A159D270A168A1103141929AB
:102232000313831208008316031791080319222936
:10224200232943299008031D272928293B291B08F4
:10225200F6001A08F5001108F502031CF6037508CA
:1022620083120313E3007608E4000A168A15B124E8
:102272000A168A110A168A114C260A168A11831620
:1022820003179101831603171B081702031D4B291D
:102292001A08160203184E294F2953291A089600C4
:1022A2001B08970003138312080000300A168A15D0
:1022B200DA200A168A11F30001300A168A15DA208A
:1022C2000A168A11F40002300A168A15DA200A1652
:1022D2008A118316AF0003300A168A15DA200A160D
:1022E2008A118316AE0004300A168A15DA200A16FD
:1022F2008A118316AD0005300A168A15DA200A16ED
:102302008A118316AC0006300A168A15DA200A16DC
:102312008A11D2000A168A151E240A168A1152063A
:10232200031003190314952903138312080083125F
:102332000313E300031713081402031CA129A229A3
:10234200AB292A300313E4000A300A128A15432209
:102352000A168A118312031713081402031CB229E6
:10236200B329B5290310D7298312031714081D3E78
:102372008400831700080313E2000317940A9B0AE0
:1023820003199C0A1018C629C729CE29031362080B
:102392000A168A159D270A168A11831203136308E7
:1023A20084008313620880000314D7290313831265
:1023B2000800831203171C08F6001B08F50003131C
:1023C2005208F5070318F60A5308F6077508D400F1
:1023D2007608D50003171A0803135502031DF529C1
:1023E20003171908031354020318F829F929002ABC
:0E23F2005408031799000313550803179A00A7
:10240000831203171308F500F6011408031352078B
:10241000D40053080318530AD50076085502031D4B
:10242000132A750854020318162A172A1A2A540860
:102430000317930003138312080083120313E200AF
:102440006208840083130008F500840A0008F6007F
:102450007508E3007608E400831603171908F600F0
:102460001808F500031383126308F502031CF60332
:102470006408F6027508E0007608E1005F085E0473
:10248000031D432A4C2A5F086102031D492A5E0886
:102490006002031C4D2A4C2A4F2A4E2A5B2A6208EE
:1024A000840083138316031718088000840A190810
:1024B000800003145D2A03105D2A031383120800B1
:1024C00083120313D4005408033E840083130008CE
:1024D0000A168A15B5220A168A11031C7E2A702A4A
:1024E0005408023E8400831300080A168A15B52298
:1024F0000A168A11031C7E2A7D2A7F2A8C2A540AF6
:102500008400831300080A168A15B5220A168A1158
:10251000031C8C2A8B2A8D2A9A2A54088400831340
:1025200000080A168A15B5220A168A11031C9A2A6F
:10253000992A9C2A9B2A9E2A0314A02A0310A02AC7
:1025400003138312080083120313EA00EA08031D31
:10255000AA2AAB2AAC2AE92A403083120313EC00E2
:1025600007300A168A1578210A168A116A08EC00C3
:102570000A300A168A1578210A168A11EC010B30E6
:102580000A168A1578210A168A110A30EC000030E2
:102590000A168A1578210A168A1110308600FF3033
:1025A00083168800E22A8312031309100317130805
:1025B0001D3E840083170313080880000317930A45
:1025C0000313091483120313EA036A0FE82AE92AA2
:1025D000D32A031383120800831203132116211533
:1025E000A1110A300A168A1183240A168A110230B0
:1025F0000A168A1139200A168A1183162F088312A7
:10260000D200D3010A168A113A230A168A112E30F3
:102610000A168A1183240A168A1183162E08831239
:10262000D200D3010A168A113A230A168A112E30D3
:102630000A168A1183240A168A1183162D0883121A
:10264000D200D3010A168A113A230A168A112E30B3
:102650000A168A1183240A168A1183162C088312FB
:10266000D200D3010A168A113A230A168A110313DB
:102670008312080083120313D50183120313550834
:10268000563E840083130A30F7000030F8005308E8
:10269000F6005208F5000A128A11C3270A168A1199
:1026A0007508303E8000D50A0A30F7000030F80087
:1026B0005208F5005308F6000A128A11C3270A16B9
:1026C0008A117908D2007A08D30053085204031DF6
:1026D0006A2B6B2B3D2B831203135508D4007D2BE3
:1026E00083120313D5035508563E84008313000854
:1026F0000A168A1183240A168A1183120313D50835
:10270000031D832B842B702B831203135408882BF7
:1027100003138312080064000A168A157F220A1622
:102720008A11031C942B952BC62BA019982B9A2B3E
:1027300001309B2B0030F500861A9F2BA12B013016
:10274000A22B0030F506031DA62BA72BAC2BA01443
:10275000A01DAB2BA010B02B831203130830A006D2
:1027600083160317181CB52BB62BC62B8312031325
:10277000201FBB2BBC2BBE2B0430850683120313FA
:10278000A01FC32BC42BC62B083085060A168A153A
:102790006C270A168A110A30DE00DF012B300A1678
:1027A0008A111D220A168A11031CD72BD82BDA2B6B
:1027B0001030850603138312080083120313EE0002
:1027C000E12B8316031311081F39F500F6010030C1
:1027D00014190130F50476087504031DF02BF12B54
:1027E000E12B831603139115F52B831603131108A0
:1027F0001F39F500F601003014190130F504760890
:102800007504031D042C052CF52B831203131308E8
:10281000ED000A2C8316031311081F39F500F60189
:10282000003014190130F50476087504031D192CC5
:102830001A2C0A2C83120313EE080319202C212CC6
:10284000242C83169112272C8316031391168316BA
:102850000313111683126D082D2C03138312080025
:1028600083120313DD01DE01E001E100672C30304B
:10287000831203135F02031C442C3E2C3A305F0288
:102880000318442C432C462C452C5E2CE00AD030F7
:10289000DF070A30F7000030F8005E08F6005D0838
:1028A000F5000A168A15B0210A168A115F08790701
:1028B000DD007A0803187A0ADE00672C83120313FE
:1028C0005F080A168A1541240A168A11712C5F3096
:1028D0000A168A1198210A168A110318702C712C75
:1028E000372C831203136108840083135D08800072
:1028F000840A5E088000E0080310031D0314802C86
:1029000003138312080083120313E100211D892C95
:102910008A2CAE2C61080D3A031D8F2C902C972C1D
:1029200080300A168A153B270A168A11AE2C8312AC
:10293000031361080A3A031D9E2C9F2CA62CC0305D
:102940000A168A153B270A168A11AE2C8312031326
:1029500061080A168A1565240A168A118312031360
:10296000211EB32CB42CC82C61080A3A031DB92CC3
:10297000BA2CC02C0D300A168A1522210A168A118B
:102980008312031361080A168A1522210A168A1176
:1029900083120313A11DCD2CCE2CD42C61080A1652
:1029A0008A11E2200A168A11031383120800831287
:1029B0000313D7000A168A111C210A168A118316DE
:1029C0002008831203179100831603132108831232
:1029D00003179200003083161702283003191602DD
:1029E0000318F32CF42CF72C28309600970183124F
:1029F0000313D71CFC2CFD2C032D04308316031766
:102A000096070318970A83160317160883120313F1
:102A1000A90083160317170883120313AA00D9010C
:102A2000DA010A168A15DA260A168A110630A60075
:102A30000A168A11E8250A168A1157080A128A15F9
:102A40003A250A168A110A168A118F270A168A1140
:102A50000313831208008312031385120F308316A9
:102A600088000F300A168A15AD260A168A112830FA
:102A70000A168A153B270A168A1105300A168A1586
:102A8000AD260A168A1128300A168A153B270A161F
:102A90008A113230D2004C2D83120313D203520F0D
:102AA000522D532D4C2D28300A168A153B270A1615
:102AB0008A111430D2005C2D83120313D203520FFB
:102AC000622D632D5C2D28300A168A153B270A16C5
:102AD0008A1104300A168A153B270A168A110E300D
:102AE0000A168A153B270A168A1101300A168A151A
:102AF0003B270A168A1180300A168A153B270A16C8
:102B00008A1103138312080083120313D2005208A0
:102B10000A168A1580260A168A11031C902D912DFB
:102B2000BD2D2018942DB62D520884008313000863
:102B3000F500840A0008F600840A0008F700840AF9
:102B40000008F80083163B087806031DB32D3A08E9
:102B50007706031DB32D39087606031DB32D3808FB
:102B60007506031DB32D0319B72DB62DBA2DB82D3B
:102B70000314BB2D0310E52DE52D83120313A11EB5
:102B8000C22DC32DC62D0314E52DE52D831203138D
:102B90002018CB2DDF2D83163F083B06031DDC2DAF
:102BA0003E083A06031DDC2D3D083906031DDC2DC9
:102BB0003C083806031DDC2D0319E02DDF2DE32D25
:102BC000E12D0314E42D0310E52D031383120800F7
:102BD00083160313A101A0018312201245300A16A7
:102BE0008A11E2200A168A1100300A168A11E220A0
:102BF0000A168A112908D9002A08DA000A168A1545
:102C000055210A168A1100300A168A11E2200A1686
:102C10008A11A40A24080A168A11E2200A168A11C7
:102C2000D901DA010A168A1555210A168A1164306B
:102C30000A168A11E2200A168A1126080A168A1133
:102C4000E2200A168A11AC300A168A1554260A1692
:102C50008A11B8300A168A1554260A168A11831664
:102C600020090A168A11E2200A168A118316210900
:102C70000A168A11E2200A168A11AC300A168A1541
:102C800028260A168A11B8300A168A1528260A1626
:102C90008A1103138312080083120313E3018316BE
:102CA0000317110883120313E400031D582E592E35
:102CB0005A2EB42E8312031364080139E4074030FE
:102CC000EC0007300A168A1578210A168A11640862
:102CD000EC000A300A168A1578210A168A11EC01CE
:102CE0000B300A168A1578210A168A111230EC0068
:102CF00000300A168A1578210A168A1110308600CB
:102D0000831688018F2E8312031363089C3E840070
:102D1000831700088800E30A8910000089148312D1
:102D20000313E403640F952E962E832EFF30831633
:102D300003138800FF308312E400A12E83120313D3
:102D4000E40383120313E408031DA72EB12E0730FA
:102D50000A128A1500200A168A11F500751FB22E74
:102D6000B12EB42EB32E9E2E0313831208008312AD
:102D70000313DC0054300A168A1130240A168A1113
:102D8000031CCD2EC32E2E300A168A15B5220A1624
:102D90008A11031CCD2ECC2ECE2ED82E56300A16DC
:102DA0008A1130240A168A11031CD82ED72ED92E48
:102DB000E32E2E300A168A15B5220A168A11031C34
:102DC000E32EE22EE42EEE2E58300A168A1130241D
:102DD0000A168A11031CEE2EED2EEF2EF92E2E3040
:102DE0000A168A15B5220A168A11031CF92EF82E26
:102DF000FA2E042F5A300A168A1130240A168A1124
:102E0000031C042F032F062F052F1E2F5C088400A0
:102E100083135A0880005C0A8400831358088000DA
:102E20005C08023E84008313560880005C08033E61
:102E300084008313540880000314202F0310202FD4
:102E400003138312080083120313D40000300A1600
:102E50008A158B240A168A115403031D302F312F33
:102E60003D2FFF30D500D6010630D700D801CE3037
:102E70000A168A15F1210A168A1183120313D90141
:102E8000D90ADA010A168A1555210A168A11003064
:102E9000D9000830DA000A168A1555210A168A1157
:102EA00006300A168A11E2200A168A1104300A1620
:102EB0008A11E2200A168A115408D900DA010A168A
:102EC0008A1555210A168A110630DA00DB016F30A7
:102ED0000A168A159C230A168A11AC300A168A151E
:102EE00028260A168A110630DA00DB01CE300A16CF
:102EF0008A159C230A168A11B8300A168A152826C4
:102F00000A168A1106308316D4000830D5000A1636
:102F10008A118F270A168A11031383120800831659
:102F20000317160883120313D80083160317170814
:102F300083120313D9000A168A111C210A168A115A
:102F4000F230E300FF30E4000A168A15B1240A16B5
:102F50008A11831603179101063083120313DA00D6
:102F6000DB01CE300A168A159C230A168A11063018
:102F7000DA00DB016F300A168A159C230A168A11C3
:102F8000831655080A168A11E2200A168A1183163A
:102F900054080A168A11E2200A168A110E30D80740
:102FA0000318D90A0A168A114C260A168A1100300B
:102FB00059023C30031958020318DF2FE02FE32F8A
:102FC0003C30D800D901831203135808EC000530B7
:102FD0000A168A1578210A168A115908EC0006305B
:102FE0000A168A1578210A168A112430EC0000305E
:102FF0000A168A1578210A168A110313831208000B
:10319E0083120313851688000000000085120000BC
:1031AE0003138312080083120313D70003178D0035
:1031BE0083168C130C1483120C08031308000030B2
:1031CE000A168A11DD230A168A150A168A1507228F
:1031DE000A168A150313831208007F308316031311
:1031EE009900043098009030831298008316981638
:1031FE00031383120800831203171A08F600190826
:10320E00F5001B08F502031CF6031C08F6020F2935
:10321E00031383120800DC30F5000530F600831628
:10322E0003171A08F502031CF6031B08F6021F29E2
:10323E0003138312080083120313E200262983125C
:10324E0003130C1E2B292C29262983120313620823
:10325E00990003138312080052300A168A1198211E
:10326E000A168A15031C3C293D293F2903144129BE
:10327E0003104129031383120800831203135A0803
:10328E000A168A159D270A168A1559080A168A15CE
:10329E009D270A168A15031383120800831203133F
:1032AE005A080A168A11E2200A168A1559080A16B1
:1032BE008A11E2200A168A150313831208006C295C
:1032CE000A168A157C250A168A150A168A15D02220
:1032DE000A168A1503187429752967290313831290
:1032EE000800831203138600ED006C088800831615
:1032FE0088018312891000008914FF30831688001C
:10330E00031383120800FF30831603138800831201
:10331E0086018316811320308600831209148914C6
:10332E0009158316890103138312080083160313EC
:10333E0087150716383083129400831691010C30CE
:10334E009300C030940083128C138D1103138312DB
:10335E000800F901FA010310F80CF70C031CBE2942
:10336E007508F90776080318760AFA070310F50DA3
:10337E00F60D7708780403190034B229831203136B
:10338E00D20052030319CC29CD29CF294030D207C0
:10339E008312031352087F3E0A168A153B270A161C
:1033AE008A15031383120800831203131F15DF29D6
:1033BE00831203131F19E429E529DF29831203134E
:1033CE001E08F600F50183161E08F504EE290313F8
:1033DE008312080083120313D900DA00FC295A085D
:1033EE008400831355088000DA0A57080319D8039E
:0233FE00D703F3
:10340000570A0319580A031DF62959080800082A03
:103410008316031311081F39F500F6010030141943
:103420000130F50476087504031D172A182A082AA6
:103430008316031311150313831208001F2A831622
:10344000031311081F39F500F6010030141901307B
:10345000F50476087504031D2E2A2F2A1F2A8316C9
:1034600003131114031383120800362A831603135F
:1034700011081F39F500F601003014190130F50468
:1034800076087504031D452A462A362A8316031337
:1034900091140313831208008312031794019301FC
:1034A00003100030031801309B009C01031320100F
:1034B000031710100313EA01EB010A168A11012009
:1034C0000A168A1503138312080083120313550882
:1034D000F600F5017508D9007608DA005608F500FF
:1034E000F60159087504D7005A087604D800580820
:1034F000F6005708F5007C2A031383120800831294
:10350000031323080F02A20078302202031C892A29
:103510008A2A952A83160317980A0319990A78307C
:1035200083120313A3070314972A0310972A031384
:103530008312080083120313D300A62A83120313F5
:1035400052080A168A1522210A168A1583120313B5
:10355000D30A5303840083130008D200031DB12A49
:10356000B22A9E2A03138312080083120313DF007A
:103570005E300A168A1198210A168A15031CC72A7A
:10358000C12A5F085E06031DC72AC62AC92AC82A9F
:10359000CB2A0314CD2A0310CD2A0313831208006B
:1035A000831203138C1ED52AD62AE72A1819DD2A7E
:1035B000D92A9818DD2ADC2ADF2ADE2AE12A031418
:1035C000E92A8312031318121A08DE0018160310D2
:1035D000E92A03138312080052300A168A15D125EE
:1035E0000A168A15031CFF2AF52A53085306031DE1
:1035F000FB2A52085206031DFF2AFE2A012B002B2C
:10360000032B0314052B0310052B0313831208004F
:1036100083120313D60056088400831355088000D4
:10362000560A84008313540880005608023E840022
:103630008313530880005608033E84008313520806
:10364000800003138312080083120313D5005F3038
:103650005502031C2C2B2D2B302BE730D5073A2B92
:1036600046308312031355020318372B382B3A2B9D
:103670001930D5078312031355083E2B0313831209
:103680000800403083120313EC0007300A168A1535
:1036900078210A168A155208EC0008300A168A1595
:1036A00078210A168A155308EC0009300A168A1583
:1036B00078210A168A15031383120800672B8312D8
:1036C000031358080A168A1522210A168A1583122E
:1036D00003135708FD005608D60A0319D70A0A1221
:1036E0008A1140200A168A15D800D808031D792BA4
:1036F0007A2B5F2B031383120800862B831203138C
:1037000060080A168A1183240A168A158312031385
:103710005F08FD005E08DE0A0319DF0A0A128A113B
:1037200040200A168A15E000E008031D982B992B0B
:103730007E2B03138312080083120313DC00AC2BCF
:1037400083120313DC0A5C038400831300080A1647
:103750008A11E2200A168A15831203135A080319E4
:10376000DB03DA035A0A03195B0A031DB82BB92BD2
:10377000A02B03138312080083120313D200CC2B57
:1037800083120313D20A52038400831300080A161B
:103790008A159D270A168A158312031352080319E6
:1037A000D303D203520A0319530A031DD82BD92B72
:1037B000C02B03138312080083120313ED00E02BC8
:1037C0008316031311081F39F500F6010030141990
:1037D0000130F50476087504031DEF2BF02BE02B68
:1037E000831203136D08930003108316111F031433
:1037F000F92B03138312080083120313D5008316D9
:1038000003178C18012C83120313550803178D001E
:103810000313540803178C0083168C1303108B1B9F
:1038200003148B130C1555308D00AA308D008C14A9
:103830000C1103188B170313831208008312031350
:10384000D601D50106305502031C272C282C292C23
:10385000392C8312031355080A168A15DA200A1622
:103860008A15D607D50A06305502031C382C392C88
:10387000292C83120313D60956083E2C03138312F6
:10388000080083120313E2000317940803194F2C56
:10389000492C1C081B0403194F2C4E2C512C502C66
:1038A000602C940314081D3E8400831703136208E0
:1038B000800003179B0803199C039B030314622CCD
:1038C0000310622C0313831208008316031388016C
:1038D0008312E200620E0F3910380A168A15CF20C3
:1038E0000A168A1562080F3910380A168A15CF2071
:1038F0000A168A150F308316880014308312E300ED
:10390000812C83120313E303630F872C882C812CF3
:1039100003138312080083120313D70083160317BF
:10392000910103100030031801309600970116082A
:103930009A0017089B000313A101A0018312201213
:103940008316201CA52C8312201683120313E30177
:10395000E4010A168A15B1240A168A150313831284
:1039600008000E3083120313E3070318E40A403003
:10397000E4074030EC0007300A168A1578210A1651
:103980008A156308EC0008300A168A1578210A1691
:103990008A156408EC0009300A168A1578210A167F
:1039A0008A15831603179001900A031383120800E7
:1039B00083120313D8005408DA005508DB005808B6
:1039C000D900F42C5B08FD005A080A128A11402025
:1039D0000A168A15F50059088400831375088000BB
:1039E000D90ADA0A0319DB0A56080319D703D603E2
:1039F000560A0319570A031DE22C58080800062D21
:103A000083120313D8080319D903D80383120313AD
:103A100059085804031D0D2D162D5A300A168A1107
:103A200098210A168A150318172D162D192D182DF1
:103A3000002D8312031359085804031D202D212D36
:103A4000232D0314252D0310252D031383120800A5
:103A500083120313590803171A02031D332D03138E
:103A60005808031719020318362D372D392D031066
:103A70004F2D831203135808EA005908EB000A1669
:103A80008A1101200A168A15580803179B00031390
:103A9000590803179C009401930103144F2D03133D
:103AA000831208000A168A151E220A168A15A030EB
:103AB0000A168A15DC230A168A1542080A168A1580
:103AC000DC230A168A1541080A168A15DC230A1611
:103AD0008A150A168A1507220A168A150A168A15E1
:103AE0001E220A168A15A1300A168A15DC230A1628
:103AF0008A150313831208008F2D83120313181DD8
:103B0000822D852D981C862D852D882D872D8E2D17
:103B100018121A08DE0018160030A32D6400831254
:103B200003138C1E942D9C2D18199B2D972D9818DE
:103B30009B2D9A2D9C2D9D2D9F2D9E2D7D2D83128D
:103B400003131A08A32D031383120800831203130F
:103B5000D8000430D700B52D83120313D7035708BC
:103B60005807840083135908800083120313D70871
:103B7000031DBB2DC42D59300A168A1198210A162F
:103B80008A150318C52DC42DC72DC62DAC2D831243
:103B90000313D708031003190314CE2D0313831244
:103BA000080083120313DC0058300A168A1198218A
:103BB0000A168A15031CE72DDD2D59300A168A11C5
:103BC00098210A168A15031CE72DE62DE92DE82D0C
:103BD000F72D5808DB005908DA005C0884008313CD
:103BE0005A088000840A5B0880000314F92D031032
:103BF000F92D03138312080083120313D900590807
:103C00008400831357088007840A0318800A580821
:103C1000800784035908840083130008F500840A90
:103C20000008F60058087602031D182E5708750282
:103C300003181B2E1C2E252E5908023E84008313C8
:103C400001308007840A0318800A031383120800D6
:103C500083120313D9005908033E8400831300081C
:103C60000A168A11E2200A168A155908023E8400B3
:103C7000831300080A168A11E2200A168A15590AC7
:103C80008400831300080A168A11E2200A168A1596
:103C900059088400831300080A168A11E2200A16C4
:103CA0008A1503138312080083120313D9005908DD
:103CB000033E8400831300080A168A159D270A16FE
:103CC0008A155908023E8400831300080A168A15D3
:103CD0009D270A168A15590A8400831300080A16BC
:103CE0008A159D270A168A1559088400831300082F
:103CF0000A168A159D270A168A15031383120800CF
:103D000083120313D2005208840083130008F500C5
:103D1000840A0008F600840A0008F700840A0008F4
:103D2000F80083162C08F5062D08F6062E08F7066F
:103D30002F08F8063008F5053108F6053208F705B2
:103D40003308F8057808770476047504031003191E
:103D50000314AA2E03138312080083120313E50031
:103D6000D02E83120313E40104306402031CB92E25
:103D7000BA2EBB2ED02E7D3083120313E600C02E48
:103D800083120313E603660FC62EC72EC02E8312BE
:103D90000313E40A04306402031CCF2ED02EBB2E82
:103DA00083120313E503650FD62ED72EB12E03130E
:103DB000831208000530831203135A02DD30031901
:103DC0005902031CE42EE52EE72E0310072F0A16D6
:103DD0008A111C210A168A155908831603179A009E
:103DE000831203135A08831603179B001A088312C1
:103DF0000313E300831603171B0883120313E40065
:103E00000A168A15B1240A168A150314072F0313FC
:103E100083120800831203134C08303A031D112F3C
:103E2000162F4C08313A031D172F162F192F182F54
:103E3000212F4C08303A03191E2F202F0515212F52
:103E40000511831203134D08303A031D282F2D2F1F
:103E50004D08313A031D2E2F2D2F302F2F2F382FA5
:103E60004D08303A0319352F372F8515382F851116
:103E70000313831208008316031388018312E200E0
:103E8000620E0F390A168A15CF200A168A156208A3
:103E90000F390A168A15CF200A168A156208FC39CE
:103EA000031D532F542F5A2F02300A168A15AD26A0
:103EB0000A168A150F3083160313880014308312F4
:103EC000E300622F83120313E303630F682F692F4C
:103ED000622F0313831208000A168A15DB210A16C3
:103EE0008A157508831603179200760893008430AC
:103EF00003139F0083121F08C73908389F0005303D
:103F0000DA00822F83120313DA035A0F882F892FC6
:103F1000822F0A168A15DB210A168A157508831660
:103F200003179400760895008E3003139F00C73066
:103F300083129F0503138312080083120313E40006
:103F4000201EA32FA42FB52F64088316A107831268
:103F50006408831621020318AE2FAF2FB42FA00FD1
:103F6000B22FB32FB42FA10AC72F831203136408F3
:103F70008316A00783126408831620020318C12F3A
:103F8000C22FC72FA10FC52FC62FC72FA00A83127C
:103F900003131030A00603138312080083120313C7
:103FA000D300D62F83120313D30AD2038312031331
:103FB000D208031DDC2FE52F52300A168A119821F2
:103FC0000A168A150318E62FE52FEF2FE72F53085F
:103FD00084008313000852060319F02FEF2FF22FED
:103FE000F12FD22F83120313D208031DF82FF92FBC
:103FF000FB2F0130FD2F0030FD2F0313831208002B
:02400E0072310D
:00000001FF
